:10000000502E002019490000154900001549000034
:1000100000000000000000000000000000000000E0
:100020000000000000000000000000001549000072
:100030000000000000000000154900001549000004
:10004000154900001549000015490000B5330000AE
:100050001549000015490000154900001549000028
:1000600015490000153A0000253A0000353A000015
:10007000453A0000553A0000653A00001549000075
:1000800015490000154900001549000015490000F8
:1000900005450000154500002545000035450000D8
:1000A00045450000512E0000612E0000154900005A
:1000B00015490000154900001549000010B5064C0F
:1000C0002378002B07D1054B002B02D0044800E019
:1000D00000BF0123237010BD70000020000000004D
:1000E0009462000008B5084B002B03D0074808496C
:1000F00000E000BF07480368002B00D108BD064B95
:10010000002BFBD09847F9E7000000009462000044
:10011000740000209462000000000000F0B58BB075
:1001200001600C681C23A40700D5E7E00C68173BAE
:10013000E40700D5E2E0161C0C1C051C081C714BE2
:100140009847052802D0471C133001E019200627E4
:100150006D49CA690123BB401343CB6109A9242718
:10016000F35D0B70C3B20193181C684B984701985C
:10017000674B9847F05D0021664B98473378012B19
:1001800003D122680B33134323603378002B00D054
:10019000AEE02268083313432360A9E004C38B4216
:1001A000FCD10023EB62AB620024AB862B86363396
:1001B000EC540133EC540133EC54353B6B722C712D
:1001C0002868504B9847071C5349544B9847BF0029
:1001D000534BFD502F6804AB80221A705C707F3A3D
:1001E0009A70DC703378002B02D1002204AB9A7035
:1001F000B36A0593F36A0693336B0793736B0893A3
:100200000024E1B2A30005AA9858002802D1381CA6
:10021000444B9847431C06D002AB1872000CC0B286
:1002200004A9414B98470134042CEAD133786B710F
:10023000337CAB71B37CEB71337D2B72002202AB4C
:10024000DA803378012B13D128682E4B984713306E
:10025000C0B2364B9847011CB06902AB9A1D344BB3
:1002600098471723002849D102AB06331B783B730C
:100270003378002B0FD1B069B38B796AF27F120407
:10028000B47F22430A437A622022B25C002A04D05F
:1002900040210B4301E000230020B26871680A434B
:1002A000F1680A430243317C0B43717C002903D17E
:1002B00020498978890701D580210A43B17C00292A
:1002C00002D0802189020B43F17C002902D08021D9
:1002D00089000B43317D002902D0802189010B4325
:1002E00039680A433A607A6813437B60002305E06B
:1002F0002B1C0C33291C283100224FE7181C0BB093
:10030000F0BDC0466D390000000800401D430000EC
:10031000B54200009537000031040000AD390000FF
:100320000C0E0020E137000019440000414300009A
:10033000A53500000020004110B544791523012C9B
:1003400074D1047A0023002C70D1002A5DD04B7840
:10035000002B48D003681B7EDB0711D40B78D9092A
:100360000022002905D15A09D2018221C9058C46F3
:1003700062441F210B401E3999409161052355E0CD
:100380000B78DC090022002C05D15A09D201822405
:10039000E405A44662441F2423401E3C9C40546153
:1003A0008A780368197EC90700D59A62C27900234A
:1003B000002A3BD102680421137E0B42FCD0117E3F
:1003C0000023490732D5538B5B0703D5518B042398
:1003D0000B4353838379012B02D1936A002325E0D9
:1003E000936A002322E00B78D9090022002905D165
:1003F0005A09D2018221C9058C4662441F210B4053
:100400001E3999405161002310E00B78D909002270
:10041000002905D15A09D2018221C9058C466244BE
:100420001F210B401E39994091610023181C10BDFB
:10043000F8B580007B4BC45826683623E35C37222E
:10044000A75C1F40337EB57D1D40EB0743D5637924
:10045000012B16D1637A002B0FD1734B1B88B3622B
:10046000638E013B9BB26386638E9BB2002B01D1EE
:10047000013333756379012B03D1637A002B05D1E6
:1004800029E0002B27D1637A002B24D02068E16A71
:100490000B78DAB24B1CE362A379012B01D093B243
:1004A00004E04B781B0213430231E162DB05DB0DF4
:1004B0008362A38E013B9BB2A386A38E9BB2002BCB
:1004C00009D101333375637A012B04D1E379002B11
:1004D00001D10233B3756B0761D5738B5B0714D5FC
:1004E000637A012B0BD01E223823E254353B637212
:1004F000023333753B0702D5201CA3699847B36AC2
:10050000728B04231343738349E0637A012B16D162
:1005100023689B6A638E013B9BB26386638E9BB2AA
:10052000002B3CD10433337500223433E254353B85
:100530006372FB0733D5201CE36898472FE02368DC
:100540009B6ADB05DB0DDAB2A16A0A70A26A511C54
:10055000A162A179012904D11B0A5370A36A013356
:10056000A362238E013B9BB22386238E9BB2002B7A
:1005700015D100223833E254343B3375637A022BB1
:1005800005D17B070BD5201C6369984707E0637A88
:10059000002B04D1BB0702D5201C23699847AB0769
:1005A00028D56379002B10D107333375053B33769B
:1005B000013363720023A386238638330022E2547A
:1005C000FB0602D5201CE36998476379012B11D102
:1005D000637A012B1BD1E379002B18D102333375D9
:1005E0000133637200223533E254FB0702D5201C2D
:1005F000E36898472B070AD56379002B07D10833A6
:1006000033753376BB0602D5201C236A9847ED0963
:1006100007D08023337533767B0602D5636A201CAE
:100620009847F8BD0C0E0020400C002084B070B537
:100630008EB0051C12900C1C13911492181C15936B
:10064000002100236A46117000226E46B180F271CB
:100650007370B37033727372B372F3723373B373B4
:1006600073733185B1853423F254303BF370023B10
:10067000B371FF212733F1540133F2540133F254A3
:100680002A3B6A4633740595069433770890169B87
:100690000993094C201C1999084B98472268136943
:1006A000002BFCD1116802330B4313600EB070BCF9
:1006B00008BC04B01847C046440C00209145000017
:1006C00084B070B58CB01090119112921393154BA9
:1006D0001B78032B0AD8591C124A1170124A5B006E
:1006E000D5180021995401236B7000E0002504AC5B
:1006F000231C10AA43CA43C343CA43C303CA03C348
:1007000008AB6A4643CB43C21B6813600498059943
:10071000069A079B054CA047281C0CB070BC08BC6F
:1007200004B018478C000020900000202D06000027
:10073000017070474170704784B0F8B50791089216
:100740001C1C09930C9D4378012B0BD107780D4E8F
:10075000E1B2301C00220C4CA047E9B2301C3A1C1C
:10076000A0470AE00778074EE9B2301C0022064D88
:10077000A847E1B2301C3A1CA847F8BC08BC04B03A
:100780001847C046440C0020894800007047C04606
:1007900008B5836819785A780448054B9847802231
:1007A00012028223DB05DA61012008BD245F00000C
:1007B000A14E000008B501200B4B98470B480C4B8D
:1007C000984701200B4B984701200B4B984701207D
:1007D0000A490B4B98470B4B14229A6000221A735C
:1007E000094A1A6108BDC0466108000039120000BC
:1007F00075080000011D0000ED1C000091070000BD
:1008000089080000980000208D07000008B50D4AF7
:10081000002313715371138048215352131C40322B
:100820000021996004339342FBD1074B9847074B53
:100830009847074B9847074B9847074B9847074BF4
:10084000984708BD600C0020991800009D13000017
:10085000350A0000F5080000390B0000BD1000004B
:1008600008B5024B1880024B984708BD600C002069
:10087000351D000008B5024B5880024B984708BD53
:10088000600C0020151D000002308000014BC1509B
:100890007047C046600C002008B5034B9847034BD7
:1008A0009847034B984708BD29140000891A000097
:1008B0000109000008B50D4B1B68002B12D05A68C7
:1008C00082420CD102E05A68824208D18522825CC1
:1008D0001A778822825C5A7702221A7202E01B6819
:1008E000002BF0D1024B984708BDC046AC00002059
:1008F000C10A00000022014B1A607047AC000020C2
:1009000070B5464B1A68002A00D185E0141C237A82
:10091000002B02D0022B66D07AE0414B9847051E8F
:1009200003D102232372237776E0606001262672CA
:100930003C4B89228354190A021C89325170190CCC
:1009400091701B0ED370A17B89080122114088236E
:10095000C154A17B1140081CE97AB1430143E972FB
:10096000A37BDB0813409A00CBB204218B431343D3
:10097000EB722D4A13790133DBB213712B731378A9
:100980006B735378AB736389A27AEA731B0A2B7477
:10099000627B0F200240111C6A7C0F239A430A439A
:1009A0006A74227B12016B7C034013436B748123B6
:1009B000E95C0133EB5C1B020B431A1C8323E85CEC
:1009C0000004031C13438422A85C00061843227D04
:1009D0002169164B9847227D6B78D3186B70281CC1
:1009E000134B984718E0944204D10C4B22681A60CC
:1009F00005E01A1C13689C42FBD1236813600A4966
:100A000048228B5A013B8B52A369201C984703E074
:100A10002468002C00D07AE770BDC046AC000020EE
:100A2000510A0000B5080000600C00207D4E000057
:100A3000CD180000044B054A991800221A708D3316
:100A40008B42FBD17047C046B000002082050000F9
:100A500070B5184B1B78002B07D0164A8D32012336
:100A6000181C117800291DD100E00020114E8D24A2
:100A700044433519281C00218D220F4B9847102321
:100A80006B70281C12302B1C81331870020A5A70AC
:100A9000020C9A70000ED870084948228B5A013314
:100AA0008B5204E001338D320A2BD9D10025281C4A
:100AB00070BDC046B00000208F4E0000600C0020CA
:100AC00000230370024948228B5A013B8B52704726
:100AD000600C0020002807D08D300D4B0D4A944645
:100AE0006344984201D310E009480378002B0DD1EC
:100AF000074A084B9C46624402E00378002B05D16C
:100B00008D309042F9D3002000E000207047C046AD
:100B1000B00000208205000000228523C254054A4F
:100B200013790133DBB21371037313784373537872
:100B300083737047600C0020F0B5094B023300222C
:100B400001277F42064C012600251F80D000015D51
:100B5000B14301551D7101320833642AF5D1F0BD4E
:100B60003406002070B50B4A02320023094E148867
:100B7000844209D1DC00A45DA407E40F8C4203D1B8
:100B8000DD000448401904E001330832642BEED143
:100B9000002070BD3406002030B500221248012428
:100BA000031CC825AD00AC466344191C03781C42E5
:100BB0000AD18379002B0BD0002A04D095799D426D
:100BC00002D9021C00E0021C08308842EED1101C41
:100BD0000378022293430D321340302213430370F3
:100BE0008023837130BDC046340600200378DB07C4
:100BF00004D401235B424380002383717047C046C5
:100C000008B5044B9847002801D0808800E00248CE
:100C100008BDC046650B0000FFFF0000F8B5061CCC
:100C20000C1C171C1D1C0C4B9847002801D10B4BAA
:100C300098474680878001231C4063000478022285
:100C400094431C430F231C4030231C430470802317
:100C50008371C571F8BDC046650B0000990B00009B
:100C600008B5034B9847002801D0024B984708BDB0
:100C7000650B0000ED0B00007047C04610B5C27B4D
:100C8000037C1B0213431D4A934235D0041CC17AD6
:100C90000907C90F181C1A4B984700282CD0037855
:100CA000DB0729D48523E35C002B18D103780F22BE
:100CB000134030221343037083790133DBB2837115
:100CC000FF2B19D10F498A1D0F4B9C4661441378A5
:100CD0005B080133137008328A42F8D10CE00278C5
:100CE00013090F330F242340190122400A430270D5
:100CF000002B01D1054B984710BDC046FFFF0000F7
:100D0000650B00003406002026030000ED0B0000F8
:100D100010B5C27B037C1B021343104A934204D1DB
:100D200001235B42C371037216E0C27A520703D5F6
:100D3000C3711B0A03720FE0041CC17A0907C90FB3
:100D4000181C074B9847E071030A2372034B984223
:100D500002D1201C034B984710BDC046FFFF000086
:100D6000010C0000E9100000F0B5474680B4061CF5
:100D7000C27B077C3F021743C47A2407E40FE1B229
:100D8000381C2A4B98472A4B98420ED000228923C0
:100D9000F254331C89335A709A70DA700232882305
:100DA000F254301C234B98473DE0727BB37B1B020F
:100DB00013439846204B9847051E31D01F4B984748
:100DC0006B7806336B7000228923EA542B1C89331D
:100DD0005A709A70DA70FF2342461A409446EA73BA
:100DE00043461B0A98462B748123E85C0133EA5C76
:100DF000120202430133EB5C1B0413431A1C8423CD
:100E0000EB5C1B06134301221A7062465A7042467D
:100E10009A70DF703F0A1F715C71281C054B984760
:100E2000301C074B984704BC9046F0BD010C0000F5
:100E3000FFFF0000CD180000510A0000190B000050
:100E4000C10A000008B58268037B0020062B07D189
:100E5000D3781079000218435179024B984701204A
:100E600008BDC046610C0000F0B50D4B00245D8943
:100E7000002D0ED01D8885420BD15D888D4208D192
:100E80001D79954205D160000619B6000448801905
:100E900004E001340C33052CE9D10020F0BDC0463C
:100EA0006809002038B5114B5B89002B07D00F4A29
:100EB000163201231C1C1188002910D100E00024E7
:100EC0000A4B62001519AD005D1900212972697283
:100ED000FA239B006B810648064B984704E00133D8
:100EE0000C32052BE6D10025281C38BD68090020EE
:100EF00054090020B51F0000F0B5474680B482B009
:100F00000190234D2E1C3C36002700956B89642BE5
:100F100003D9643B6B8101272DE000236B812A8874
:100F20001C4B1B889A4226D1009B5B7A9846002472
:100F30001CE02378402B19D1E27B237C1B02009913
:100F400049881343994211D1E37A1B07009A127919
:100F5000DB0F9A420AD14346002B03D0201C0E4BD4
:100F6000984703E0201C11210C4B9847201C0C4B88
:100F70009847041EDDD10C35B542C6D1002F02D0F2
:100F80000198084B984702B004BC9046F0BDC0469B
:100F900068090020600C0020CD1800003D1A0000F8
:100FA000D50A0000B51F000070B5051C0E1C1E4BB5
:100FB0009847041E36D01D4B9847637807336370FB
:100FC00000228923E254231C89335A709A70DA7004
:100FD000E27A04231343E37201235B42E373237435
:100FE0008233E05C0133E25C120202430133E35CD2
:100FF0001B0413431A1C8423E35C1B0613430222C5
:101000001A702A885A70120A9A706A88A978D97058
:10101000120A1A712A795A719E71201C044B984742
:10102000012000E0002070BD510A0000190B0000F3
:10103000CD180000F8B5051C0F1C161C1C4B98475A
:10104000041E34D01B4B984763780833637000222A
:101050008923E254231C89335A709A70DA7004325F
:101060008823E254EB88E3731B0A23748123E05C3A
:101070000133E25C120202430133E35C1B041343BD
:101080001A1C8423E35C1B06134303221A702A886C
:101090005A70120A9A706A88A978D970120A1A715D
:1010A0002A795A719F71DE71201C034B9847F8BD55
:1010B000510A0000190B0000CD180000074B002258
:1010C0005A81DA825A84DA855A87054B64329A60EB
:1010D00000221A73034A1A617047C046680900204B
:1010E00054090020F90E000010B5041C174B188895
:1010F000E37B217C09021943E27A1207D20F144BD9
:101100009847002802D0402323701EE0114B9847D7
:10111000002816D00D4B1B880380E17B227C120235
:101120000A434280E37A1B07DB0F037101235B4212
:10113000C380FF21084B9847002802D0402323702A
:1011400003E0201C1121054B984710BD600C0020C6
:10115000690E0000A50E0000A90F00003D1A000056
:10116000F0B5474680B48468027B0023072A68D123
:101170006279002A5CD1E37825792D021D43334B37
:1011800019886678A3781B023343994248D08D4270
:1011900005D009B2002945DB0021884601E0012184
:1011A0008846051CA679417B4E43360AE0782179B2
:1011B00009020143181C264B9847071E04D0027AE7
:1011C0000123B24204D33CE0224B9847071E2BD0A8
:1011D0006278A3781B0213433B80E27823791B02D9
:1011E00013437B8063793B712B88FB803E724346BF
:1011F000002B0FD06378A078000218432A880021C2
:10120000331C154CA047381C311CFF22134B984748
:10121000012316E0381C311C114B9847012310E0C4
:1012200001230EE001230CE001230AE0012308E082
:101230006178A3781B020B43044909888B42A8D12B
:10124000F4E7181C04BC9046F0BDC046600C0020BA
:10125000690E0000A50E00001D0C000035100000F6
:10126000A90F0000F8B58468037B0021082B44D146
:10127000051C6378A07800021843E37821790902FD
:10128000194362791E4B9847061CE7796B7B00284F
:1012900032D0A079727A012182422ED270726178A6
:1012A000A2781202174800880A4390420AD1E378D4
:1012B00020790002184361792A88A379124CA0474B
:1012C00001211AE07B431F0AE378207900021843CA
:1012D00061792A883B1C0C4DA8476378A0780002EE
:1012E0001843F288337A0021A847A179301C3A1CB0
:1012F000064B9847012100E00121081CF8BDC046BB
:10130000690E0000600C00201D0C0000351000006C
:1013100008B5027B0023002A1BD083681B78012BB1
:101320000AD0002B04D0022B0AD0032B0CD00FE0E4
:10133000094B9847031C0CE0084B9847031C08E036
:10134000074B9847031C04E0064B9847031C00E03A
:101350000023181C08BDC046051A0000450E0000F9
:10136000611100006512000038B50A490B1D3131CA
:10137000FF31002401251A78002A02D0013A1A70A0
:101380002C1C06338B42F6D1002C01D0024B98471F
:1013900038BDC046A4090020B51F000008B50A4AA0
:1013A000131D3132FF320021197006339342FBD1F5
:1013B000064B64229A6000221A73054A1A610020C3
:1013C0000449054B984708BDA4090020D40A002011
:1013D00069130000111300008908000010B50368AC
:1013E0005A78882A1BD11B78683A9343412B16D12F
:1013F00003790F2B13D9041C094B984700280ED0F2
:10140000202303702379437062798523C254A27923
:101410000133C254023022792168024B984710BD33
:10142000510A00007D4E0000F0B587B00024D34F74
:10143000C5E12378222B00D1D6E0DAB2222A02D8E5
:10144000202B07D0BBE1232B00D192E1242B00D12C
:10145000B2E1B4E124232370E37A0A221A4200D0D5
:10146000ADE16179A27912020A43C5498A420DD1E0
:10147000E27B237C1B021343C24A12889A4202D0A9
:101480008B4200D09BE12223237098E1E17B227CF8
:1014900012020A43BA498A4202D1DB0700D58EE123
:1014A000627BA37B1B02B74909881343994200D191
:1014B00085E1201CB44B9847B44B002200210191D8
:1014C000A51C00921979002950D0EE7A297B0902D7
:1014D00018880E43B0424AD1207B111C5300944619
:1014E00063445B00A94AD3189A78121AD2B2072A29
:1014F00027D84B0063445B00A448C318DB78181C52
:101500001041C10712D5E279237A1B029D4909884F
:101510001343994200D052E1E37B207C0002184340
:10152000E17A0907C90F9A4B984748E100994800AA
:1015300041184900012090400343944A5218D37047
:1015400043E1924D00994E0073185B00EB189870C0
:10155000D8785242D2B29040021C01200243DA7085
:10156000711849006B1815221A712EE1019301328E
:101570000633322AA5D10198002800D11FE1617BF2
:10158000A27B12020A430280237B83700123C37073
:10159000143303717F48804B984716E1794B1988C3
:1015A000E27B237C1B021343994210D0E27A52075C
:1015B0000AD4201C794B9847724B1988E27B237C14
:1015C0001B021343994202D06D4A934202D1222357
:1015D0002370F4E0E279237A1B021343994200D08E
:1015E000EDE023232370EAE000236D4A1370607C52
:1015F0000009C3B202339B00624A9D58002D5AD0A5
:10160000A61C637BA27B12021A43944602AB1A808B
:10161000E37B217C0902194302AB5980637C1B07E1
:101620001B0F02AA137150718123E35C8220205C9E
:10163000000218438323E35C1B0418438423E35C08
:101640001B0603430493F31A60781B181373852356
:10165000E35C53738623E35C9373E37A03201840BF
:10166000061C5807C00F400130431B07DB0F9B01CE
:1016700018434C4BCB1859424B419B000343607AB3
:10168000A17A090201436246521A51424A41D200EC
:10169000134302AA93716179A27912020A43414964
:1016A0008C46624451424A411201134302AA93718B
:1016B000101CA84700E00020E17ACB07DB17184098
:1016C000E279237A1B0213432D4A93420AD1E27B2B
:1016D000237C1B022B4D2D8813439D4202D10B0707
:1016E00000D401206279A3791B021343244A934258
:1016F0003CD0244B1A88224B9A4237D0002835D050
:10170000294B9847051E31D0284B98476B780333F7
:101710006B7000228923EA542B1C89335A709A700B
:10172000DA70E27A02231A40EB7A02218B431343E8
:10173000EB72627BA37BEA732B748123E85C013339
:10174000EA5C120202430133EB5C1B0413431A1CD4
:101750008423EB5C1B06134300221A70104A127894
:101760009A70227B5A70281C114B984724232370AF
:1017700025E0201C0F4B984721E0C046D50A000009
:10178000FFFF0000600C0020790C0000A40900207D
:10179000610C0000D40A0020B51F00007D19000074
:1017A000D00A00200100FFFF510A0000190B0000C1
:1017B000CD180000690D0000201C094B9847201C23
:1017C000B847041E00D034E608E0E279237A1B0211
:1017D0001343044A934200D0EEE6DFE607B0F0BDC3
:1017E000C10A0000FFFF0000F0B583B001900024A3
:1017F0000020104D8626872712E00378112B0FD189
:10180000825DC35D1B021343013B9BB28355190AE2
:10181000021C863251700124002B01D11333037056
:10182000A8470028E9D1002C02D00198024B984724
:1018300003B0F0BDD50A0000B51F0000F0B583B0BD
:10184000019000240020124D8626872715E003789A
:10185000162B12D1825DC35D1B021343013B9BB269
:101860008355190A021C863251700124002B04D1C1
:101870001733037010226E33C254A8470028E6D1F4
:10188000002C02D00198034B984703B0F0BDC0462E
:10189000D50A0000B51F00000022074B1A60074B55
:1018A000322199601A7306491961064B0A21996021
:1018B0001A73054A1A617047FC0A0020E80A0020E2
:1018C0003D180000000B0020E917000010B5041CB3
:1018D0008823C35C9A0702D51222027001E012220B
:1018E000027000218522A154DA0704D50122524258
:1018F0006271A27104E01D4A91786171D278A2717F
:1019000005221A4203D1201C194B984703E0E27BC1
:10191000237CE271237215490B7863724B78A372B2
:101920004B790133DBB24B712371E179237A1B02CE
:101930000B43104A93420ED14123A370B93BE3708D
:101940000D4B98470723184001307F33E05486340D
:101950000023637009E06123A370D93BE370002288
:10196000FE33E25486340023637010BD600C002007
:10197000110D0000FFFF0000AD4F000038B5051C41
:101980001C4B9847041E33D0122303706B784370AE
:1019900000228523C254184B984707231840013072
:1019A0007F33E054000C231C8633587000228923B7
:1019B000E254231C89335A709A70DA70A01C6A783A
:1019C000A91C0E4B98474123A370B93BE3707733B2
:1019D000E37123726A79AB796271A371084A137853
:1019E00063725378A37253790133DBB2537123715D
:1019F00038BDC046510A0000AD4F00007D4E0000CA
:101A0000600C002038B58568037B0020032B12D1C1
:101A1000094C0DE00378162B0AD1027B6B789A42B1
:101A200006D117230370AA787133C254012002E053
:101A3000A0470028EED138BDD50A00001723037057
:101A40006E33C1547047C0460D4B1B68012805D04A
:101A5000002807D02122022805D001E0202202E040
:101A6000012200E0002285215A5415221A7000221A
:101A7000034B1A60034948328B5A013B8B52704723
:101A8000FC0A0020600C002070B50024384D394E4F
:101A900068E02378132B1AD0DAB2132A02D8122B5B
:101AA00005D05FE0152B22D0172B42D05AE08623B9
:101AB000E25C0133E35C1B02134305D01123237066
:101AC0002D482E4B98474DE0132323704AE033688E
:101AD000002B47D1274B1C6014232370601C284B1C
:101AE0009847284948228B5A01338B523AE0852384
:101AF000E35C002B1AD1627BA37B1B02214909887E
:101B0000134399420FD1E37ADB070CD516232370D8
:101B100015227033E2540022231C86335A701A486F
:101B2000164B98471EE0172323701BE017232370E2
:101B300018E0201C154B98478923E05C0133E25CD8
:101B4000120202430133E35C1B0413431A1C8C236F
:101B5000E35C1B06134303D1201C0D4B984701E0A7
:101B6000201C9847201CA847041E92D170BDC04677
:101B7000D50A0000FC0A0020000B0020B51F000061
:101B8000611D0000600C0020E80A00207D0C0000B0
:101B9000C10A000038B50C20134B98473F23011CA5
:101BA0009943124B1B781943C9B20C20104DA8471A
:101BB000104C21781420A8472378002B0DD1082041
:101BC000094B98471F23011C99430B4B1B78194362
:101BD000C9B20820064B984704E0074B1978132038
:101BE000034B984738BDC04651230000140B00201A
:101BF000492400009A0B00209B0B0020F8B5041C20
:101C00000B4F0C4E1F2502200321B8470120B0477F
:101C100028400828F7D1064F064E1F250220211C18
:101C2000B8470120B04728408442F7D1F8BDC046EC
:101C3000492400005123000008B50820064B9847AE
:101C40000F20064B9847064B1B78002B02D016201E
:101C5000014B984708BDC046FD1B00005123000002
:101C6000990B002070B5194B9847194B98470023E2
:101C7000184A1370184A13700C20184B98473F23CA
:101C80001840174B18700122164B1A70164E134D40
:101C90001F2402200821B0470120A847204008281F
:101CA000F7D10E300D4B98470323011C994319437C
:101CB000C9B216200C4CA04705200021A0470420E3
:101CC0002E21A0470C208021A04770BD01220000DA
:101CD00025230000990B00209A0B002051230000BF
:101CE000140B0020980B00204924000008B5024B7B
:101CF0001870024B984708BD990B0020391C000052
:101D000008B5024B1870024B984708BD9B0B00208A
:101D1000951B000030B583B06B469D1DD880C1B2C5
:101D20002220034CA04769782320A04703B030BD90
:101D30004924000070B582B06B469E1DD880C4B2A5
:101D40002020211C054DA84776782120311CA8476A
:101D50003119C9B22D20A84702B070BD4924000036
:101D600010B5041C19200C4B98470F200B4B9847BB
:101D700021788B1C23700131C9B2201C084B984775
:101D80000322084B1A70084B802212029A61C04647
:101D9000C0465A6110BDC046FD1B00005123000023
:101DA00081260000980B002080000041F0B585B02E
:101DB000314B1B78022B5CD00F20304B9847030728
:101DC00057D52D4B1B78012B39D107202B4B98472A
:101DD000051C6B46DC1D201C0121294FB847294EEC
:101DE00021780231C9B2301CB84702AA731C029391
:101DF0002378991E1171F3185B785371224B19786F
:101E00004B07DA0F0B0704D453425A419D239B1A08
:101E100008E09E23002A05D0102211404A424A4180
:101E200001339B1A02A8EB188371184B9847134D86
:101E30001F240120A84720401628FAD119E0032BBF
:101E400017D102200D4B98474009C4B2002C08D08E
:101E5000032C05D0053C634263410324E41A00E0EF
:101E600001240B4B98470122034B1A70201C094B8D
:101E7000984705B0F0BDC046980B002051230000E4
:101E800045250000180B0020140B0020DD13000076
:101E9000391C0000491A000008B5034B9847034B52
:101EA0009847034B984708BD4D1F0000651C000074
:101EB0000D08000008B5034B9847034B9847034BA8
:101EC000984708BDAD1D000099080000D11F000013
:101ED00030B5154B1D68002D1ED0826869688A4296
:101EE00005D32C1C09E05968914205D901E02B1C4F
:101EF0000024891A596004E01C1C521A2368002B24
:101F0000F1D14260002C03D023680360206009E017
:101F10000560054B186005E000230360836843609B
:101F2000014B186030BDC0469C0B002008B5044A28
:101F300013780133DBB213700248034B984708BD96
:101F4000AC0C002010270000BD4B000010B5002491
:101F5000064B1C700648074B9847074B98470748A5
:101F6000074B9847074B1C6010BDC046AC0C0020C7
:101F70002D1F0000AD4C0000294C00001027000070
:101F8000BD4B00009C0B0020094B1B68002B09D0A7
:101F9000834202D108E0984208D01B68002BFAD196
:101FA000002004E0002002E0012000E00120704752
:101FB0009C0B002010B5041C034B9847002802D14D
:101FC000201C024B984710BD891F0000D11E000045
:101FD000F8B51A4B1B78002B2FD0EFF3108272B696
:101FE000BFF35F8F0020164B187014490B78DBB2DB
:101FF0000870002A05D10121114A1170BFF35F8FCB
:1020000062B69D00ED186D000E4E371C0DE0ED1A06
:1020100023683B60237B012B02D1201C0A4B98478D
:102020002369002B01D0201C98473468002C04D071
:1020300063689D42EBD25D1B6560F8BDAC0C00206F
:10204000080000209C0B0020D11E000008B5014BA9
:10205000984708BD914C000008B5014B984708BD52
:10206000494C000008B50248024B984780B208BDB1
:10207000E80C002049480000034B10211A68117237
:102080005A7E8A435A767047E80C002010B50A4CF5
:1020900020680A4B98470A4B1B5C1F2213401E3ACC
:1020A0009A40131C074A1360627E10231343637621
:1020B000236810225A7210BDE80C0020554500001C
:1020C0009C5F000000E100E008B5021C024800210E
:1020D000024B984708BDC046E80C00208948000024
:1020E000F8B54F464646C0B4304A0021002311706F
:1020F000D170002091809071D371537093701372DE
:1021000053729372D3721373937353731374516135
:102110009161137711625162118591853423D054F6
:10212000353B5385224C201C2249234B9847201CC9
:1021300022490022224DA847201C22490222A847FA
:102140002068214B98469847204F3B5C1F26334020
:1021500001252A1C9A40131C1D4A91461360627E79
:1021600001231343637623685D72181CC0473B5CF0
:102170001E40B5404B461D60627E102313436376BC
:102180002268102353721369002BFCD111680233AB
:102190000B43136000200F4B98470F490F4B984794
:1021A000C0B20CBC90469946F8BDC046B00C0020A9
:1021B000E80C0020003C004291450000592000003E
:1021C000754400004D200000554500009C5F000054
:1021D00000E100E04942000040420F00B94C00001D
:1021E00008B58022D201044B5A61044B1B68002BB6
:1021F00000D0984708BDC04600280040A00B002032
:10220000F0B585B0364A00235370937011211170D8
:10221000344C21706370A370012269464A708B7040
:102220000A701120304B98472378D90900220029E1
:1022300005D15A09D2018221C9058C4662441F2565
:102240002B400124211C99409161284A14700023DD
:1022500053609360137453749474D474137524216D
:102260005354D361136280235B02D360204B93618C
:10227000204B936201235B42D3621F4B13631F4BBE
:1022800053631F4F381C1F491F4B98473E68301C33
:102290001E4B98470540AC401D4B1C603A68D36903
:1022A000002BFCD1336802252B43336001AC201C8A
:1022B000184B98472E230193B8239B036360257224
:1022C00000236372A3720133E3720E20211C124BB0
:1022D000984712480E210022114B984705B0F0BDD7
:1022E000080D00200C0D002081350000100D00208D
:1022F00000093D000200100002001200020013005D
:10230000480D0020000800421D010000E9390000CE
:1023100000E100E0E1340000F5340000E1210000BC
:102320008933000070B5084C80256D01A5618023BC
:102330001B026361A5204000044EB04765610A207E
:10234000B047A56170BDC04680000041E127000094
:1023500070B5051CEFF3108463425C4172B6BFF3A5
:102360005F8F0022334B1A70334E301C33490132D9
:10237000334B9847336801211A7E0A42FCD01A7EFB
:10238000D20702D5802215439D6202211A7E0A429D
:10239000FCD004211A7E0A42FCD01A7E520714D5C2
:1023A0005A8B520703D5598B04220A435A83224A77
:1023B0009279012A05D19A6AD205D20D21490A8063
:1023C00003E09A6AD2B21F490A8001211A7E0A42AA
:1023D000FCD01A7ED20701D500229A6202211A7E11
:1023E0000A42FCD004211A7E0A42FCD01A7E002543
:1023F000520710D55A8B520703D5598B04220A4332
:102400005A830D4A9279012A03D19D6AED05ED0D9B
:1024100001E09D6AEDB2084808490022084B984740
:10242000002C05D00122034B1A70BFF35F8F62B6F8
:10243000E8B270BD08000020480D00200C0D0020FF
:1024400039030000040D0020F8B5061C0C1CEFF346
:1024500010856B425D4172B6BFF35F8F0022344B33
:102460001A70344F381C34490132344B98473B685A
:1024700001211A7E0A42FCD01A7ED20702D5C02260
:1024800016439E6202211A7E0A42FCD004211A7E63
:102490000A42FCD01A7E520714D55A8B520703D534
:1024A000598B04220A435A83224A9279012A05D180
:1024B0009A6AD205D20D22490A8003E09A6AD2B202
:1024C0001F490A8001211A7E0A42FCD01A7ED207D7
:1024D00000D59C6202211A7E0A42FCD004211A7E99
:1024E0000A42FCD01A7E520714D55A8B520703D5E4
:1024F000598B04220A435A830E4A9279012A05D144
:102500009B6ADB05DB0D0E4A138003E09B6ADBB29E
:102510000B4A1380074808490022084B9847002DB2
:1025200005D00122024B1A70BFF35F8F62B6F8BD6F
:1025300008000020480D00200C0D00203903000089
:10254000040D0020F8B55F4656464D464446F0B4AB
:10255000051C0C1CEFF310877A427A41904672B644
:10256000BFF35F8F0022414B1A70414E301C41492E
:102570000132414B9847336801211A7E0A42FCD050
:102580001A7ED20701D520229A6202211A7E0A42BF
:10259000FCD004211A7E0A42FCD01A7E52070FD5C5
:1025A0005A8B520703D5598B04220A435A83304A67
:1025B0009279012A09D19B6ADB05DB0D2F4A138032
:1025C000631EDBB2002C05D13CE09B6ADBB22B4AD8
:1025D0001380F5E701339C46AC442026244B9946F2
:1025E000012000239A46022404214F4604239B46DF
:1025F0004B461B681A7E0242FCD01A7E024201D072
:1026000052469A621A7E2242FCD01A7E0A42FCD0BE
:102610003B681A7E0A4211D05A8B0A4204D05A8B68
:102620005E46324392B25A83114A9279012A03D10B
:102630009E6AF605F60D01E09E6AF6B22E7001352F
:102640006545D5D10A480B4900220B4B98474346B4
:10265000002B05D00122054B1A70BFF35F8F62B6C5
:102660003CBC90469946A246AB46F8BD0800002007
:10267000480D00200C0D002039030000040D00203F
:10268000F8B54F464646C0B4041C0D1CEFF3108647
:1026900072427241914672B6BFF35F8F00223C4B8B
:1026A0001A703C4F381C3C4901323C4B98473B6800
:1026B00001211A7E0A42FCD01A7ED20701D560227F
:1026C0009A6202211A7E0A42FCD004211A7E0A4232
:1026D000FCD01A7E52070FD55A8B520703D5598B5F
:1026E00004220A435A832B4A9279012A0ED19A6A0C
:1026F000D205D20D2A490A80264A92799046261C94
:10270000012702200424042294462BE09A6AD2B2C4
:1027100023490A80F0E71A7E3A42FCD03278197ECB
:10272000394200D09A621A7E0242FCD01A7E2242BE
:10273000FCD01A7E224214D05A8B224204D05A8BEB
:1027400061460A4392B25A834246012A05D19A6AE7
:10275000D205D20D12490A8003E09A6AD2B210491A
:102760000A800136013DEDB2FF2DD4D109480A4956
:1027700000220A4B98474B46002B05D00122044B00
:102780001A70BFF35F8F62B60CBC90469946F8BDD5
:1027900008000020480D00200C0D00203903000027
:1027A000040D002010B50020084B9847084CFA2172
:1027B0008900A047074B1860FA218900A047064B03
:1027C00018600522054B1A6010BDC0464942000042
:1027D000B94C0000040000200000002010E000E0E0
:1027E00030B5084B1C68084A00258021490206E0E4
:1027F000002C04D05460956013680B42FCD0013863
:10280000F6D230BD0000002010E000E010B582B02C
:102810006A46084B12CB12C2009B834205D00023AC
:10282000019A824203D1013300E00023DBB2181C7D
:1028300002B010BD7C60000010B5002300220370C0
:1028400043708370C370002103830362C36101245A
:102850000471C0246401C480017242728272C27227
:1028600002732A24025542738273C2730361027594
:10287000063C0255C3840385417510BDF0B55F4623
:1028800056464D464446F0B49DB0051C0E1C171C20
:10289000081CCC4B9847041C00902E60CA4AD16992
:1028A0008000CA4BC3580B43D36133780520DB0744
:1028B00000D558E22A68138C9BB2002BFBD13378E9
:1028C0001C209B0700D54EE27B782B71002B00D09B
:1028D0002FE2BF4AD16904330B43D36129E23B7B2A
:1028E000002B02D101336B7701E000236B772B685B
:1028F0009A463B7802AA1370B64B1E5D301C111C21
:10290000B54B9847301CB54B98473B79984604AE79
:10291000B34B9C461A1C0832311C49CA49C149CAEA
:1029200049C149CA49C149CA49C110A96346383396
:102930000A1C43CB43C243CB43C243CB43C243CB2A
:1029400043C2009B002B06D010AA013B58425841BD
:1029500043421A4000E004AAA300A2495B589946EA
:1029600098450CD843469800805803A900234B7023
:10297000CB708B7001330B70C0B29B4B9847FB88B8
:10298000984604AE964B9C461A1C0832311C49CA24
:1029900049C149CA49C149CA49C149CA49C110A91D
:1029A000634638330A1C43CB43C243CB43C243CBB9
:1029B00043C243CB43C2009B002B06D010AA013B6D
:1029C0005842584143421A4000E004AAC84500D981
:1029D000C0E143469800805803A900234B70CB7098
:1029E0008B7001330B70C0B27F4B9847B2E101236B
:1029F000424693403A691A4230D004A8031C5A4612
:102A000043CA43C343CA43C343CA43C343CA43C37A
:102A100010A8734B3833021C43CB43C243CB43C291
:102A200043CB43C243CB43C2009B002B06D010AA2A
:102A3000013B594259414B421A4000E004AA019B14
:102A400099450BD39900885803A900234B70CB708C
:102A50008B7001330B70C0B2634B9847464601360A
:102A6000F3B2984601934B45C1D9BB7BDA017B7B1E
:102A70009B011343DBB2524613703B7DDB017A7836
:102A80001343DBB252469370FB78342B00D94EE1EE
:102A90009B00564AD3589F460420102102221AE078
:102AA0007A7A387A102116E006201021012212E0ED
:102AB0000820102100220EE00020302100220AE030
:102AC00000202021002206E000200021002202E058
:102AD00002201021012212017023134003435246A9
:102AE00013732A68138C9BB2002BFBD17B7D1720BC
:102AF0003F2B00D937E1FA7BD2011343DBB25246B8
:102B000053732A68138C9BB2002BFBD1BB785246BF
:102B100053702423FA5CD2003B7B9B001343FA7A68
:102B20001A43BB7A5B0013430B43524653812A6816
:102B3000138C9BB2002BFBD13B8B002B00D194E07C
:102B4000102975D002D8002954D08EE020291AD03F
:102B5000302900D089E0FA7A002A0AD0FA69803256
:102B60001720FF2A00D9FEE03A6A8032FF2A00D9F6
:102B7000F9E01720FA69FF2A00DDF4E03A6AFF2A3B
:102B800000DDF0E071E0FA7A002A0FD0FA698021C6
:102B900089008C466244172015498A4200D9E2E038
:102BA0003A6A624412498A4200D9DCE01720104A8E
:102BB000F969914200DDD6E0396A914200DDD2E048
:102BC00053E0C0460D28000000080040E860000007
:102BD00000180040786000001D430000B54200006E
:102BE0007C600000F460000019440000A45F000055
:102BF000FF030000FA7A002A0FD0FA698021090148
:102C00008C46624417205B498A4200D9ABE03A6A9D
:102C1000624458498A4200D9A5E01720554AF9690B
:102C2000914200DD9FE0396A914200DD9BE01CE0AB
:102C3000FA7A002A0FD0FA69802109028C46624490
:102C400017204D498A4200D98DE03A6A62444A49C8
:102C50008A4200D987E01720474AF969914200DD8E
:102C600081E0396A914200DD7DE05246528913438A
:102C7000524653812A68138C9BB2002BFBD1BB8B2D
:102C80005246D3812A68138C9BB2002BFBD13B8C1C
:102C9000524613822A68138C9BB2002BFBD13A79DF
:102CA000FB881343524613812A68138C9BB2002B76
:102CB000FBD12A33FB5C5246D370072313711D33BB
:102CC000FB5C002B1BD0FB8C17202A4A93424AD86E
:102CD000524653822A68138C9BB2002BFBD13A8D4B
:102CE00080231B01D3189BB2172022498B423AD86C
:102CF00053469A822A68138C9BB2002BFBD1A20008
:102D00001E4BD3581E49095D1B68CB401B02E021B6
:102D1000C90019401B4BD3581B4A125D1B68D34096
:102D2000072213400B435246938500201BE01720D7
:102D300019E00023AB60EB602B61AB76EB762B8365
:102D40002B77A300114A9D502A23FB5C002B00D156
:102D5000C5E5CAE50023019398460D4B0822944629
:102D600063449B4643E61DB03CBC90469946A24650
:102D7000AB46F0BDFF0F0000FFFF00000461000044
:102D8000E4600000FC600000F0600000840D0020A2
:102D90007C60000038B580002C4BC45823689D79B6
:102DA000EDB2EA0735D5E27ED20732D5A27ED20750
:102DB0002FD501229A716269931C636123689B8CF1
:102DC0009BB21380238B013B9BB22383002B15D036
:102DD000637F002B1DD02268D3795BB2002B18DBF8
:102DE000138C9BB2002BFBD1117E02330B43137665
:102DF0002268138C9BB2002BFBD10AE0237F052BAA
:102E000007D100232377013322681371201CA368A4
:102E100098476B070BD5042322689371E37E9B07C9
:102E200005D5A37E9B0702D5201CE3689847AB0716
:102E30000BD5022322689371E37E5B0705D5A37E41
:102E40005B0702D52369201C984738BD840D0020FC
:102E500008B50020014B984708BDC046952D0000DD
:102E600008B50120014B984708BDC046952D0000CC
:102E700070B582B0051C0E1C00226B46DA80064C31
:102E8000281C6B46991DA0470028F9D16B460633D4
:102E90001B88337002B070BD313E000070B5051C58
:102EA0008CB2034E281C211CB0470028FAD170BDFB
:102EB000053E0000F0B593B08023DB0500930023AE
:102EC0000193FF2269460A818B72CB7201242C2266
:102ED0008C5401328C5401328B5401328B540C933C
:102EE00005328B5401328B54059300220B82CA7633
:102EF00007930B844B840A762423CA544A761323FF
:102F00008B761333CA54013BCA54C4239B030393E7
:102F100001235B420E930F93184B1093184B1193A0
:102F200096231B020A93174D174B1D60174A184B27
:102F30001A60184A184B1A60281C18496A46184B20
:102F40009847184F3B6898680021174EB0473B6878
:102F500058680021B0472E68301C144B98471F2337
:102F600018408440124B1C602A68D369002BFCD1A6
:102F7000326802331343336013B0F0BD03002A00FC
:102F800003002B00A40B0020400E00209D2E00000B
:102F90003C0E0020712E0000380E0020001400426C
:102FA000753A00006C00002025500000E93900004F
:102FB00000E100E00A4B1B78032B0DD8591C084A8E
:102FC000117008499B00CA1858540123D37000237C
:102FD00093708033537000E00022101C7047C0468D
:102FE000D80B0020DC0B002080787047C078704739
:102FF00030B58DB001AC201C154B9847052363708C
:103000002B33E370263B2371124D281C1249221CDE
:10301000124B98472C68238C9BB2002BFBD1201CB1
:103020000F4B98470F4B1B5C1F2213401E3A9A40D0
:10303000131C0D4A13602278022313432370054B9F
:103040001A68138C9BB2002BFBD10DB030BDC0466B
:10305000392800008C0D0020004400427D2800002B
:103060000D2800000C61000000E100E043788A2B8D
:1030700004D9763B83700123C3700BE0752B05D810
:103080007622D31A83700023C37003E00023837079
:103090000133C37083787F2B01D97F2383708378BA
:1030A0005B0083707047C04670B50278204B19688A
:1030B0000B8C9BB2002BFBD10B891F24A343134322
:1030C0000B810B8C9BB2002BFBD10B8C9BB2002B8A
:1030D000FBD10A7E023313430B760B8C9BB2002B81
:1030E000FBD10124042602258B79DBB2221C1A4075
:1030F0001E4200D02A431D4200D032431442F3D076
:103100008C8CA4B201238B718A79D2B213405507FB
:1031100001D502252B43920701D5042213435B07F7
:1031200001D502238B714470024B984770BDC04695
:103130008C0D00206D30000008B5094B9847094BF5
:103140009847094B9847094B9847094B9847094BB3
:1031500098470122084B1A70BFF35F8F62B608BD13
:10316000A5270000991E0000F12F0000B507000000
:103170008D31000001320000080000207047C04679
:103180000122014B1A707047EC0B002010B58EB075
:1031900000236A469371D371537093701372537204
:1031A0009372D372137393735373137405930693CB
:1031B000137708930993138553859385343300223D
:1031C0006946CA54313B6A460B70E023DB008B80B2
:1031D0000423CB70074C201C0749084B98472268F2
:1031E0001369002BFCD1116802330B4313600EB03E
:1031F00010BDC046AC0D00200040004291450000CB
:1032000010B50D4C201C0D4900220D4B984720682D
:103210000C4B98470C4B1B5C1F2213401E3A111C91
:1032200099400B1C09490B60617E01230B436376B7
:1032300023685A7210BDC046AC0D002081310000D9
:1032400075440000554500001061000000E100E0F9
:1032500070B50A4C012363700026A67023700F20FE
:10326000211C074DA84726701C20211CA84780223E
:1032700012028223DB059A6170BDC046C80D002092
:1032800081350000F0B54F464646C0B483B001AC6E
:103290000127677000239846A37027700F20211C18
:1032A0001C4DA8478226F60580231B029946B36170
:1032B0004346237067701C20211CA8476770434653
:1032C000A37027701320211CA8471220211CA84797
:1032D0001120211CA8472C20211CA8472F20211C8D
:1032E000A84780231B03B3618023DB02B3618023E3
:1032F0009B02B361803680235B01B3614B46B361AF
:10330000434623701020211CA84703B00CBC9046F4
:103310009946F0BD813500000C4B1B68002B10D185
:10332000EFF31083002B09D172B6BFF35F8F002239
:10333000074B1A700132074B1A7002E00022054B4E
:103340001A70024A1368013313607047F00B0020B3
:1033500008000020F40B0020084B1A68013A1A609C
:103360001B68002B09D1064B1B78002B05D00122CE
:10337000044B1A70BFF35F8F62B67047F00B0020EA
:10338000F40B0020080000201723002A0DD18B0029
:10339000074A9B58002B03D189008850002304E082
:1033A000834201D01D2300E00023181C7047C04653
:1033B000CC0D002070B50022154B1A7000231F257C
:1033C000144E134C1F2B19D90FE0002100E01249B5
:1033D0004A619B009B59002B00D09847237801330A
:1033E000DBB223700F2BEDD911E0291C194001220B
:1033F0008A40002149691142E7D1EFE7291C1940B1
:1034000001228A40044949691142E0D1E6E770BDD2
:10341000CB0D0020CC0D002000280040064A11787A
:1034200002230B4313700221012053681942FCD17F
:1034300053681842F9D1704700280040064A1378B3
:1034400002218B431370012053681942FCD1536849
:103450001842F9D17047C0460028004000B583B03B
:10346000184A53698021C9000B43536101A9002305
:103470000B700220144B98470220144B9847144AB3
:10348000117801230B431370022101205368194264
:10349000FCD15368184209D0F8E704C38B42FCD131
:1034A00008220C4B1A600C4B984709E0084A137825
:1034B00010218B431370094B191C40310022ECE79B
:1034C00003B000BD000800401D430000B5420000ED
:1034D0000028004000E100E01D340000CC0D002079
:1034E0000023036043600122027283720132C272C0
:1034F00043727047F0B583B0051C0C1C1C4B9847F9
:1035000001A900234B70CB7023790B70237A8B7049
:103510002078184B984700261F2D00D8164E0722FA
:103520002A409200E07AA37A002B01D008231843A6
:10353000EB089B00F318D96990400F279740B943D7
:103540000A1C0243DA61637A002B06D0B3690122B8
:10355000AA40151C1D43B56106E0B3691B041B0C92
:103560000122AA409343B361044B984703B0F0BDD6
:103570003D34000019440000002800401D340000C4
:1035800000B583B001AB80221A700A785A704A786D
:103590009A708A78DA70191C014B984703B000BD05
:1035A0001944000010B54908402481420CD300237F
:1035B000091A01339BB28842FAD9013B9BB24024DD
:1035C000FF2B01D813800024201C10BDF0B55F46EE
:1035D00056464D464446F0B489B01C1C12AB1B78CD
:1035E000061C5E4340258E4200D9C7E0251C079289
:1035F0000C1C021C002D51D1181C00210023634D0E
:10360000A8478346261C0027002300240293039426
:10361000002200233F2020218C461F39009601976D
:1036200020246442041903D40D1CA540A84604E0DC
:103630006446241A0D1CE540A8460C1C8440A14693
:10364000141C1D1CA4185D41221C2B1C5E46474601
:103650003E4203D00E1C2643321C2B1C019C9C4274
:1036600010D802D1009C94420CD8009C019D121BE2
:10367000AB414D46029E039F35433C1C46463443B6
:10368000029503940138CBD20022012302980399BA
:10369000121A8B41110C1B0419436CE00021012DFF
:1036A00069D1610F0F1CE1008846181C002100231E
:1036B000364CA047041C0D1C00239C4620339B461F
:1036C000012663460593B9466B461B7D069300238E
:1036D0009C46002000213F220094019520235B425C
:1036E000D31803D4341C9C40231C04E05B469B1A73
:1036F000341CDC40231C371C9740041C0D1C241870
:103700004D41201C291C0290039144463C40A24696
:103710004C4623405446234305D0029B039C1D1C6A
:103720003543281C211C019B8B420AD802D1009BE7
:10373000834206D8009B019CC01AA14163463B43CB
:103740009C46013ACAD2009C019D62460599531AD3
:10375000DB080F4A934208D9069A0132D2B2069288
:103760000A1C01320592082AAED14025069A082A81
:1037700004D051031943079B19800025281C09B068
:103780003CBC90469946A246AB46F0BDDD4D0000DC
:10379000FF1F000010B582B0041C0E4B1B78002BDD
:1037A00001D000290DD001A90C7012200A4B9847B6
:1037B00012200A4B9847074B5C7001221A700020B8
:1037C00006E0044B5B78834201D01D2000E000201E
:1037D00002B010BDF80B00201D430000B5420000F0
:1037E000444B984233D006D8434B98420DD0434BBC
:1037F00098421BD06FE0424B98424AD0414B9842CE
:1038000058D0414B984266D132E0012906D00029B8
:1038100063D0022906D0032906D001E03B4867E0C7
:10382000002065E03A4863E03A4861E0012906D0AB
:10383000002954D0022906D0032906D001E03648D9
:1038400056E0002054E0354852E0354850E0012968
:1038500006D0002945D0022906D0032906D001E070
:10386000304845E0002043E02F4841E02F483FE04A
:10387000012906D0002936D0022906D0032906D016
:1038800001E02B4834E0002032E02A4830E02A48AA
:103890002EE0012906D0002927D0022906D00329CD
:1038A00006D001E0254823E0002021E024481FE065
:1038B00024481DE0012906D0002918D0022906D08D
:1038C000032906D001E0204812E0002010E01F4844
:1038D0000EE01F480CE000200AE01E4808E01E48E9
:1038E00006E01E4804E01E4802E01E4800E01E48B4
:1038F0007047C046000C004200040042000800422D
:1039000000140042001800420010004203000500AD
:10391000030006000300070002001100020012006D
:103920000200130002000D0002000E0002000F0052
:10393000020017000200180002001900030029000D
:1039400003002A0003002B000300230003002000D3
:1039500003002100030004000200100002000C001C
:1039600002001600030028000300220030B587B0D3
:103970000C4B6A4632CB32C232CB32C2009B8342FE
:1039800006D001239A0069465258824203D100E0D2
:103990000023D8B203E00133062BF3D1002007B097
:1039A00030BDC046186100007047C046F0B50A4BF4
:1039B0001B78002B0CD1094F094E0A4D0024DE5113
:1039C0005A1914600433182BF9D10122024B1A70D2
:1039D0008000024BC150F0BDFA0B0020FC0B002010
:1039E000A93900000C0E002010B582B0041C6846F6
:1039F00005490622054B9847201C054B98476B4606
:103A0000185602B010BDC046306100007D4E000067
:103A10006D39000008B5024B1B680020984708BDAF
:103A2000FC0B002008B5024B5B680120984708BDDD
:103A3000FC0B002008B5024B9B680220984708BD8C
:103A4000FC0B002008B5024BDB680320984708BD3B
:103A5000FC0B002008B5024B1B690420984708BDE9
:103A6000FC0B002008B5024B5B690520984708BD98
:103A7000FC0B0020F0B55F4656464D464446F0B478
:103A800091B0051C0C1C161C2960081CCE4B9847D5
:103A900022680523D20700D58EE1226817339207EA
:103AA00000D589E1C949CA69471C1B3BBB40134388
:103AB000CB610FA93527F35D0B701330C3B20293AE
:103AC000181CC34B98470298C24B9847F05D0021E1
:103AD000C14B9847F37A6B712C23F35CAB712D23A8
:103AE000F35CEB71F37E2B722423F35C6B722B6817
:103AF0009846181CB44B9847133000220E2306A991
:103B00008C4663441A80338A9A468023DB019A45A7
:103B100019D004D880239B019A450AD02DE1C023F7
:103B2000DB019A450AD080231B029A4500D129E186
:103B300023E1102399460F3B079327E10823994679
:103B4000073B079322E133689B46F368029373694E
:103B50000393337E04932E23F35C059372680692DD
:103B6000002A15D080235B059A4236D12F23F35CBF
:103B7000002B36D1B36A9946C0B2984B9847011CC6
:103B800048460E2206AB9C466244954B984725E07A
:103B900008239946002307932F23F35C002B0BD0B7
:103BA0004B460093B06A316B0E2206AB9C466244D2
:103BB000079B8C4FB84711E0B36A1F1CC0B2874BFC
:103BC0009847011C4B460093381C0E2206AB9C46BE
:103BD0006244079B834FB84700E00020031E00D0DB
:103BE000EAE0737E002B02D0B37E424693732A68CC
:103BF000069FD369002BFCD10E3306AA944663447A
:103C00001B8842469381029B5A461343039A1343EF
:103C10003B4352461343049A12021343059A570733
:103C20001F432F23F35C002B01D104331F432423B4
:103C3000F35C5902727E93020B432622B25C12029D
:103C400013432C22B25C520413432D22B25C1204A3
:103C50001343F17A19433389FF2B04D08022520495
:103C60001743194305E0F37E002B02D08023DB04C9
:103C70001F4343469A68308C072313400343728CDA
:103C8000134342469360F369002B02D0564A174013
:103C90001F433423F35C002B03D1544B9B789B07C9
:103CA00001D580231F432A68D369002BFCD14346EA
:103CB00059602A68D369002BFCD143461F601A68FB
:103CC000F0231B051340E022D204934242D0434626
:103CD0009B68072293434246936092682523F35CD6
:103CE00007210B4013434246936033E0F9B2BB0017
:103CF0000AAA9858002802D1201C3D4B9847431C23
:103D000005D03070000CC0B2311C3A4B98470137D7
:103D1000042FEBD10023EB602B616B61AB61EB6196
:103D20002B62AB626B620022EB85AB853033EA54C9
:103D30000133EA540133EA540133EA542868224B30
:103D40009847041C2C492D4B9847A4002C4BE55058
:103D5000002331E00EAB80221A7000225A70DA7014
:103D60009A70B36B0A93F36B0B93336C0C93736C75
:103D700002930D9300270EAEB8E710239946002357
:103D8000079303E0032399460023079333689B4678
:103D9000F368029373690393337E04932E23F35CD9
:103DA000059372680692002A00D1F5E680235B0530
:103DB0009A4200D1DAE614E7181C11B03CBC9046D8
:103DC0009946A246AB46F0BD6D39000000080040A0
:103DD0001D430000B542000095370000414300003C
:103DE000A5350000CD350000FFFFFFF000200041A9
:103DF000E137000019440000A93E0000AD39000081
:103E00000C0E002010B50368C4791C22002C0DD0C4
:103E1000C08D80B2173A002808D1DA69002AFCD197
:103E2000198502211A7E0A42FCD00022101C10BD06
:103E300010B5046882791C23002A33D0828D92B297
:103E4000173B002A2ED1227E52072BD5E369002B87
:103E5000FCD1638BDBB25A0621D09A0703D502232B
:103E6000638318331EE05A0703D5042363831A3390
:103E700018E0DA0703D501236383123312E0DA0670
:103E800005D5628B10231343638342230AE09B060C
:103E900005D5628B202313436383412302E0238DE6
:103EA0000B800023181C10BDF8B58000664BC55868
:103EB0002C68E369002BFCD1237EA67D1E403123B4
:103EC000EB5C3022AF5C1F40F30722D5EB8D9BB239
:103ED000002B1CD0AA6A1378DBB2511CA962697945
:103EE000012901D09BB204E0517809020B43023250
:103EF000AA62DB05DB0D2385EB8D013B9BB2EB85D5
:103F0000002B06D1013323750133A37501E0012392
:103F10002375B30709D50223237500223133EA54F0
:103F2000FB0702D5281CEB68984773076DD5AB8D4E
:103F30009BB2002B67D0638BDBB21A0702D47F22BF
:103F4000134001E0772213405A0601D540229343E3
:103F5000002B36D09A0707D51A223223EA54628BF7
:103F6000303B1343638326E05A0707D51E223223D2
:103F7000EA54628B2E3B134363831CE0DA0707D5B8
:103F800013223223EA54628B313B1343638312E0E2
:103F9000DA0607D542223223EA54628B223B1343CE
:103FA000638308E09B0606D541223223EA54628BE4
:103FB000123B134363837B0727D5281C6B69984703
:103FC00023E0238DDB05DB0DDAB2696A0A706A6AC9
:103FD000511C69626979012904D11B0A53706B6A0B
:103FE00001336B62AB8D013B9BB2AB85002B0CD1D7
:103FF0000433237500222E33EA54BB0705D5281C51
:104000002B69984701E004232375F30607D5102395
:1040100023752376FB0602D5281CEB699847B30667
:1040200007D52023237523763B0702D5281CAB69CF
:104030009847330707D5082323752376BB0602D597
:104040002B6A281C9847F8BD0C0E002008B50728DD
:1040500003D880000F4B1B589F46002018E00E4BE2
:10406000586815E00D4B5B7D0F21194001310C485C
:104070000C4B98470CE0084B986809E0074B1B7FF6
:1040800000209B0704D5044B186801E08020000243
:1040900008BDC04638610000140C0020001000402C
:1040A000006CDC02B94C0000F0B5474680B484B027
:1040B00003221A4B9A601A4A53681E218B4353609D
:1040C000184B197D80220A431A7505225A751A1C4D
:1040D0009369002BFCD1144B984701AC0025657007
:1040E000062626702572657202960320211C0F4B4E
:1040F0009846984703200E4FB84701230D4A137185
:10410000636065702670257265720020211CC047AF
:104110000020B84704B004BC9046F0BD0018004031
:104120000040004100100040394100005D410000A6
:104130000942000000080040064A516980230B43F1
:1041400053610122044B1A70191C0B781342FCD1E5
:104150007047C04600080040001C004070B5041CB9
:104160000D784B78002B02D08023DB001D434B7A67
:10417000002B02D080231B011D434A68012A17D956
:10418000531E1A420FD1022A06D902230020013001
:104190005B009A42FBD800E0002080235B011D43B6
:1041A0000004054304E0120480239B001A431543D6
:1041B0000B7A002B02D080239B011D430426A640CE
:1041C0000D490E4A4B6813401E42FBD10C4B9847D9
:1041D000A400094B9C466444206A80235B0018407D
:1041E000284320626146054A4B6813401E42FBD1BA
:1041F000044B984770BDC046001C0040FC070000FF
:10420000193300005933000010B5041C0422824009
:1042100009480A4943680B401A42FBD1084B9847AA
:10422000A400054B9C466444236A80225200134339
:104230002362044B984710BD001C0040FC0700009F
:104240001933000059330000F8B5041C04228240E1
:104250001248134943680B401A42FBD1114B98474F
:104260000E4F0834A400E359072018400E4B98471E
:10427000061CE559ED04ED0FE459240C0B4B98474F
:10428000002D07D1012C07D9301C211C084B984761
:10429000061C01E00134E640301CF8BD001C004063
:1042A000FC070000193300004D40000059330000A6
:1042B000B94C000010B5041C084B9847A400084BEB
:1042C000E0188022815840230B4383508021403ADC
:1042D00043581A42FCD0034B984710BD19330000D5
:1042E000001C00405933000010B5041C084B9847CF
:1042F000A400084BE0188022835840218B43835050
:104300004031403A43581A42FCD1034B984710BD04
:1043100019330000001C00405933000038B5041C5C
:104320000D1C054B98472B780F2213402034A40016
:10433000024AA35038BDC046E9420000001C0040BC
:1043400010B5041C064B98472034A400054BE358D5
:104350000F241C40044B9847201C044B984710BD69
:1043600019330000001C004059330000494200008E
:1043700030B5D378002B1ED11478802C04D02406BD
:1043800080235B021C4300E0002453780225AB43EA
:104390000AD19378002B03D180239B021C4302E0B7
:1043A000C023DB021C4341605378013B012B12D830
:1043B000184B1C400FE041600B041B0CA024E405CB
:1043C000234383620B0CD024240623438362D378D7
:1043D000002B18D01CE00B041B0CA025ED052B4373
:1043E000234383620B0CD0252D062B43234383628A
:1043F000D378002B0CD1630305D59378012B01D121
:10440000816100E041615378013B012B00D881605C
:1044100030BDC046FFFFFBFF08B5031C0A1CC109E5
:104420000020002905D15809C0018221C9058C4608
:1044300060441F210B401E399940014B984708BD2D
:10444000714300007047C04608B5054B9847054BBF
:104450009847054B9847054B9847054B984708BD2B
:10446000A940000085320000454400005D34000092
:1044700045440000931C9B001950022A04D1027E7F
:104480001023134303760CE0032A04D1027E202379
:104490001343037605E0012393401A1C037E1A435D
:1044A000027600207047C04638B58000144BC558CE
:1044B0002B689C7A2B7E1C406B7E1C40E30705D545
:1044C000281CAB68984701232A689372A30705D577
:1044D000281CEB68984702232A689372E30605D5E7
:1044E000281C2B69984710232A689372A30605D5C8
:1044F000281C6B6998472B6820229A7238BDC046E9
:10450000240E002008B50020014B984708BDC04686
:10451000A944000008B50120014B984708BDC046DA
:10452000A944000008B50220014B984708BDC046C9
:10453000A944000008B50320014B984708BDC046B8
:10454000A944000008B50420014B984708BDC046A7
:10455000A944000030B587B001A90C4B0A1C32CB2E
:1045600032C212CB12C2019B834206D001239A00B1
:1045700001A95258824203D100E00023D8B203E0DF
:104580000133052BF3D1002007B030BD5861000086
:10459000F0B5474680B48EB0051C0E1C171C081CD5
:1045A000A14B98478046A14C211C14310CA8052230
:1045B0009F4B984702A9231C1C330A1C13CB13C220
:1045C00013CB13C213CB13C21B6813600023AB6061
:1045D000EB602B616B612B766B7643469A00954BB3
:1045E000D5502E603423FB5CAB76FB78082B04D1CE
:1045F00017204246D20700D511E12B713368052000
:10460000DB0700D50BE1F37A17309B0700D506E1F5
:1046100033689B0700D502E13B7C002B0AD001A93F
:1046200001238B700022CA703A7E0A704B70387D6D
:10463000814B98473B7F002B0BD001A901238B7046
:104640000022CA707A6A0A704B703B6AD8B27A4B01
:1046500098474346590002AA4B1C9B009858434672
:10466000DB009A58D3B2012B09D0002B02D0022BC9
:104670000AD00DE0714A53691843506108E06F4A4F
:1046800093691843906103E06C4AD3691843D06181
:10469000FB78082B20D143460133042B1CDC02AAF3
:1046A000CB1C9B0098588B1C9B009B58DAB2012AAC
:1046B00009D0002A02D0022A0AD00DE05F4A5369CD
:1046C0000343536108E05D4A93690343936103E048
:1046D0005A4AD3690343D3613B786A4613700CABE3
:1046E00042469C5C201C6946554B9847201C554B04
:1046F0009847FA79FB781343BA8813437A7A002AE9
:1047000002D0802252021343BA7A002A02D08022B9
:1047100092021343FA7A002A02D0802252031343F2
:104720003A7B002A02D0802292031343B978C90150
:104730007A789201114319432A681369002BFCD13E
:1047400031602A681369002BFCD1BB793373797B04
:104750004B1E99418900BB7B002B01D001231943DB
:104760002A681369002BFCD1FF333371002904D070
:104770002A681369002BFCD171713B7A73732A6824
:104780001369002BFCD12B79042B05D0082B33D0D7
:104790001720002B43D11CE01369002BFCD12833D8
:1047A000FB5C33752A681369002BFCD12933FB5C51
:1047B000F3762A681369002BFCD12A33FB5C33772C
:1047C0002A681369002BFCD12B33FB5C7377002024
:1047D00025E01369002BFCD13B8DB3822A68136955
:1047E000002BFCD17B8DB3832A681369002BFCD18D
:1047F000BB8DF383002012E01369002BFCD1BB6A50
:1048000073612A681369002BFCD1FB6AF3612A6883
:104810001369002BFCD13B6B33620020FFE70EB025
:1048200004BC9046F0BDC0465545000058610000EC
:104830007D4E0000240E00201944000000080040B6
:104840001D430000B542000002681369002BFCD133
:10485000137101680B69002BFCD18033537102681E
:104860001369002BFCD10179042904D0082908D050
:10487000002907D102E0137DDBB203E0938A9BB2EB
:1048800000E05369181C704710B504682369002BB9
:10489000FCD10379042B04D0082B26D0002B35D172
:1048A00010E01723012932D8837E002B05D0D2B225
:1048B000611830310A70002329E0D2B264182277DF
:1048C000002324E01723012921D8837E002B05D063
:1048D00092B2183149000A53002318E092B20C3109
:1048E00049006418A280002311E0172301290ED883
:1048F000837E002B04D00C3189000A51002306E08E
:104900000631890064186260002300E01723181C38
:1049100010BDC046FEE7C04610B51B4B1B4A9A426D
:1049200003D01B4B184A9A4204D31A4B1A4A9A4294
:1049300010D31EE0194A164B03339B1A9B08013310
:104940009B000022104811498C58845004329A422E
:10495000FAD1EAE7124A0F4B03339B1A9B08013343
:104960009B0000220C4800211418216004329A4256
:10497000FAD10C4AFF210C4B8B4393600B4B9847A9
:104980000B4B9847FEE7C0460000002094620000F1
:10499000700000204C0E0020700000200400002059
:1049A0007400002000ED00E000000000314E000027
:1049B000894A0000F0B5474680B40C1C9046002898
:1049C00010D1002A0ADD8F18094E0A4D3068211CCB
:1049D0002B6898470134BC42F8D101E00023984687
:1049E000404601E00120404204BC9046F0BDC04674
:1049F000400E0020380E0020F0B5474680B4013844
:104A0000022815D8002A10D0151C0E1C00240C4BAF
:104A100098460C4F43461868315D3B68984700281C
:104A200009DB0134A542F5D100E00024201C04E09C
:104A30000120404201E00120404204BC9046F0BD0C
:104A4000400E00203C0E0020031C064A1268002A7B
:104A500002D10549034A1160024A1068C318136065
:104A60007047C046200C0020502E002001204042FC
:104A70007047C04680239B014B6000207047C046B2
:104A80000120704700207047F0B593B0364B98472F
:104A9000364B9847364B98473648374B98473748F8
:104AA0000121374B9847374B984722230A931E3BE7
:104AB0000B9300220C9223320D920E93033B0F9323
:104AC000314B1193162310930A20304B98470790CF
:104AD0000EAB6A4613CB13C21B6813600A980B997E
:104AE0000C9A0D9B2A4CA04708902A4E2A4C2B4D1D
:104AF000B047A0478223DB051B6ADB002ED480224F
:104B000012028223DB055A61079F381CA8470797CA
:104B1000381C234B9847031C22480993191C184F33
:104B2000B84708980999204B984707981F4B984712
:104B3000031C08980993191C1D4B98471D48099997
:104B4000B8470DAB6A4683CB83C282CB82C20A9937
:104B50000B9A0C9B0898184FB847C9E7802212029D
:104B60008223DB059A61C3E749440000513200000B
:104B7000B52E00009C610000994F0000B06100005C
:104B8000A14E00003931000000380042B52F00006E
:104B9000C1060000B51E00007D310000A9300000F4
:104BA000E92F0000C061000031070000ED2F000078
:104BB00035070000CC6100003907000010B5041C67
:104BC000134B9847134B1A7862438118124B596064
:104BD0005968090C59605B68002B07D00E4B596867
:104BE0000132801818810D4B984704E082180A4B57
:104BF0001A810B4B9847084B1B89632B02D86433EF
:104C0000054A1381044B1889064B984710BDC046CE
:104C100065200000440E0020240C002079200000B4
:104C20008D200000C920000008B50022034B1A7037
:104C3000034B9847034B187008BDC046240C002056
:104C4000E1200000440E002008B50E4B5B68002BED
:104C500007D00C4A5368013B5360002B01D10A4B2B
:104C60009847084A13780133DBB21370074A127869
:104C70009A4206D8034B00221A70DB68002B00D042
:104C8000984708BD240C00208D200000440E002011
:104C900008B5044B9847044B1B69002B00D098477C
:104CA00008BDC04679200000240C0020014B18618B
:104CB0007047C046240C0020002243088B4274D366
:104CC00003098B425FD3030A8B4244D3030B8B420D
:104CD00028D3030C8B420DD3FF22090212BA030C16
:104CE0008B4202D31212090265D0030B8B4219D3F7
:104CF00000E0090AC30B8B4201D3CB03C01A524117
:104D0000830B8B4201D38B03C01A5241430B8B425E
:104D100001D34B03C01A5241030B8B4201D30B0347
:104D2000C01A5241C30A8B4201D3CB02C01A52416E
:104D3000830A8B4201D38B02C01A5241430A8B4231
:104D400001D34B02C01A5241030A8B4201D30B021A
:104D5000C01A5241CDD2C3098B4201D3CB01C01A34
:104D6000524183098B4201D38B01C01A524143093E
:104D70008B4201D34B01C01A524103098B4201D32C
:104D80000B01C01A5241C3088B4201D3CB00C01A99
:104D9000524183088B4201D38B00C01A5241430811
:104DA0008B4201D34B00C01A5241411A00D2014636
:104DB000524110467047FFE701B5002000F00CF8A3
:104DC00002BDC0460029F7D003B5FFF775FF0EBC42
:104DD0004243891A1847C0467047C046F0B54F464F
:104DE000464605042D0C2C1CC0B41704160C3F0CB1
:104DF0009946030C7C4375435F4373437D19260C2E
:104E0000AD199C46AF4203D980235B029846C44447
:104E10004B465143434324042E0C240C2D0466447A
:104E20002C1959188919201C0CBC90469946F0BDC4
:104E30000E4B70B500251E1C0D4CE41AA410A542A3
:104E400004D0AB00F35898470135F8E701F012FAA7
:104E5000084B00251E1C084CE41AA410A54204D0DF
:104E6000AB00F35898470135F8E770BD8062000049
:104E7000806200008062000084620000002310B5A0
:104E8000934203D0CC5CC4540133F9E710BD031C3A
:104E90008218934202D019700133FAE7704700007C
:104EA0000FB40B4B13B51C68002C05D0A369002B65
:104EB00002D1201C00F00AFB05AB201CA168049A5B
:104EC000019300F0BDFC16BC08BC04B01847C046F6
:104ED0006C00002070B5051C0E1C002804D08369EE
:104EE000002B01D100F0F2FAAC68A3891B0702D5B0
:104EF0002369002B19D1281C211C00F07BF9002804
:104F000013D00120404245E03178002B1BDAA26922
:104F1000934211DA221C281C00F014F9013042429D
:104F20004241D0B20028ECD10136A3683278013B6F
:104F3000A360002AE8D10CE023681970236819786F
:104F40000A2903D1E6E72368197023680133236037
:104F5000EAE7002B17DAA269934208DB0A232268EA
:104F60001370236819780A2911D1281C01E0281C24
:104F70000A21221C00F0E6F8013042424241D0B240
:104F8000002806D0BDE70A23226813702368013386
:104F900023600A2070BD000008B5034B011C18688F
:104FA000FFF798FF08BDC0466C000020154B10B5F8
:104FB0001C68A36B002B15D1182000F071FB124B5D
:104FC000A0630380114B01224380114B8380114B5E
:104FD000C380114B03810523438106338381002362
:104FE00002614361A46B0D4A206961690C4BFFF7B4
:104FF000F5FE0122002380185941206161614800BB
:10500000400810BD6C0000200E330000CDABFFFF48
:10501000341200006DE6FFFFECDEFFFF2D7F954CA4
:105020002DF4515808B54A424A4180235200DB0012
:1050300000F002F808BD0000F7B51E1C3C4B041C34
:105040001D680F1C0192002D05D0AB69002B02D109
:10505000281C00F03BFA374B9C4201D16C6808E0F9
:10506000354B9C4201D1AC6803E0344B9C4200D1EB
:10507000EC68019B022B58D8002E56DB281C211C03
:1050800000F0B6F900236360A361A3891B0603D572
:10509000281C216900F00EFB8322A3899343A3817E
:1050A000019B022B13D0002F25D1002E01D1802689
:1050B000F600301C00F0F4FA071E18D18020C00062
:1050C00000F0EEFA071E10D10120404200E000205F
:1050D0000222A3891343A3810023A360231C473327
:1050E000236023610123636121E08026F600802292
:1050F000A3891343A381019B012B05D1A389019AA5
:105100001A437342A281A3610D4B0020AB62A289B6
:10511000276027616661130709D503231A405342AC
:1051200053415B421E40A66001E001204042FEBDAB
:105130006C000020E06100000062000020620000BE
:105140004954000070B5051C0E1C141C002804D026
:105150008369002B01D100F0B9F9234B9C4201D1A6
:105160006C6808E0214B9C4201D1AC6803E0204B05
:105170009C4200D1EC68A369A360A3891B070AD5F0
:105180002369002B07D023682269F6B2981A636955
:1051900098420FDB08E0281C211C00F02BF80028A7
:1051A000F1D0012040421DE0281C211C00F020F914
:1051B0000028F6D1A3680130013BA36023685A1C84
:1051C00022601E706369984205D0A389301CDB07FA
:1051D00008D50A2E06D1281C211C00F009F9002848
:1051E000DFD1301C70BDC046E061000000620000ED
:1051F00020620000354B70B51D68061C0C1C002D8C
:1052000005D0AB69002B02D1281C00F05FF9304BB0
:105210009C4201D16C6808E02E4B9C4201D1AC68E5
:1052200003E02D4B9C4200D1EC68A3899AB2110790
:1052300023D4D10607D40922012032603732134328
:10524000A381404240E0530713D5616B002908D089
:10525000231C4433994202D0301C00F02BFA002367
:1052600063632422A3899343A3810023636023699A
:1052700023600822A3891343A3812369002B0BD148
:10528000A023A2899B00134080229200934203D066
:10529000301C211C00F0ACF90123A289134005D079
:1052A0000023A36063695B42A36103E0910700D41C
:1052B0006369A36000202369834205D1130603D5E7
:1052C00040231A43A281013870BDC0466C00002003
:1052D000E06100000062000020620000F7B58A89EA
:1052E000051C0C1C13075ED44B68002B02DC0B6CF6
:1052F000002B1ADDE76A002F17D000232E682B60E1
:1053000080235B011A4001D0626D15E0281C216AE0
:105310000123B847021C431C0ED12B68002B0BD075
:105320001D2B01D0162B02D12E6000205EE0402103
:10533000A3890B43A38159E0A3895B0706D5636862
:10534000D21A636B002B01D0236CD21A0023281CC5
:10535000216AE76AB847A389421C06D12A68002A55
:1053600003D01D2A01D0162A19D1002262602269B9
:105370002260DB0405D5431C02D12B68002B00D131
:105380006065616B2E600029CFD0231C44339942A5
:1053900002D0281C00F08EF90020606326E0402235
:1053A0001343A38122E00F69002FBED00B680F606A
:1053B000DB1B01930023920700D14B69A360019B83
:1053C000002BB2DD281C216A3A1C019BA66AB0475B
:1053D000002806DC40220120A38940421343A38118
:1053E00004E0019B3F181B1A0193E8E7FEBD000093
:1053F00038B50B69051C0C1C002B01D100201CE0EA
:10540000002804D08369002B01D100F05FF80B4B1A
:105410009C4201D16C6808E0094B9C4201D1AC6808
:1054200003E0084B9C4200D1EC680C22A35E002BE9
:10543000E4D0281C211CFFF751FF38BDE0610000BB
:10544000006200002062000008B5024900F0AEF8DA
:1054500008BDC046F1530000002310B5041C0360D2
:105460004360836081814366C281036143618361DC
:10547000191C08225C30FFF70AFD054B24626362A9
:10548000044BA362044BE362044B236310BDC0468C
:10549000915D0000B95D0000F15D00001D5E00003F
:1054A00070B568254B1E5D430E1C291C743100F03D
:1054B00047F9041E08D000212A1C016046600C3008
:1054C000A0606832FFF7E3FC201C70BD836913B550
:1054D000002B28D18364C3640365134B134A1B68F4
:1054E00082620193984201D101238361041C00F080
:1054F0001FF86060201C00F01BF8A060201C00F06A
:1055000017F80421E06000226068FFF7A5FFA0689B
:1055100009210122FFF7A0FFE06812210222FFF714
:105520009BFF0123A36113BDDC610000495400000F
:10553000F8B51D4B061C1D68AB69002B02D1281C59
:10554000FFF7C4FF4835AC686B68013B05D40C22FB
:10555000A75E002F10D06834F7E72B68002B06D128
:10556000301C0421FFF79CFF2860002801D02D6823
:10557000E9E70C23336016E00123201C5B42E38142
:105580000233A38167662760A76067602761676150
:10559000A7615C30391C0822FFF779FC201C676387
:1055A000A763A764E764F8BDDC610000F7B5041CDD
:1055B000071C002601914834002C16D06368A568AA
:1055C0000093009B013B00930DD4AB89012B08D9BC
:1055D0000E22AB5E013304D0381C291C019B984776
:1055E00006436835EDE72468E6E7301CFEBD0000A1
:1055F000F0B58B8991B09B0706D50B1C47330B6028
:105600000B6101234B6145E00C1C0E23C95E061C97
:10561000002904DA8023A5891D4010D10CE001AADD
:1056200000F028FC0028F5DBF023029D1B021D4042
:10563000194BED186B425D418027FF0001E000250A
:105640004027301C391C00F07BF800280CD1A389BE
:105650009A051FD402221343A381231C47332360DE
:1056600023610123636115E080220C4BB362A3899F
:1056700020601343A38120616761002D0AD00E23AF
:10568000E15E301C00F008FC002803D00122A38951
:105690001343A38111B0F0BD00E0FFFF49540000A7
:1056A00008B5034B011C186800F04AF808BDC04655
:1056B0006C00002030B500293ED004390B68002B67
:1056C00000DAC9181D4A1368141C002B02D14B6064
:1056D000116031E099420DD208680A189A4203D14C
:1056E0001368C3180B6053684B60216024E08A4242
:1056F00003D8131C5A68002AF9D11D685C198C4222
:105700000BD10968691858181960904214D11068B3
:105710005268091819605A600EE08C4202D90C23B5
:10572000036009E008680C18944203D114685268B9
:10573000001908604A60596030BDC0463C0C00202A
:10574000032370B5CC1C9C430834051C0C2C01D2DF
:105750000C2405E0002C03DA0C2300202B6042E02F
:105760008C42F9D3204A1368101C191C002913D04D
:105770000A68121B0DD40B2A02D90A608B181FE08D
:105780008B4202D15A6802601BE04A685A600B1CC7
:1057900017E00B1C4968E9E7144E3368002B03D16E
:1057A000281C00F0E3FA3060281C211C00F0DEFA0F
:1057B000031C421CD0D00322C61C964386420AD149
:1057C0001C60181C07210B301A1D8843821A0AD04E
:1057D0005142995007E0311A281C00F0C7FA431CC7
:1057E000BAD0331CECE770BD3C0C0020380C002014
:1057F000936810B5013B9360002B05DA9469A342CE
:1058000008DBCBB20A2B05D01368581C1060197046
:10581000C8B201E0FFF796FC10BDF8B5061C0F1CDE
:10582000141CD518AC4208D02178301C3A1CFFF764
:10583000DFFF0134431CF5D100E00020F8BD00007B
:10584000F0B59FB0061C0F1C02920593002804D0EF
:105850008369002B01D1FFF739FE794B9F4201D1BB
:10586000776808E0774B9F4201D1B76803E0764B39
:105870009F4200D1F768BB891B070AD53B69002B03
:1058800007D0002306AD6B6120336B761033AB7607
:105890003DE0301C391CFFF7ADFC0028F1D00120A1
:1058A0004042CAE0059A111D12680591002A7EDB6C
:1058B0000992013423782E2B00D189E021786348A6
:1058C000032200F00FFB002808D0604B0134C01AFF
:1058D00040238340181C2B68184328602178631CE0
:1058E0005B4806220293297600F0FCFA002800D1DA
:1058F00091E0584B002B00D084E00722059B073332
:105900009343083305936B69039A9B186B61029C60
:105910002378002B04D1029BE31A049311D003E0F7
:10592000252BF8D00134F3E7049B301C391C029A74
:10593000FFF773FF431C7BD06A69049B9446634462
:105940006B612378002B73D00122002352426A60DE
:1059500002A95432521801342B60EB60AB60137013
:10596000AB6521783C48052200F0BCFA002809D03C
:10597000394B0134C01A01238340181C2B6818438B
:105980002860EEE72B68DA0604D55322202102A80E
:10599000121811701A0704D553222B2102A81218CD
:1059A000117022782A2A00D17CE7099B05E0524237
:1059B000EA60022213432B607BE72278303A092AFF
:1059C00004D80A214B4301349B18F6E7099371E789
:1059D00063782A2B09D1059B02341A1D1B68059296
:1059E000002B0DDA01235B420AE000230134227808
:1059F000303A092A04D80A214B4301349B18F6E7B0
:105A000007935BE705AB0093301C291C3A1C134B32
:105A100000E000BF07E005AB0093301C291C3A1CD6
:105A20000E4B00F08BF80390039B013300D06AE724
:105A3000BB895B0600D532E70B981FB0F0BDC046AE
:105A4000E061000000620000206200004662000089
:105A50004A62000000000000406200001B58000085
:105A6000F7B5171C01930A698B6800900C1C9342D0
:105A700000DA131C221C3B6043321278002A01D04A
:105A800001333B6023689B0602D53B6802333B60D1
:105A9000062523681D401ED0231C43331B785A1E45
:105AA0009341226892061CD53020E1184031C8701D
:105AB000211C5A1C45310978A21840320233D1709A
:105AC0000FE0221C0123009801991932089EB0476B
:105AD000431C0ED00135E3683A689B1A9D42F0DB07
