:1000000098210020711900006D1900006D19000081
:1000100000000000000000000000000000000000E0
:100020000000000000000000000000006D1900004A
:1000300000000000000000006D1900006D190000B4
:100040006D1900006D1900006D190000C504000055
:100050006D1900006D1900006D1900006D19000088
:100060006D190000250B0000350B0000450B00004A
:10007000550B0000650B0000750B00006D190000AA
:100080006D1900006D1900006D1900006D19000058
:10009000F5150000051600001516000025160000D5
:1000A000351600006D1900006D1900006D19000073
:1000B0006D1900006D1900006D19000010B5064C97
:1000C0002378002B07D1054B002B02D0044800E019
:1000D00000BF0123237010BD680000200000000055
:1000E000B828000008B5084B002B03D00748084982
:1000F00000E000BF07480368002B00D108BD064B95
:10010000002BFBD09847F9E700000000B82800005A
:100110006C000020B82800000000000070B582B01C
:10012000051C0E1C00226B46DA80064C281C6B4610
:10013000991DA0470028F9D16B4606331B88337000
:1001400002B070BD410F000070B5051C8CB2034EAB
:10015000281C211CB0470028FAD170BD150F0000E3
:10016000F0B593B08023DB05009300230193FF22B9
:1001700069460A818B72CB7201242C228C54013285
:100180008C5401328B5401328B540C9305328B54B6
:1001900001328B54059300220B82CA7607930B849D
:1001A0004B840A762423CA544A7613238B7613335E
:1001B000CA54013BCA54C4239B03039301235B42EB
:1001C0000E930F93184B1093184B119396231B0209
:1001D0000A93174D174B1D60174A184B1A60184A9F
:1001E000184B1A60281C18496A46184B9847184F34
:1001F0003B6898680021174EB0473B68586800215B
:10020000B0472E68301C144B98471F231840844079
:10021000124B1C602A68D369002BFCD13268023370
:100220001343336013B0F0BD03002A0003002B001A
:10023000840000208C01002049010000880100207A
:100240001D0100008401002000140042850B000005
:1002500064000020F91D0000F90A000000E100E040
:1002600010B5041C084B1A68501C1860C82189007E
:10027000064B9847002902D10548064B9847201C99
:100280000549064B984710BDB8000020491C0000E6
:100290006C270000E51D0000EFD8000039190000B0
:1002A00010B58EB00022002369460A70CA70002182
:1002B000684682808171C371437083700372437298
:1002C0008372C3720373837343730374059206923C
:1002D0000377089209924285828534236A46C15485
:1002E000084B0385084C201C0849094B9847226895
:1002F0001369002BFCD1116802330B4313600EB05D
:1003000010BDC046EFD8FFFFF8000020003C0042BF
:100310008116000010B50D4C201C0D4900220D4B1C
:10032000984720680C4B98470C4B1B5C1F221340CE
:100330001E3A111C99400B1C09490B60617E012378
:100340000B43637623685A7210BDC046F800002044
:1003500061020000651500004516000064270000DA
:1003600000E100E08223DB051B6ADB0005D580226B
:1003700012028223DB059A6104E0802212028223AA
:10038000DB055A617047C04608B5074901234B7029
:1003900000228A700B700F20044B984780221202B3
:1003A0008223DB059A6108BD14010020910600003C
:1003B00008B5054808210022044B98470820002171
:1003C000034B984708BDC046650300007904000050
:1003D000A504000010B584B001AC201C074B984761
:1003E0001C230193002363600333E372023BA37277
:1003F0000820211C024B984704B010BDF1050000F5
:10040000050600007047C0460C4B1B68002B10D13E
:10041000EFF31083002B09D172B6BFF35F8F002278
:10042000074B1A700132074B1A7002E00022054B8D
:100430001A70024A1368013313607047BC00002031
:1004400000000020C0000020084B1A68013A1A6022
:100450001B68002B09D1064B1B78002B05D001220D
:10046000044B1A70BFF35F8F62B67047BC00002068
:10047000C0000020000000201723002A0DD18B00AF
:10048000074A9B58002B03D189008850002304E0C1
:10049000834201D01D2300E00023181C7047C04692
:1004A000180100201723002907D100221F2800D897
:1004B000034A0123834013610023181C7047C04680
:1004C0000028004070B50022154B1A7000231F252C
:1004D000144E134C1F2B19D90FE0002100E01249D4
:1004E0004A619B009B59002B00D098472378013329
:1004F000DBB223700F2BEDD911E0291C194001222A
:100500008A40002149691142E7D1EFE7291C1940CF
:1005100001228A40044949691142E0D1E6E770BDF1
:10052000170100201801002000280040064A117819
:1005300002230B4313700221012053681942FCD19E
:1005400053681842F9D1704700280040064A1378D2
:1005500002218B431370012053681942FCD1536868
:100560001842F9D17047C0460028004000B583B05A
:10057000184A53698021C9000B43536101A9002324
:100580000B700220144B98470220144B9847144AD2
:10059000117801230B431370022101205368194283
:1005A000FCD15368184209D0F8E704C38B42FCD150
:1005B00008220C4B1A600C4B984709E0084A137844
:1005C00010218B431370094B191C40310022ECE7BA
:1005D00003B000BD000800400D140000A51300008A
:1005E0000028004000E100E02D0500001801002077
:1005F0000023036043600122027283720132C272DF
:1006000043727047F0B583B0051C0C1C1C4B984717
:1006100001A900234B70CB7023790B70237A8B7068
:100620002078184B984700261F2D00D8164E072219
:100630002A409200E07AA37A002B01D008231843C5
:10064000EB089B00F318D96990400F279740B943F6
:100650000A1C0243DA61637A002B06D0B3690122D7
:10066000AA40151C1D43B56106E0B3691B041B0CB1
:100670000122AA409343B361044B984703B0F0BDF5
:100680004D05000009150000002800402D05000060
:1006900000B583B001AB80221A700A785A704A788C
:1006A0009A708A78DA70191C014B984703B000BD24
:1006B0000915000010B54908402481420CD30023DD
:1006C000091A01339BB28842FAD9013B9BB24024FC
:1006D000FF2B01D813800024201C10BDF0B55F460D
:1006E00056464D464446F0B489B01C1C12AB1B78EC
:1006F000061C5E4340258E4200D9C7E0251C0792A8
:100700000C1C021C002D51D1181C00210023634D2C
:10071000A8478346261C0027002300240293039445
:10072000002200233F2020218C461F39009601978C
:1007300020246442041903D40D1CA540A84604E0FB
:100740006446241A0D1CE540A8460C1C8440A146B2
:10075000141C1D1CA4185D41221C2B1C5E46474620
:100760003E4203D00E1C2643321C2B1C019C9C4293
:1007700010D802D1009C94420CD8009C019D121B01
:10078000AB414D46029E039F35433C1C46463443D5
:10079000029503940138CBD20022012302980399D9
:1007A000121A8B41110C1B0419436CE00021012D1E
:1007B00069D1610F0F1CE1008846181C002100233D
:1007C000364CA047041C0D1C00239C4620339B463E
:1007D000012663460593B9466B461B7D06930023AD
:1007E0009C46002000213F220094019520235B427B
:1007F000D31803D4341C9C40231C04E05B469B1A92
:10080000341CDC40231C371C9740041C0D1C24188E
:100810004D41201C291C0290039144463C40A246B5
:100820004C4623405446234305D0029B039C1D1C89
:100830003543281C211C019B8B420AD802D1009B06
:10084000834206D8009B019CC01AA14163463B43EA
:100850009C46013ACAD2009C019D62460599531AF2
:10086000DB080F4A934208D9069A0132D2B20692A7
:100870000A1C01320592082AAED14025069A082AA0
:1008800004D051031943079B19800025281C09B087
:100890003CBC90469946A246AB46F0BD611C0000A8
:1008A000FF1F000010B582B0041C0E4B1B78002BFC
:1008B00001D000290DD001A90C7012200A4B9847D5
:1008C00012200A4B9847074B5C7001221A700020D7
:1008D00006E0044B5B78834201D01D2000E000203D
:1008E00002B010BDC40000200D140000A5130000CC
:1008F000444B984233D006D8434B98420DD0434BDB
:1009000098421BD06FE0424B98424AD0414B9842EC
:1009100058D0414B984266D132E0012906D00029D7
:1009200063D0022906D0032906D001E03B4867E0E6
:10093000002065E03A4863E03A4861E0012906D0CA
:10094000002954D0022906D0032906D001E03648F8
:1009500056E0002054E0354852E0354850E0012987
:1009600006D0002945D0022906D0032906D001E08F
:10097000304845E0002043E02F4841E02F483FE069
:10098000012906D0002936D0022906D0032906D035
:1009900001E02B4834E0002032E02A4830E02A48C9
:1009A0002EE0012906D0002927D0022906D00329EC
:1009B00006D001E0254823E0002021E024481FE084
:1009C00024481DE0012906D0002918D0022906D0AC
:1009D000032906D001E0204812E0002010E01F4863
:1009E0000EE01F480CE000200AE01E4808E01E4808
:1009F00006E01E4804E01E4802E01E4800E01E48D3
:100A00007047C046000C004200040042000800424B
:100A100000140042001800420010004203000500CC
:100A2000030006000300070002001100020012008C
:100A30000200130002000D0002000E0002000F0071
:100A4000020017000200180002001900030029002C
:100A500003002A0003002B000300230003002000F2
:100A600003002100030004000200100002000C003B
:100A700002001600030028000300220030B587B0F2
:100A80000C4B6A4632CB32C232CB32C2009B83421D
:100A900006D001239A0069465258824203D100E0F1
:100AA0000023D8B203E00133062BF3D1002007B0B6
:100AB00030BDC046942700007047C046F0B50A4BD1
:100AC0001B78002B0CD1094F094E0A4D0024DE5132
:100AD0005A1914600433182BF9D10122024B1A70F1
:100AE0008000024BC150F0BDC6000020C8000020AD
:100AF000B90A00005801002010B582B0041C6846F5
:100B000005490622054B9847201C054B98476B4624
:100B1000185602B010BDC046AC270000011D0000F1
:100B20007D0A000008B5024B1B680020984708BDED
:100B3000C800002008B5024B5B680120984708BD3B
:100B4000C800002008B5024B9B680220984708BDEA
:100B5000C800002008B5024BDB680320984708BD99
:100B6000C800002008B5024B1B690420984708BD47
:100B7000C800002008B5024B5B690520984708BDF6
:100B8000C8000020F0B55F4656464D464446F0B4D6
:100B900091B0051C0C1C161C2960081CCE4B9847F4
:100BA00022680523D20700D58EE122681733920709
:100BB00000D589E1C949CA69471C1B3BBB401343A7
:100BC000CB610FA93527F35D0B701330C3B20293CD
:100BD000181CC34B98470298C24B9847F05D002100
:100BE000C14B9847F37A6B712C23F35CAB712D23C7
:100BF000F35CEB71F37E2B722423F35C6B722B6836
:100C00009846181CB44B9847133000220E2306A9AF
:100C10008C4663441A80338A9A468023DB019A45C6
:100C200019D004D880239B019A450AD02DE1C02316
:100C3000DB019A450AD080231B029A4500D129E1A5
:100C400023E1102399460F3B079327E10823994698
:100C5000073B079322E133689B46F368029373696D
:100C60000393337E04932E23F35C059372680692FC
:100C7000002A15D080235B059A4236D12F23F35CDE
:100C8000002B36D1B36A9946C0B2984B9847011CE5
:100C900048460E2206AB9C466244954B984725E099
:100CA00008239946002307932F23F35C002B0BD0D6
:100CB0004B460093B06A316B0E2206AB9C466244F1
:100CC000079B8C4FB84711E0B36A1F1CC0B2874B1B
:100CD0009847011C4B460093381C0E2206AB9C46DD
:100CE0006244079B834FB84700E00020031E00D0FA
:100CF000EAE0737E002B02D0B37E424693732A68EB
:100D0000069FD369002BFCD10E3306AA9446634498
:100D10001B8842469381029B5A461343039A13430E
:100D20003B4352461343049A12021343059A570752
:100D30001F432F23F35C002B01D104331F432423D3
:100D4000F35C5902727E93020B432622B25C1202BC
:100D500013432C22B25C520413432D22B25C1204C2
:100D60001343F17A19433389FF2B04D080225204B4
:100D70001743194305E0F37E002B02D08023DB04E8
:100D80001F4343469A68308C072313400343728CF9
:100D9000134342469360F369002B02D0564A174032
:100DA0001F433423F35C002B03D1544B9B789B07E8
:100DB00001D580231F432A68D369002BFCD1434609
:100DC00059602A68D369002BFCD143461F601A681A
:100DD000F0231B051340E022D204934242D0434645
:100DE0009B68072293434246936092682523F35CF5
:100DF00007210B4013434246936033E0F9B2BB0036
:100E00000AAA9858002802D1201C3D4B9847431C41
:100E100005D03070000CC0B2311C3A4B98470137F6
:100E2000042FEBD10023EB602B616B61AB61EB61B5
:100E30002B62AB626B620022EB85AB853033EA54E8
:100E40000133EA540133EA540133EA542868224B4F
:100E50009847041C2C492D4B9847A4002C4BE55077
:100E6000002331E00EAB80221A7000225A70DA7033
:100E70009A70B36B0A93F36B0B93336C0C93736C94
:100E800002930D9300270EAEB8E710239946002376
:100E9000079303E0032399460023079333689B4697
:100EA000F368029373690393337E04932E23F35CF8
:100EB000059372680692002A00D1F5E680235B054F
:100EC0009A4200D1DAE614E7181C11B03CBC9046F7
:100ED0009946A246AB46F0BD7D0A000000080040DE
:100EE0000D140000A5130000A50800003114000037
:100EF000B5060000DD060000FFFFFFF00020004106
:100F0000F108000009150000B90F0000BD0A00003B
:100F10005801002010B50368C4791C22002C0DD0A4
:100F2000C08D80B2173A002808D1DA69002AFCD1B6
:100F3000198502211A7E0A42FCD00022101C10BD25
:100F400010B5046882791C23002A33D0828D92B2B6
:100F5000173B002A2ED1227E52072BD5E369002BA6
:100F6000FCD1638BDBB25A0621D09A0703D502234A
:100F7000638318331EE05A0703D5042363831A33AF
:100F800018E0DA0703D501236383123312E0DA068F
:100F900005D5628B10231343638342230AE09B062B
:100FA00005D5628B202313436383412302E0238D05
:100FB0000B800023181C10BDF8B58000664BC55887
:100FC0002C68E369002BFCD1237EA67D1E403123D3
:100FD000EB5C3022AF5C1F40F30722D5EB8D9BB258
:100FE000002B1CD0AA6A1378DBB2511CA962697964
:100FF000012901D09BB204E0517809020B4302326F
:10100000AA62DB05DB0D2385EB8D013B9BB2EB85F3
:10101000002B06D1013323750133A37501E00123B1
:101020002375B30709D50223237500223133EA540F
:10103000FB0702D5281CEB68984773076DD5AB8D6D
:101040009BB2002B67D0638BDBB21A0702D47F22DE
:10105000134001E0772213405A0601D54022934302
:10106000002B36D09A0707D51A223223EA54628B16
:10107000303B1343638326E05A0707D51E223223F1
:10108000EA54628B2E3B134363831CE0DA0707D5D7
:1010900013223223EA54628B313B1343638312E001
:1010A000DA0607D542223223EA54628B223B1343ED
:1010B000638308E09B0606D541223223EA54628B03
:1010C000123B134363837B0727D5281C6B69984722
:1010D00023E0238DDB05DB0DDAB2696A0A706A6AE8
:1010E000511C69626979012904D11B0A53706B6A2A
:1010F00001336B62AB8D013B9BB2AB85002B0CD1F6
:101100000433237500222E33EA54BB0705D5281C6F
:101110002B69984701E004232375F30607D51023B4
:1011200023752376FB0602D5281CEB699847B30686
:1011300007D52023237523763B0702D5281CAB69EE
:101140009847330707D5082323752376BB0602D5B6
:101150002B6A281C9847F8BD5801002008B50728BD
:1011600003D880000F4B1B589F46002018E00E4B01
:10117000586815E00D4B5B7D0F21194001310C487B
:101180000C4B98470CE0084B986809E0074B1B7F15
:1011900000209B0704D5044B186801E08020000262
:1011A00008BDC046B4270000E00000200010004049
:1011B000006CDC023D1B000000B585B00322134B20
:1011C0009A60134A53681E218B435360114B197D5B
:1011D00080220A431A7505225A751A1C9369002B3E
:1011E000FCD10D4B984701230C4A137101A94B60A8
:1011F00000234B7006220A700B724B720020084BC2
:1012000098470020074B984705B000BD00180040E4
:10121000004000410010004029120000000800407A
:101220004D120000F9120000064A516980230B4359
:1012300053610122044B1A70191C0B781342FCD124
:101240007047C04600080040001C004070B5041CF8
:101250000D784B78002B02D08023DB001D434B7AA6
:10126000002B02D080231B011D434A68012A17D995
:10127000531E1A420FD1022A06D902230020013040
:101280005B009A42FBD800E0002080235B011D43F5
:101290000004054304E0120480239B001A43154315
:1012A0000B7A002B02D080239B011D430426A6400D
:1012B0000D490E4A4B6813401E42FBD10C4B984718
:1012C000A400094B9C466444206A80235B001840BC
:1012D000284320626146054A4B6813401E42FBD1F9
:1012E000044B984770BDC046001C0040FC0700003E
:1012F000090400004904000010B5041C04228240C7
:1013000009480A4943680B401A42FBD1084B9847E9
:10131000A400054B9C466444236A80225200134378
:101320002362044B984710BD001C0040FC070000DE
:101330000904000049040000F8B5041C042282409E
:101340001248134943680B401A42FBD1114B98478E
:101350000E4F0834A400E359072018400E4B98475D
:10136000061CE559ED04ED0FE459240C0B4B98478E
:10137000002D07D1012C07D9301C211C084B9847A0
:10138000061C01E00134E640301CF8BD001C0040A2
:10139000FC070000090400005D1100004904000082
:1013A0003D1B000010B5041C084B9847A400084BD7
:1013B000E0188022815840230B4383508021403A1B
:1013C00043581A42FCD0034B984710BD0904000053
:1013D000001C00404904000010B5041C084B98474D
:1013E000A400084BE0188022835840218B4383508F
:1013F0004031403A43581A42FCD1034B984710BD44
:1014000009040000001C00404904000038B5041C19
:101410000D1C054B98472B780F2213402034A40055
:10142000024AA35038BDC046D9130000001C00403A
:1014300010B5041C064B98472034A400054BE35814
:101440000F241C40044B9847201C044B984710BDA8
:1014500009040000001C004049040000391300008A
:1014600030B5D378002B1ED11478802C04D02406FC
:1014700080235B021C4300E0002453780225AB4329
:101480000AD19378002B03D180239B021C4302E0F6
:10149000C023DB021C4341605378013B012B12D86F
:1014A000184B1C400FE041600B041B0CA024E4050A
:1014B000234383620B0CD024240623438362D37816
:1014C000002B18D01CE00B041B0CA025ED052B43B2
:1014D000234383620B0CD0252D062B4323438362C9
:1014E000D378002B0CD1630305D59378012B01D160
:1014F000816100E041615378013B012B00D881609C
:1015000030BDC046FFFFFBFF08B5031C0A1CC10924
:101510000020002905D15809C0018221C9058C4647
:1015200060441F210B401E399940014B984708BD6C
:10153000611400007047C04608B5054B9847054B3D
:101540009847054B9847054B9847054B984708BD6A
:10155000B911000005040000351500006D050000FC
:1015600035150000931C9B001950022A04D1027EFD
:101570001023134303760CE0032A04D1027E2023B8
:101580001343037605E0012393401A1C037E1A439C
:10159000027600207047C04638B58000144BC5580D
:1015A0002B689C7A2B7E1C406B7E1C40E30705D584
:1015B000281CAB68984701232A689372A30705D5B6
:1015C000281CEB68984702232A689372E30605D526
:1015D000281C2B69984710232A689372A30605D507
:1015E000281C6B6998472B6820229A7238BDC04628
:1015F0007001002008B50020014B984708BDC04687
:101600009915000008B50120014B984708BDC04658
:101610009915000008B50220014B984708BDC04647
:101620009915000008B50320014B984708BDC04636
:101630009915000008B50420014B984708BDC04625
:101640009915000030B587B001A90C4B0A1C32CBAC
:1016500032C212CB12C2019B834206D001239A00F0
:1016600001A95258824203D100E00023D8B203E01E
:101670000133052BF3D1002007B030BDD427000083
:10168000F0B5474680B48EB0051C0E1C171C081C14
:10169000A14B98478046A14C211C14310CA805226F
:1016A0009F4B984702A9231C1C330A1C13CB13C25F
:1016B00013CB13C213CB13C21B6813600023AB60A0
:1016C000EB602B616B612B766B7643469A00954BF2
:1016D000D5502E603423FB5CAB76FB78082B04D10D
:1016E00017204246D20700D511E12B71336805203F
:1016F000DB0700D50BE1F37A17309B0700D506E135
:1017000033689B0700D502E13B7C002B0AD001A97E
:1017100001238B700022CA703A7E0A704B70387DAC
:10172000814B98473B7F002B0BD001A901238B7085
:101730000022CA707A6A0A704B703B6AD8B27A4B40
:1017400098474346590002AA4B1C9B0098584346B1
:10175000DB009A58D3B2012B09D0002B02D0022B08
:101760000AD00DE0714A53691843506108E06F4A8E
:1017700093691843906103E06C4AD3691843D061C0
:10178000FB78082B20D143460133042B1CDC02AA32
:10179000CB1C9B0098588B1C9B009B58DAB2012AEB
:1017A00009D0002A02D0022A0AD00DE05F4A53690C
:1017B0000343536108E05D4A93690343936103E087
:1017C0005A4AD3690343D3613B786A4613700CAB22
:1017D00042469C5C201C6946554B9847201C554B43
:1017E0009847FA79FB781343BA8813437A7A002A28
:1017F00002D0802252021343BA7A002A02D08022F9
:1018000092021343FA7A002A02D080225203134331
:101810003A7B002A02D0802292031343B978C9018F
:101820007A789201114319432A681369002BFCD17D
:1018300031602A681369002BFCD1BB793373797B43
:101840004B1E99418900BB7B002B01D0012319431A
:101850002A681369002BFCD1FF333371002904D0AF
:101860002A681369002BFCD171713B7A73732A6863
:101870001369002BFCD12B79042B05D0082B33D016
:101880001720002B43D11CE01369002BFCD1283317
:10189000FB5C33752A681369002BFCD12933FB5C90
:1018A000F3762A681369002BFCD12A33FB5C33776B
:1018B0002A681369002BFCD12B33FB5C7377002063
:1018C00025E01369002BFCD13B8DB3822A68136994
:1018D000002BFCD17B8DB3832A681369002BFCD1CC
:1018E000BB8DF383002012E01369002BFCD1BB6A8F
:1018F00073612A681369002BFCD1FB6AF3612A68C3
:101900001369002BFCD13B6B33620020FFE70EB064
:1019100004BC9046F0BDC04645160000D427000028
:10192000011D0000700100200915000000080040A2
:101930000D140000A513000002681369002BFCD1F0
:101940000379042B05D0082B0BD01720002B0BD1CB
:1019500003E0C9B21175002006E089B2918200202F
:1019600002E051610020FFE77047C046FEE7C04635
:1019700010B51B4B1B4A9A4203D01B4B184A9A4284
:1019800004D31A4B1A4A9A4210D31EE0194A164B36
:1019900003339B1A9B0801339B0000221048114916
:1019A0008C58845004329A42FAD1EAE7124A0F4B1B
:1019B00003339B1A9B0801339B0000220C48002133
:1019C0001418216004329A42FAD10C4AFF210C4BC0
:1019D0008B4393600B4B98470B4B9847FEE7C046F1
:1019E00000000020B82800006800002094010020BA
:1019F00068000020040000206C00002000ED00E0E2
:101A000000000000B51C0000E11A0000F0B54746D8
:101A100080B40C1C9046002810D1002A0ADD8F18D3
:101A2000094E0A4D3068211C2B6898470134BC428E
:101A3000F8D101E000239846404601E001204042F1
:101A400004BC9046F0BDC0468C01002084010020FB
:101A5000F0B5474680B40138022815D8002A10D0C6
:101A6000151C0E1C00240C4B98460C4F434618685E
:101A7000315D3B689847002809DB0134A542F5D168
:101A800000E00024201C04E00120404201E001208D
:101A9000404204BC9046F0BD8C010020880100202B
:101AA000031C064A1268002A02D10549034A116044
:101AB000024A1068C31813607047C046EC0000204B
:101AC00098210020012040427047C04680239B019E
:101AD0004B6000207047C0460120704700207047CF
:101AE00008B50C4B98470C4B98470C4B9847012274
:101AF0000B4B1A70BFF35F8F62B60A4B98470A4BC5
:101B000098470A4B98470A4B98470A480A4B984708
:101B1000FEE7C04639150000D5030000B103000000
:101B20000000002089030000A1020000150300004E
:101B30006101000018280000E51D00000022430894
:101B40008B4274D303098B425FD3030A8B4244D385
:101B5000030B8B4228D3030C8B420DD3FF220902C7
:101B600012BA030C8B4202D31212090265D0030B86
:101B70008B4219D300E0090AC30B8B4201D3CB037C
:101B8000C01A5241830B8B4201D38B03C01A5241BE
:101B9000430B8B4201D34B03C01A5241030B8B42C0
:101BA00001D30B03C01A5241C30A8B4201D3CB02AB
:101BB000C01A5241830A8B4201D38B02C01A524190
:101BC000430A8B4201D34B02C01A5241030A8B4293
:101BD00001D30B02C01A5241CDD2C3098B4201D3AB
:101BE000CB01C01A524183098B4201D38B01C01A29
:101BF000524143098B4201D34B01C01A52410309A0
:101C00008B4201D30B01C01A5241C3088B4201D34E
:101C1000CB00C01A524183088B4201D38B00C01AFB
:101C2000524143088B4201D34B00C01A5241411A22
:101C300000D20146524110467047FFE701B500202F
:101C400000F00CF802BDC0460029F7D003B5FFF73D
:101C500075FF0EBC4243891A1847C0467047C046FC
:101C6000F0B54F46464605042D0C2C1CC0B4170495
:101C7000160C3F0C9946030C7C4375435F4373433A
:101C80007D19260CAD199C46AF4203D980235B0217
:101C90009846C4444B465143434324042E0C240C21
:101CA0002D0466442C1959188919201C0CBC904627
:101CB0009946F0BD0E4B70B500251E1C0D4CE41A64
:101CC000A410A54204D0AB00F35898470135F8E7BB
:101CD00000F0E2FD084B00251E1C084CE41AA4107D
:101CE000A54204D0AB00F35898470135F8E770BD22
:101CF000A4280000A4280000A4280000A8280000B0
:101D0000002310B5934203D0CC5CC4540133F9E7EF
:101D100010BD031C8218934202D019700133FAE7F8
:101D2000704770B5051C0E1C002804D08369002B79
:101D300001D100F0B5FAAC68A3891B0702D523696D
:101D4000002B19D1281C211C00F03EF9002813D0CB
:101D50000120404245E03178002B1BDAA269934212
:101D600011DA221C281C00F0D7F80130424242410F
:101D7000D0B20028ECD10136A3683278013BA360D1
:101D8000002AE8D10CE023681970236819780A2921
:101D900003D1E6E723681970236801332360EAE77B
:101DA000002B17DAA269934208DB0A23226813701A
:101DB000236819780A2911D1281C01E0281C0A215E
:101DC000221C00F0A9F8013042424241D0B2002862
:101DD00006D0BDE70A23226813702368013323600D
:101DE0000A2070BD08B5034B011C1868FFF799FF66
:101DF00008BDC0466400002008B54A424A4180231D
:101E00005200DB0000F002F808BD0000F7B51E1C10
:101E10003C4B041C1D680F1C0192002D05D0AB69C2
:101E2000002B02D1281C00F03BFA374B9C4201D119
:101E30006C6808E0354B9C4201D1AC6803E0344B40
:101E40009C4200D1EC68019B022B58D8002E56DB37
:101E5000281C211C00F0B6F900236360A361A3894C
:101E60001B0603D5281C216900F00EFB8322A389E1
:101E70009343A381019B022B13D0002F25D1002E69
:101E800001D18026F600301C00F0F4FA071E18D1AC
:101E90008020C00000F0EEFA071E10D10120404261
:101EA00000E000200222A3891343A3810023A36042
:101EB000231C4733236023610123636121E08026D3
:101EC000F6008022A3891343A381019B012B05D136
:101ED000A389019A1A437342A281A3610D4B00208A
:101EE000AB62A289276027616661130709D50323C6
:101EF0001A40534253415B421E40A66001E001205C
:101F00004042FEBD64000020382800005828000030
:101F1000782800001D22000070B5051C0E1C141C42
:101F2000002804D08369002B01D100F0B9F9234BBC
:101F30009C4201D16C6808E0214B9C4201D1AC6805
:101F400003E0204B9C4200D1EC68A369A360A38905
:101F50001B070AD52369002B07D023682269F6B234
:101F6000981A636998420FDB08E0281C211C00F0D6
:101F70002BF80028F1D0012040421DE0281C211C34
:101F800000F020F90028F6D1A3680130013BA360DE
:101F900023685A1C22601E706369984205D0A38989
:101FA000301CDB0708D50A2E06D1281C211C00F0A6
:101FB00009F90028DFD1301C70BDC0463828000068
:101FC0005828000078280000354B70B51D68061CA5
:101FD0000C1C002D05D0AB69002B02D1281C00F091
:101FE0005FF9304B9C4201D16C6808E02E4B9C425B
:101FF00001D1AC6803E02D4B9C4200D1EC68A38971
:102000009AB2110723D4D10607D4092201203260E5
:1020100037321343A381404240E0530713D5616B2D
:10202000002908D0231C4433994202D0301C00F010
:102030002BFA002363632422A3899343A381002303
:102040006360236923600822A3891343A381236962
:10205000002B0BD1A023A2899B0013408022920069
:10206000934203D0301C211C00F0ACF90123A2895B
:10207000134005D00023A36063695B42A36103E0C2
:10208000910700D46369A36000202369834205D1CE
:10209000130603D540231A43A281013870BDC04600
:1020A000640000203828000058280000782800002C
:1020B000F7B58A89051C0C1C13075ED44B68002BEE
:1020C00002DC0B6C002B1ADDE76A002F17D000230F
:1020D0002E682B6080235B011A4001D0626D15E0F1
:1020E000281C216A0123B847021C431C0ED12B680F
:1020F000002B0BD01D2B01D0162B02D12E600020FF
:102100005EE04021A3890B43A38159E0A3895B07CB
:1021100006D56368D21A636B002B01D0236CD21AE8
:102120000023281C216AE76AB847A389421C06D10C
:102130002A68002A03D01D2A01D0162A19D10022AC
:10214000626022692260DB0405D5431C02D12B6842
:10215000002B00D16065616B2E600029CFD0231C5D
:102160004433994202D0281C00F08EF900206063AD
:1021700026E040221343A38122E00F69002FBED046
:102180000B680F60DB1B01930023920700D14B69A2
:10219000A360019B002BB2DD281C216A3A1C019B25
:1021A000A66AB047002806DC40220120A3894042ED
:1021B0001343A38104E0019B3F181B1A0193E8E736
:1021C000FEBD000038B50B69051C0C1C002B01D1AD
:1021D00000201CE0002804D08369002B01D100F00E
:1021E0005FF80B4B9C4201D16C6808E0094B9C42A4
:1021F00001D1AC6803E0084B9C4200D1EC680C2292
:10220000A35E002BE4D0281C211CFFF751FF38BD32
:1022100038280000582800007828000008B5024936
:1022200000F0AEF808BDC046C5210000002310B57F
:10223000041C03604360836081814366C281036143
:1022400043618361191C08225C30FFF762FD054B76
:1022500024626362044BA362044BE362044B236376
:1022600010BDC046E92500001126000049260000E7
:102270007526000070B568254B1E5D430E1C291C99
:10228000743100F047F9041E08D000212A1C0160B7
:1022900046600C30A0606832FFF73BFD201C70BD2B
:1022A000836913B5002B28D18364C3640365134B82
:1022B000134A1B6882620193984201D10123836112
:1022C000041C00F01FF86060201C00F01BF8A060E8
:1022D000201C00F017F80421E06000226068FFF77E
:1022E000A5FFA06809210122FFF7A0FFE0681221E5
:1022F0000222FFF79BFF0123A36113BD34280000D6
:102300001D220000F8B51D4B061C1D68AB69002B93
:1023100002D1281CFFF7C4FF4835AC686B68013B4D
:1023200005D40C22A75E002F10D06834F7E72B6885
:10233000002B06D1301C0421FFF79CFF28600028E9
:1023400001D02D68E9E70C23336016E00123201C3F
:102350005B42E3810233A38167662760A760676001
:1023600027616761A7615C30391C0822FFF7D1FC47
:10237000201C6763A763A764E764F8BD34280000E6
:10238000F7B5041C071C002601914834002C16D018
:102390006368A5680093009B013B00930DD4AB8953
:1023A000012B08D90E22AB5E013304D0381C291C46
:1023B000019B984706436835EDE72468E6E7301C43
:1023C000FEBD0000F0B58B8991B09B0706D50B1CB4
:1023D00047330B600B6101234B6145E00C1C0E235E
:1023E000C95E061C002904DA8023A5891D4010D18E
:1023F0000CE001AA00F06AF90028F5DBF023029D49
:102400001B021D40194BED186B425D418027FF00F8
:1024100001E000254027301C391C00F07BF8002823
:102420000CD1A3899A051FD402221343A381231C34
:102430004733236023610123636115E080220C4B45
:10244000B362A38920601343A38120616761002DDB
:102450000AD00E23E15E301C00F04AF9002803D0B8
:102460000122A3891343A38111B0F0BD00E0FFFF57
:102470001D22000008B5034B011C186800F04AF843
:1024800008BDC0466400002030B500293ED00439A4
:102490000B68002B00DAC9181D4A1368141C002BA6
:1024A00002D14B60116031E099420DD208680A18E0
:1024B0009A4203D11368C3180B6053684B602160C4
:1024C00024E08A4203D8131C5A68002AF9D11D68F7
:1024D0005C198C420BD10968691858181960904230
:1024E00014D110685268091819605A600EE08C42C5
:1024F00002D90C23036009E008680C18944203D148
:1025000014685268001908604A60596030BDC046BE
:10251000F4000020032370B5CC1C9C430834051C38
:102520000C2C01D20C2405E0002C03DA0C23002033
:102530002B6042E08C42F9D3204A1368101C191C0E
:10254000002913D00A68121B0DD40B2A02D90A6085
:102550008B181FE08B4202D15A6802601BE04A6868
:102560005A600B1C17E00B1C4968E9E7144E3368EE
:10257000002B03D1281C00F025F83060281C211CFA
:1025800000F020F8031C421CD0D00322C61C964346
:1025900086420AD11C60181C07210B301A1D884383
:1025A000821A0AD05142995007E0311A281C00F0D3
:1025B00009F8431CBAD0331CECE770BDF4000020CE
:1025C000F000002038B50023064C051C081C2360D1
:1025D000FFF766FA431C03D12368002B00D02B6061
:1025E00038BDC0469001002038B50C1C0E25495F4F
:1025F00000F0A4F8002803DB636D1B18636503E09B
:10260000A289024B1340A38138BDC046FFEFFFFFF4
:10261000F8B51E1C8B89051C0C1C171CDB0505D589
:102620000E23C95E0022022300F074F8A289054B34
:10263000281C1340A3813A1C0E23E15E331C00F0DA
:102640001FF8F8BDFFEFFFFF38B50C1C0E25495FE2
:1026500000F060F8A389421C03D1054A1340A3810E
:1026600004E0802252011343A381606538BDC04657
:10267000FFEFFFFF08B50E23C95E00F015F808BD97
:1026800038B5051C0020074C2060081C111C1A1CC2
:10269000FFF7DEF9431C03D12368002B00D02B6029
:1026A00038BDC0469001002038B50023064C051CFB
:1026B000081C2360FFF706FA431C03D12368002B94
:1026C00000D02B6038BDC0469001002038B50023F3
:1026D000064C051C081C111C2360FFF7F7F9431C6E
:1026E00003D12368002B00D02B6038BD900100205F
:1026F00038B50023064C051C081C2360FFF7ECF9D5
:10270000431C03D12368002B00D02B6038BDC0468A
:102710009001002038B5051C0020074C2060081CE3
:10272000111C1A1CFFF7DAF9431C03D12368002B94
:1027300000D02B6038BDC0469001002038B5051C84
:102740000020074C2060081C111C1A1CFFF75EF9C2
:10275000431C03D12368002B00D02B6038BDC0463A
:102760009001002014151617180000005468652009
:102770006F7574707574206973207472696767650A
:1027800072656420627920544320636F756E7465AE
:10279000720D00000004004200080042000C0042DC
:1027A000001000420014004200180042090A0B0CFD
:1027B0000D0E00006E1100006A1100006A11000089
:1027C0009C1100009C110000861100007411000093
:1027D0008C110000003000420034004200380042FA
:1027E000003C0042004000421E1E1F1F200000004F
:1027F00002000000001000000200000000200000A5
:102800000200000000400000020000000080000004
:102810000200000000000100433231205374617255
:102820007465722050726F6A6563740A0A00000052
:102830004300000004000020000000000000000031
:102840000000000000000000000000000000000088
:102850000000000000000000000000000000000078
:102860000000000000000000000000000000000068
:102870000000000000000000000000000000000058
:102880000000000000000000000000000000000048
:102890000000000000000000F8B5C046F8BC08BC0D
:1028A0009E467047E5000000F8B5C046F8BC08BC7D
:0828B0009E467047BD000000C8
:1028B800010000000000000038280000582800002F
:1028C8007828000000000000000000000000000060
:1028D8000000000030280000000000000000000098
:1028E80000000000000000000000000000000000E0
:1028F80000000000000000000000000000000000D0
:1029080000000000000000000000000000000000BF
:08291800000000000400002093
:04000003000019716F
:00000001FF
