:10000000C03E0020F11B0000ED1B0000ED1B0000B6
:1000100000000000000000000000000000000000E0
:10002000000000000000000000000000ED1B0000C8
:100030000000000000000000ED1B0000ED1B0000B0
:10004000ED1B0000ED1B0000ED1B0000D5040000BF
:10005000ED1B0000ED1B0000ED1B0000ED1B000080
:10006000ED1B0000251000003510000045100000B9
:10007000551000006510000075100000ED1B000019
:10008000ED1B0000ED1B0000ED1B0000ED1B000050
:10009000B11B0000BD1B0000C91B0000D51B0000E8
:1000A000E11B0000510300005D030000ED1B000098
:1000B000ED1B0000ED1B0000ED1B000010B5064C11
:1000C0002378002B07D1054B002B02D0044800E019
:1000D00000BF0123237010BD80000020000000003D
:1000E0001C5F0000044B10B5002B03D003490448EB
:1000F00000E000BF10BDC0460000000084000020EA
:100100001C5F000001220A4B10B51A70040004F0B5
:10011000C3F8084B197B002908D000230648A268C1
:10012000D25CC2540133DAB28A42F8D310BDC04661
:100130009C000020BC040020A0000020F0B5D646A2
:100140004F464646C0B501F0C9FA04F0F1F803F095
:100150006BFD454804F076FA0121444804F0E6F9C5
:1001600001F040FE03F06AF904F0AAF80121002032
:100170003F4A03F061FF04F03FF804F06BF80122FE
:100180003C4B1A70BFF35F8F62B603F061FE03F061
:100190008DFE03F0C7FF38490600384803F0B4FE6F
:1001A00037490500374803F0AFFE374B04009A4645
:1001B000364B374F98460023994603F0AFFF3B7804
:1001C000002B1ED143461B78002B25D0280003F0BE
:1001D000C3FE200003F0C0FE0021280003F0AEFEA5
:1001E0000021200003F0AAFE0021280003F0A8FE51
:1001F0000021200003F0A4FE03F090FF3B78002BC9
:10020000E0D04B460622514630003B7003F0A4FF7D
:1002100043461B78002BD9D1300003F095FF010035
:10022000280003F08BFE300003F092FF0100200055
:1002300003F084FE300003F089FF431E9841C1B2F1
:10024000280003F07DFE300003F084FF431E984138
:10025000C1B2200003F074FE280003F073FE2000FA
:1002600003F070FEA9E7C046A4580000B85800008B
:100270000501000000000020413D0000013D00009C
:10028000B53D0000753D0000A0000020A41E002028
:100290009C000020012270B52C4B8000C4582168BE
:1002A0008B79DDB21A4202D0E37E1A421FD10423B9
:1002B0002B4205D022689371E27E023B13420FD19C
:1002C00002232B420BD022689371E27E0233134249
:1002D00005D0A27E134202D020002369984770BD4A
:1002E000A27E1342ECD02000E3689847E8E7A37EA3
:1002F0001A42DCD08A7161698B1C636123689B8C14
:100300009BB20B80238B013B9BB22383002B13D02A
:10031000637F002BCBD02268D3795BB2002BC6DB86
:10032000138C002BFCD10221137E0B431376226821
:10033000138C002BBBD0FBE7217F0529B7D1237796
:10034000236820001A71A3689847B0E7E4000020F2
:1003500010B50020FFF79EFF10BDC04610B501206C
:10036000FFF798FF10BDC04602210120054A13780F
:100370008B43137053681942FCD153681842F9D16A
:100380007047C0460028004002210120054A13782A
:100390000B43137053681942FCD153681842F9D1CA
:1003A0007047C04600280040802300B5164ADB0095
:1003B000516983B00B435361002301A902200B70E4
:1003C00001F0D6F8022001F0EFF8012101200F4BD7
:1003D0001A780A431A7001315A681142FCD15A68DE
:1003E0001042F9D110211A788A431A70084B002262
:1003F0001900403104C39942FCD10822054B1A6010
:10040000FFF7C2FF03B000BD000800400028004015
:10041000EC00002000E100E0002303604360014B9A
:100420008360704701000002F0B583B00C00050046
:10043000FFF79AFF002301A94B70CB706368207807
:100440000B70237A8B7001F031F900201F2D00D83A
:1004500014480722A37A2A40E77A9200002B01D0A1
:1004600008231F430F26974096403A00EB089B0055
:10047000C318D969B1430A43DA61637A002B08D003
:100480000123AB40826913438361FFF77DFF03B013
:10049000F0BD0122AA40836993431B041B0C8361B6
:1004A000F3E7C04600280040002A0BD1084A890023
:1004B0008B58002B08D01B1A5A1E934158421D23FB
:1004C000184070471720FCE788500020F9E7C04625
:1004D000EC000020F8B5002301260B4C0B4D0C4F0F
:1004E000237032009A406969114205D06A619B000D
:1004F000DB59002B00D0984723780133DBB22370FF
:100500000F2BEED9F8BDC0462C010020002800407A
:10051000EC0000200B00802200B583B001A90A7016
:100520001A784A705A788A709B78CB7001F0BEF8BE
:1005300003B000BDF0B54646D6464F46C0B5016093
:100540000B6804000E00150086B09B0700D5DDE0A7
:1005500001273A000B681A4092461F4200D0D3E0B0
:10056000080000F0DDFE052800D1D1E0431C9F40CB
:1005700013303B00C7B275493800CA691343CB61D9
:1005800024236A469846EB5C6946137000F0F0FF3E
:10059000380001F009F843460021E85C00F042FE13
:1005A0002B78012B04D10C223368134333602B7852
:1005B000002B03D108223368134333600023002744
:1005C000A386E360238623616361A361E361236201
:1005D0006362E362A362E3863833E754353B6372B8
:1005E0002068277100F09CFE0600594900F0ECFCE1
:1005F000584BB600F450236801AE994680233370FF
:100600007F3BB3702B787770F770002B00D1B770F9
:10061000EB6AA86A03932B6B02AFBB606B6B029013
:10062000FB60002398464346D9B2002813D0431CF0
:1006300005D03070000C3100C0B201F037F8012352
:100640009C46E0444346042B09D09B00F85843469F
:10065000D9B20028EBD1484600F006FEE7E72B7838
:100660006A4663712B7CA371AB7CE3712B7D237293
:10067000002353802B78012B50D00022002B0FD168
:10068000AB69A87F9A464B46596AEB7FAA8B1B043D
:1006900003430B4349464B622023EB5C002B3AD1CA
:1006A000A9686B680B43E9680B4351460B43297CEF
:1006B0000A43697C002924D127498978890720D4F5
:1006C000A97C002902D0802189020A43E97C002903
:1006D00002D0802189000A43297D002902D080218F
:1006E00089010A434946096800200B4349460B60CB
:1006F0004B681A434A6006B0E0BCBA46B146A84609
:10070000F0BD80210B43DBE70520F4E71C20F2E776
:10071000192740232FE740231A43C1E7206800F040
:10072000FFFD1330C0B200F057FF6B4601009A1C6A
:10073000A86900F0A7FC002805D16B464A469B78C3
:1007400013732B7899E71720D5E7C04600080040BF
:100750004D080000340100200020004170B54379AD
:10076000012B3AD1047A002C01D0002070BD002A60
:1007700035D04D78002D41D01D000268127E154005
:1007800013424BD00D786EB26A09002E5ADB1F243B
:1007900025401C00AC408225ED05AC46D2016244E8
:1007A000546102688978147E234200D09162C37933
:1007B000002BDAD104210268137E1942FCD0137E8B
:1007C0001942D2D0538B5B0704D50421538B0B43C2
:1007D0009BB253830020936AC8E71520C6E70878C8
:1007E00044B24109002C29DB1F2210408222D2058D
:1007F00094468340C90161448B61B6E7097848B2E9
:100800004A09002820DB1F2001408B408221C905B6
:100810008C46D201624400205361A7E7097848B2B0
:100820004A0900280CDB1F2001408B408221C905AA
:100830008C46D201624493611A3897E79261FFDED9
:10084000AD61FFDE6461FFDE6D61FFDEF8B5804BF8
:100850008000C458362237232668E35CA75C1F401B
:10086000337EB57D1D40EB0721D56379012B00D187
:1008700080E0002B1BD1637A002B18D0E26A21683C
:10088000501C1378E062A079DBB2012800D1C8E0E7
:100890009BB28B62A38E013B9BB2A386A38E002BDF
:1008A00005D101333375637A012B00D1C1E00423F4
:1008B0002B4216D0728B134239D0637A012B0BD0A6
:1008C00038231E22E254353B6372023333753B07F3
:1008D00002D52000A36998470422B36A738B13439F
:1008E000738302222A4214D06379002B0FD107218F
:1008F00031753276013262720022A3862386383344
:10090000E254FB0602D52000E36998476379012B86
:1009100044D008232B4206D06279002A03D13375D4
:100920003376BB064CD46DB2002D1ADBF8BD637A6A
:10093000DAB2012B48D123689B6A638E013B9BB2DC
:100940006386638E99B2002BCBD104233375382391
:10095000E154353B63723A42C3D02000E3689847C4
:10096000BFE78023337533767B06DFD52000636ACB
:100970009847DBE7627A002A00D07CE7354A128884
:10098000B262628E013A92B26286628E002A00D111
:1009900033756379012B00D16DE76AE7627A012A2A
:1009A000C1D1E279002ABED10221317501316172D3
:1009B000353162543B42ACD02000E3689847A8E749
:1009C0002000236A9847AEE72368A16A9B6ADB058B
:1009D000DB0DDAB20A70A26A511CA162A179012969
:1009E00004D11B0A5370A36A0133A362238E013B17
:1009F0009BB22386238E9AB2002B00D071E7383346
:100A0000E254343B3375627A022A19D0637A002BA0
:100A100000D066E7BB0700D463E72000236998474E
:100A20005FE75078023200020343DB05E262DB0D30
:100A30002FE7E379002B00D039E70233B37536E7AF
:100A40003B4200D14DE720006369984749E7C04623
:100A5000340100202E010020F0B54546DE46574601
:100A60004E468846E0B5016005008BB008001400D2
:100A700000F056FC43461A680123134200D045E1BA
:100A8000022142460E0012681640114200D03BE19E
:100A9000471CBB40B34A1330D169C7B20B43D36183
:100AA00035239946E35C04A938000B7000F060FD23
:100AB000380000F079FD4B460021E05C00F0B2FB0D
:100AC000E37A6B712C23E35CAB712D23E35CEB7158
:100AD000E37E2B722423E35C6B722B6818009A462A
:100AE00000F01EFC02AB1E82C023228ADB019A4268
:100AF00000D11DE100D9CCE080239B019A4200D1B6
:100B0000D8E000239B468023DB01D31A59424B4196
:100B100007215F428F4310372E23E168E35C26688C
:100B20005B070E436169994663680E431E43164393
:100B3000227E12021643002B00D1EDE080225205E6
:100B4000934200D0ADE02F23E35C0021002B00D0C6
:100B5000A8E01330C0B2A76A00F03EFD06AA01006B
:100B6000380000F08FFA002800D0C6E002AB198AE6
:100B7000637E002B00D099E02A68D369002BFCD15A
:100B8000534699814B461E432F23E35C002B01D132
:100B900004331E432422637EA25C9B025202134351
:100BA0002622A25CE17A120213432C22A25C520498
:100BB00013432D22A25C1204134319432389FF2BF4
:100BC00000D1B9E080225204164319435346228CC7
:100BD0009868638C1A43072303401A4353469A606C
:100BE000E369002B02D0604A16401E433423E35CC5
:100BF000002B63D15D4B9B789B075FD42A68D36938
:100C0000002BFCD1534659602B68DF69002FFCD1C3
:100C10005346F0221E601B6812051340E022D204E6
:100C200093420CD053469A68072351469A438A60F0
:100C30008A682521615C0B401343524693608023F0
:100C400005AE337000237370F370B370E36BA06B69
:100C50000793236C06900893636CF9B2039309938E
:100C6000002812D0431C05D03070000C3100C0B2F7
:100C700000F01CFD0137042F23D0102102AA5218C6
:100C8000BB00D058F9B20028ECD1404600F0ECFA95
:100C9000E8E780231B029A423AD1002303279B46B0
:100CA0003AE70021637E002B00D165E75246A37E20
:100CB000937361E7012310279B462DE780231E4392
:100CC0009CE700230022EB85EB602B616B61AB613D
:100CD000EB612B62AB626B62AB852B863233EA54DD
:100CE0000133EA54286800F01BFB0400204900F09F
:100CF0006BF900201F4BA400E5500BB0F0BCBB46C5
:100D0000B246A946A046F0BD1C20F6E70520F4E750
:100D1000002310279B46FFE62F23E35C002B13D014
:100D200000975B46216BA06A06AA00F0BDF91AE79E
:100D3000012308279B46EFE6E37E002B00D145E721
:100D40008023DB041E4341E7A36A1330C0B2039340
:100D500000F042FC5B4601000097039806AA00F0F1
:100D6000A3F900E700080040FFFFFFF0002000416A
:100D70001D0E000034010020C379002B0DD0C38D5F
:100D8000002B0CD10368DA69002AFCD119850221F5
:100D90001A7E1142FCD0002070471C20FCE7052081
:100DA000FAE7C0468379002B20D0838D002B1BD11E
:100DB0000268137E5B0717D5D369002BFCD1538BD8
:100DC000D8B25B060CD00223034211D104230342A4
:100DD00017D10123034217D1C30618D483060AD4BE
:100DE000138D00200B8000E0052070471C20FCE7DD
:100DF0001A205383F9E72021538B41200B4353835F
:100E0000F3E71E205383F0E713205383EDE710210F
:100E1000538B42200B435383E7E7C046F8B5684B3A
:100E20008000C5582C68E369002BFCD1237EA67D89
:100E300031221E403023AF5CEB5C1F400123334264
:100E400016D0EA8D002A63D0AA6A511C1378A962D1
:100E50006979DBB2012960D09BB22385EB8D013B20
:100E60009BB2EB85002B03D1013323750133A375AE
:100E70000223334205D0002223753133EA54FB07A5
:100E800042D4042333421CD0AA8D002A3AD0628B6C
:100E9000D3B212073ED47F22134040221A4200D020
:100EA0009343002B41D09A0760D532231A22EA548B
:100EB000638B183A134363837B0702D528006B6961
:100EC00098471023334203D0237523763B4215D134
:100ED0002023334203D0237523763B070AD408230B
:100EE000334206D023752376BB0602D528002B6A31
:100EF0009847F8BD2800AB699847F0E72800EB69F0
:100F00009847E5E72375DCE72800EB689847B8E7E2
:100F10002375ADE777221340BFE75178023209020B
:100F20000B43DB05AA62DB0D97E7238D696ADB05BE
:100F3000DB0DDAB20A706A6A511C696269790129AB
:100F400004D11B0A53706B6A01336B62AB8D013B9A
:100F50009BB2AB85002BB4D1042222752E32AB5448
:100F6000BB07AED528002B699847AAE75A0709D4D2
:100F7000DA070FD532231322EA54638B123A134354
:100F8000638399E732231E22EA54638B1A3A134390
:100F9000638391E7DA0607D532234222EA54638B52
:100FA000323A1343638387E79B0600D484E73223F6
:100FB0004122EA54638B213A134363837CE7C046A2
:100FC000340100207047C046F0B50A4F3B78002B33
:100FD00003D0094A80001150F0BD00230024064AC6
:100FE000064E074DD650EC500433182BFAD1173B60
:100FF0003B70EFE7300100204C010020C50F0000DE
:101000003401002000B5064B83B01A6800926A468E
:101010009B88938000F084F96B46185603B000BD9E
:10102000C858000010B5024B00201B68984710BD3F
:101030004C01002010B5024B01205B68984710BDA1
:101040004C01002010B5024B02209B68984710BD50
:101050004C01002010B5024B0320DB68984710BDFF
:101060004C01002010B5024B04201B69984710BDAD
:101070004C01002010B5024B05205B69984710BD5C
:101080004C01002010B5490881420BD300231C00FD
:101090000133091A9BB28842F9D9FF2C02D80020EB
:1010A000148010BD4020FCE7F0B54E464546DE46B4
:1010B0005746E0B5050089B0069212AA10782A00BA
:1010C00042430E008A4256D8002B38D12A00002114
:1010D00003F0C8F900230121340099469A4683465B
:1010E0000025002200233F268C461FE067468F40E4
:1010F0006146B14092185B4188465946009201937F
:101100000F4203D0604610430200019B9D420BD862
:1011100001D1944208D849464046014350463843DD
:10112000121BAB4189468246013E15D3202149421C
:101130007118DBD520216746891BCF40D8E70024F2
:10114000012B1AD00020069B1C8009B0F0BCBB46C6
:10115000B246A946A046F0BD4B465C42240CF1E7DE
:1011600063468021079A49029B1A8B4254D301326D
:101170000792082A12D14020E7E74B0F9946CB008F
:101180000200984628000023002103F06BF9002399
:10119000079320339B4601270490059100230026E6
:1011A0009C463F2100220023B246049C059D9D429F
:1011B0000BD89D4201D1944207D8049C059D6046FE
:1011C000121BAB415446204384460139C8D320202A
:1011D000404208181AD43E008640039638008840E2
:1011E00082464046564630404E460090039892183C
:1011F0005B413040060000983043D6D0049C059DEA
:101200001000384302009D42DFD8D2E758463E0026
:10121000401AC6400396E1E7079ADB0854031C43D3
:10122000A4B28FE730B50F4D04002B7883B0002BAC
:101230000AD0002908D16878001B431E98411D245C
:101240004042204003B030BD01A912200C7000F0D4
:101250008FF9122000F0A8F9012300206C702B7088
:10126000F0E7C04664010020214B984228D018D8EE
:10127000204B98422CD0204B984207D100200329C4
:1012800003D81E4B08049C46604470471C4B984290
:1012900014D100200329F8D81A4B08049C46604456
:1012A000F3E7194B98421BD0184B984206D1002007
:1012B0000329EAD8164B8900C858E6E70020E4E77E
:1012C00000200329E1D8134B08049C466044DCE766
:1012D00000200329D9D8104B08049C466044D4E769
:1012E00000200329D1D80D4B08049C466044CCE76C
:1012F0000010004200080042000C004202000C00F6
:1013000000040042030004000014004200180042E0
:10131000E858000002001600020010000300280038
:1013200070B586B06B461900084A70CA70C170CAA1
:1013300070C100221968814206D001320433062AA6
:10134000F8D1002006B070BDD0B2FBE7D058000045
:1013500010B5072806D80F4B80001B589F468020E9
:10136000000210BD0020FCE70B4B5868F9E70A4B60
:101370009868F6E7094B0A48597D0907090F0131BA
:1013800002F0E4FFEDE7054B1B7F9B07EAD5024B1C
:101390001868E6E7F85800006801002000100040D7
:1013A000006CDC0203221E2170B5174B84B09A60DA
:1013B000164A53688B435360154B62311A7D0A43BA
:1013C0001A7505225A759C69002CFCD1062601ADC0
:1013D00000F022F8290003202E8002962C8100F0D4
:1013E0002DF8032000F07AF801230A4A290013712E
:1013F00000202E8002932C8100F020F8002000F0C5
:101400006DF804B070BDC0460018004000400041B7
:1014100000100040000800408021064A53690B4339
:1014200053610123044A7F39137013781942FCD1A8
:101430007047C04600080040001C004070B54B7863
:1014400004000D78002B02D08023DB001D434B7A73
:10145000002B02D080231B011D434B68012B10D9A8
:1014600018005A1E104013422ED1022B06D0022221
:10147000013052009342FBD80004054380235B01F6
:101480001D430B7A002B02D080239B011D430426B1
:10149000A6401049104A4B6833401342FBD100F07C
:1014A00051FC0C4B80229C466146A4006444236A94
:1014B000520013402B43084A23624B6833401342C7
:1014C000FBD100F05DFC70BD1B042B438025AD00FB
:1014D0001D43D6E7001C0040FC070000042210B5A5
:1014E0008240040009490A48436813400B42FBD17B
:1014F00000F028FC064BA4009C4680236444226A2A
:101500005B001343236200F03BFC10BDFC070000AE
:10151000001C00400422F8B582400400124E13491A
:10152000736813400B42FBD10834A40000F00AFC9E
:10153000A0594007400FFFF70BFFA559A459ED0430
:10154000ED0F0700240C00F01BFC002D03D001342C
:10155000E7403800F8BD012CFBD93800210002F02B
:10156000F5FE0700F5E7C046001C0040FC07000040
:1015700070B504000E0000F0E5FB0A4B80229C468B
:1015800040218025A4006444A3588B43A350403AD3
:1015900063591A42FCD100F0F3FB0F233278134059
:1015A000635170BD001C004010B5040000F0CAFB80
:1015B000084B80229C464021A000604483580B4386
:1015C00083504031403A43581A42FCD000F0D8FBD7
:1015D00010BDC046001C004010B5040000F0B2FB76
:1015E0002034054BA400E45800F0CAFB2407240F64
:1015F0002000FFF78FFF10BD001C0040D37870B5AE
:10160000002B31D11378802B46D080241B06640236
:101610002343547802252600AE4307D19478002C4A
:101620003CD18024A402234341605478013C012C26
:101630002FD9A0250C04240CED051C432C438462F7
:10164000D0240D0C1D4324062C438462D478002C36
:1016500009D15B0303D59378012B23D041615378E3
:10166000013B012B13D970BD00234160A0250C0460
:10167000240C1C43ED052C4384620C0C1C43D0232A
:101680001B0623438362D378002BECD1E7E781600C
:10169000E9E7054C2340E9E70023BAE7C024E40268
:1016A0002343C1E78161DAE7FFFFFBFF03000A0084
:1016B00059B210B5400900290BDB8221C9058C46BF
:1016C000C00160441F210B401E399940FFF796FF6F
:1016D00010BD0020F6E7C0467047C04610B5FFF7C2
:1016E00061FE00F065FBFFF7F7FFFEF75DFEFFF719
:1016F000F3FF10BD70B586B001AB1900084A70CA7F
:1017000070C130CA30C100221968814206D001324E
:101710000433052AF8D1002006B070BDD0B2FBE733
:1017200020590000F0B5454657464E46DE46E0B526
:101730008FB004AB9846BA4B0F0016001900424612
:1017400005009C4619C919C2002409C909C24246AC
:1017500011688F4200D115E101340432052CF7D114
:10176000002300229B469146AE4A6346116814331B
:101770000291694612790A73424613CB13C213CB06
:1017800013C213CB13C21B6813600023AB60EB6062
:101790002B616B612B835B46A34A9B009D503423D6
:1017A0002F60F35CAB76F378082B00D1DEE00120EC
:1017B0002B713B68184200D0E1E002231900FA7A4D
:1017C00011408A46134200D0CDE03A68134200D05F
:1017D000C9E0337C002B00D0FDE0337F002B00D02C
:1017E000ECE05B464246DB00D35C5A464146D20001
:1017F00004328A58012B00D102E1022B00D1FAE019
:10180000002B00D1F2E0F378082B00D1BEE06A464D
:1018100033786946137008226B469B185A469C5CC5
:101820002000FFF7A5FE2000FFF7BEFEF279F37857
:101830001343B2881343727A002A02D080225202E4
:101840001343B27A002A02D0802292021343F27A22
:10185000002A02D0802252031343327B002A02D096
:101860008022920313437178B2788901D201114327
:101870002A6819431369002BFCD139602A6813695F
:10188000002BFCD1B3793B73717B4B1E9941B37B29
:101890008900002B01D0012319432A681369002B0A
:1018A000FCD1FF333B71002904D02A681369002B57
:1018B000FCD17971337A7B732A681369002BFCD1D0
:1018C0002B79042B0DD0082B3BD0002B25D01723D0
:1018D0009A4650460FB0F0BCBB46B246A946A04659
:1018E000F0BD1369002BFCD12833F35C3B752A68EB
:1018F0001369002BFCD12933F35CFB762A6813694A
:10190000002BFCD12A33F35C3B772A681369002B48
:10191000FCD12B33F35C7B77DBE71369002BFCD125
:10192000338DBB822A681369002BFCD1738DBB8376
:101930002A681369002BFCD1B38DFB8300239A46E0
:10194000C7E71369002BFCD1B36A7B612A6813696E
:10195000002BFCD1F36AFB612A681369002BFCD1D0
:10196000336B3B62B5E71C239A46B2E74A46D2077F
:10197000ADD401202B713B68184200D11DE705232F
:101980009A46A6E7E3B29946A346EDE64B46042BFA
:1019900000D13CE741460133DBB2DA008A5CDB0070
:1019A0000433CB58012A30D0022A33D0002A00D089
:1019B0002DE71E4A51690B43536128E7012300229A
:1019C00001A98B704B70336ACA70726AD8B20A7000
:1019D000FFF76CFE05E7534601A9CB70B369887029
:1019E0004870307D0B70FFF761FEF6E60F494B69DA
:1019F0001A434A6107E70D4BD9690A43DA6102E7E6
:101A00000A498B691A438A61FDE6084A91690B43CA
:101A10009361FCE6054AD1690B43D361F7E6C04602
:101A200020590000185900007401002000080040EF
:101A300002681369002BFCD10079042805D008281E
:101A40000AD0002805D017207047C9B200201175B0
:101A5000FAE789B29182F7E700205161F4E7C046C6
:101A600010B5040002681369002BFCD113712168C2
:101A70000B69002BFCD1803353712368186900284F
:101A8000FCD12279042A04D0082A08D0002A03D0E5
:101A900010BD187DC0B2FBE7988A80B2F8E758699C
:101AA000F6E7C04630B5050004682369002BFCD179
:101AB0002879042819D008280DD0002801D0172033
:101AC00030BD0129FBD8AB7E92B2002B1FD018315C
:101AD00049000A53F4E70129F1D8AB7E002B10D05E
:101AE0000C31890000200A51EAE717200129E7D8C4
:101AF000AB7ED2B26118002B0ED0303100200A70BC
:101B0000DEE706318900641800206260D8E70C31F6
:101B100049006418A280D3E700200A77D0E7C046C6
:101B2000931C9B00C150022A0ED0032A07D0012328
:101B300093401A00037E134303760020704720224F
:101B4000037E13430376F8E71022037E13430376E4
:101B5000F3E7C04670B50126144B8000C4582368D3
:101B6000227E657E9B7A15401D402E4204D0A368DC
:101B70002000984723689E7202262E4204D0E36814
:101B80002000984723689E7210262E4204D02369B5
:101B90002000984723689E7220262E4204D0636955
:101BA0002000984723689E7270BDC04674010020D3
:101BB00010B50020FFF7CEFF10BDC04610B50120C4
:101BC000FFF7C8FF10BDC04610B50220FFF7C2FFE7
:101BD00010BDC04610B50320FFF7BCFF10BDC046C6
:101BE00010B50420FFF7B6FF10BDC046FEE7C046A3
:101BF0001548164910B588420DD0154B99420AD2A6
:101C0000013B5A1A0023920801329200C458CC506A
:101C100004339342FAD10F4B0F4A934209D2032166
:101C2000013AD21A8A43191D5218002102C3934265
:101C3000FCD1FF22094B9343094A936002F040FC18
:101C4000FEF77CFAFEE7C0461C5F000000000020A3
:101C50008000002080000020C01E00200000000046
:101C600000ED00E0F0B5C6460C00904600B5002837
:101C700012D1002A0DDD0A4E0A4D8F18210030685E
:101C80002B6801349847BC42F8D1404680BCB84626
:101C9000F0BD00239846F8E701235B429846F4E73D
:101CA0009001002088010020F0B5C64601380E00E2
:101CB000150000B5022810D80024002A0FD00A4BC6
:101CC0000A4F984602E00134A54208D04346315DF0
:101CD00018683B6898470028F5DA01246442200020
:101CE00080BCB846F0BDC046900100208C010020A9
:101CF000044A03001068002802D0C318136070471C
:101D00000148FAE794010020C03E00200120404233
:101D10007047C04680239B0100204B607047C0463F
:101D20000120704700207047010010B5014802F003
:101D3000FDFBFEE75C5900007047C04601204042B1
:101D40007047C0460B4B1A68002A0BD1EFF3108185
:101D500000290BD172B6BFF35F8F074A1170074A93
:101D6000013111701A6801321A60704703490A7014
:101D7000F8E7C04698010020000000209C010020E8
:101D8000084B1A68013A1A601B68002B09D1064BF0
:101D90001B78002B05D00122044B1A70BFF35F8F14
:101DA00062B67047980100209C01002000000020CE
:101DB00070B50125002682B001AC21003E2065707F
:101DC000A6702570FEF7A6FB8022054BD2059A610E
:101DD00021001C2026706570FEF79CFB02B070BDD0
:101DE0008000004110B50020FFF794FBFA21890024
:101DF000040002F0ABFA064B06491860200002F01E
:101E0000A5FA0522044B1860044B1A6010BDC046A9
:101E10000400002040420F000800002010E000E015
:101E200030B5441E00280ED080210025064B074AFD
:101E300018684902002804D05060956013680B426E
:101E4000FCD0013CF6D230BD0800002010E000E0DC
:101E500030B5441E00280ED080210025064B074ACD
:101E600018684902002804D05060956013680B423E
:101E7000FCD0013CF6D230BD0400002010E000E0B0
:101E800070B5104B04001B78022B16D01F250321C0
:101E9000022001F0E3FC012001F062FC2840082848
:101EA000F5D11F252100022001F0D8FC012001F00E
:101EB00057FC28408442F5D170BD8022024B1202AB
:101EC0005A61E3E7A10300208000004110B50E4CE9
:101ED0001420217801F0C2FC2378002B0DD10820BA
:101EE00001F03EFC1F2301009943084B1878014381
:101EF000C9B2082001F0B2FC10BD044B13201978C0
:101F000001F0ACFCF8E7C0461C0300201D030020D4
:101F100010B501F085FB01F00FFC0023124A0C20E4
:101F20001370124A1F24137001F01AFC0122104B87
:101F30001A700821022001F091FC012001F010FC30
:101F400020400828F5D12E21043801F087FC942187
:101F50000C2001F083FC0321162001F07FFC0021FE
:101F6000052001F07BFC10BDA00300201C03002015
:101F7000A103002010B5094C20700820FFF780FF56
:101F80000F2001F0EDFB2378002B00D110BD1620AF
:101F9000FFF776FF0122024B1A70F7E7A00300203B
:101FA000A103002010B50F4B0F4C18702378022BA3
:101FB00002D0FFF78BFF10BD80220C4B12025A613A
:101FC0000820FFF75DFF0F2001F0CAFB084B1B78CC
:101FD000002B02D101232370EBE71620FFF750FFFF
:101FE000F8E7C0461D030020A10300208000004147
:101FF000A003002010B50400C1B2222001F02EFC85
:102000002320210A01F02AFC10BDC04670B504004F
:10201000C5B229002020240A01F020FC2100212043
:102020002C1901F01BFC2D20E1B201F017FC70BD52
:1020300010B504001920FFF723FF0F2001F090FBDB
:10204000217820008B1C01312370C9B201F032FDD0
:102050000322054B1A708022044B12029A61C0467B
:10206000C0465A6110BDC046A10300208000004157
:10207000F8B5152001F074FB802149420143C9B233
:102080000600152001F0EAFB0620FFF7F9FE002408
:10209000002703250120FFF7C3FE062001F060FBA7
:1020A00040092840A04002340743BFB2102CF1D1B0
:1020B0000820FFF7E5FE0F2001F052FB084B1B78CC
:1020C000002B05D13100152001F0C8FB3800F8BD08
:1020D0001620FFF7D5FE0122024B1A70F2E7C04628
:1020E000A0030020A103002070B50920FFF7C8FE5F
:1020F0000F2001F035FB152001F032FB8021494211
:102100000143C9B20500152001F0A8FB0620FFF726
:10211000B7FEFF21072001F0A1FB10240F2001F0E2
:102120001FFB0442FAD0072001F01AFB040008202C
:10213000FFF7A6FE0F2001F013FB084B1B78002BC6
:1021400005D12900152001F089FB200070BD162063
:10215000FFF796FE0122024B1A70F2E7A00300205F
:10216000A103002070B506002425040008362D1AAE
:1021700060192178C0B2013401F070FBB442F7D18C
:1021800070BDC046F0B5354D83B02B78022B09D019
:102190000F2001F0E5FA030704D52C78012C03D0B9
:1021A000032C36D003B0F0BD2D4E002233001500B5
:1021B0001A78002A04D06A1C5F33032DF7D1FC354E
:1021C0006B460121D81D01F0D1FB6B46D979254F13
:1021D0000231C9B2380001F0C9FB6B46D9796B00F6
:1021E0005B1902315B01CAB25D1B72555D2A08D8CA
:1021F00001237519FA5C0134E4B2EA5423008C42DD
:10220000F8DD1F24012001F0ABFA20401628F9D197
:10221000C8E7022001F0A4FA4409E4B2002C06D079
:10222000032C18D0053C63425C4164000134082053
:10223000FFF726FE0F2001F093FA0B4B1B78002BC3
:1022400005D1012320002B7000F01AFBAAE716200D
:10225000FFF716FEF5E70224E9E7C046A1030020D8
:10226000A001002020030020A003002010B5094B8E
:102270000278094C1A7042785A700A7818882270CD
:102280004A786270FFF7C2FE2088FFF7B3FE012094
:1022900010BDC046C0030020AC030020002310B5D1
:1022A000002802D108781A2801D9180010BD034B64
:1022B0001870FFF777FE0123F7E7C046A30300205D
:1022C00030B583B06C4600906160FFF721FE0E4D83
:1022D0002B0006CC06C3FFF7CBFE04000120FFF75E
:1022E00049FE0A4B68681C70FFF73CFF00225F2123
:1022F000074B01201A705A545F315A541E21FF3186
:102300005A5403B030BDC046A4030020A2030020ED
:10231000A0010020F0B5DE464E4645465746E0B5E2
:10232000ABB0161C150A079234AA06918B46117899
:1023300035AA127805900392369A05AC0492874A22
:10234000F6B2126829920022C2B294468206D20FD7
:102350000192EAB2400700D50126654608202840D0
:10236000454268414042024003256046914605408F
:10237000012D00D1DFE06F426F41F8B20090784844
:102380008046008882466089504500D1C6E0002022
:1023900002900730824650460830002E00D00638A2
:1023A000002A42D00230C2B224206746384020289A
:1023B00002D1009F07430097032D06D101229146C9
:1023C0000022019202920092073209A8521802706C
:1023D000009A25784270019A5701202295432A00DD
:1023E0003A43D5432270AD0700D18CE0002E1FD1B7
:1023F0004E46754275415B4EAD018C358570357822
:102400006F1C3770C570A57A0571E47A4471520764
:1024100020D400225E46B55C84180132A571082ADA
:10242000F9D10F250E2406321AE00830C2B2BBE7FC
:102430004D46002D00D081E0C8258570494E357885
:102440006F1C3770C570A57A0571E47A4471520724
:1024500000D476E0FF22092508248271C271F73A80
:10246000029E002E0AD14646367806554646941CF2
:1024700076780332E4B24655D5B222004E46002E9D
:102480002CD0394E02323778D2B207557478445581
:1024900000290AD01C008918C9B21500267801321B
:1024A000D2B2465501349142F7D1304A1360304BD5
:1024B000049A1A602F4B039A1A70FFF7B9FD274B45
:1024C0001A68299B5A400023002A44D101202BB0CE
:1024D000F0BCBB46B246A946A046F0BD0825264C36
:1024E000AC466468171B3D00A44467469C462B001D
:1024F00026781D19EDB201344655BC42F8D1083298
:102500006346D2B2C4E78022164C82702278551CF2
:102510002570C270052504240422A1E7174FB84294
:1025200000D134E74020009F07433F380290043039
:10253000824600972FE70320009020E788258570CA
:102540007CE75A461278092582715A465278082447
:10255000C271082284E702F05DF9C046AC1E00207B
:10256000AC030020A2030020C0030020B803002019
:10257000B0030020B4030020A4030020FFFF0000EC
:10258000054B1A78032A06D8002153009B185B01DB
:102590009B1A024A995470470C000020A0010020A9
:1025A000F0B54E46DE4657464546FF23E0B5AC48FB
:1025B000AC4E0370320000231178DCB200290AD13E
:1025C00001335F32042BF7D10020F0BCBB46B2468A
:1025D000A946A046F0BD04705800C4186401E21A70
:1025E000B71893467A7894464022654615400022F3
:1025F000A9469D4D2A70EA73BA7892463322544612
:1026000094438C2C00D1A0E026D8802C75D0882C47
:102610003DD1BA79FF2A00D113E180222C785242B1
:1026200022432A700122EA734A46C018002A00D0C9
:10263000CDE04201D21AB018047A407A2C7414000A
:102640000A3434196C600C000C320F3CB2186874F8
:102650002C735800AA6064E0C82C2ED0CC2C26D154
:10266000802252422A704A46002A00D1D2E03A79AA
:102670005C462A747A7916346A745A460E32B21855
:102680006A600A003419193A2A73AC6049E0082CD0
:102690000DD1BA79FF2A00D1DAE00A000A3A2A738A
:1026A000C2185201D21A0832B218AA6039E00022C8
:1026B000C0184001C31AF25486E7BA79FF2A00D144
:1026C000B8E080222C78524222432A704A46C01831
:1026D000002A69D04201D21AB018047940792C74CA
:1026E0001400083434196C600C001032133CB2181A
:1026F00068742C735800AA6013E07C2252422A703E
:102700007D32EA733A795C462A747A7908346A74BD
:102710005A460632B2186A600A0034190B3A2A7314
:10272000AC6008226446674614403A42BFD1072293
:102730003A40012A27D0032A1FD0002A2FD0C018E0
:102740004001C31AF45400203FE7802252422A700D
:102750008132EA734A46002A4CD03A795C462A74A0
:102760007A7910346A745A460D32B2186A600A00D7
:102770003419133A2A73AC60D3E72C7894432200BF
:10278000012422432A70C0184001C31AF3185A18B2
:10279000013A12785B5C0120AA736B7315E703247E
:1027A0002A7822432A70EEE74201D21AB018047A3E
:1027B000407A2C7414000A3434196C600C00123204
:1027C000153CB21868742C735800AA60A9E742013E
:1027D000D21AB018047940792C74140008343419D2
:1027E0006C600C000A320D3CB21868742C735800EF
:1027F000AA6096E77A7B5C462A74BA7B12346A74C4
:102800005A460F32B2186A600A003419153A2A7310
:10281000AC6086E7BA7B5C462A74FA7B18346A742B
:102820005A461032B2186A600A0034191B3A2A73E9
:10283000AC6076E7FA79FF2A00D042E7FB3A2A70CB
:102840003FE7FA79FF2A00D0E7E6FB3A2A70E4E690
:10285000FA79FF2A00D020E7FB3A2A701DE7C0462C
:102860000C000020A001002098040020030010B5F7
:102870000020012B00D010BDFFF736FCFBE7C0465F
:102880000122024B1870024B1A707047BC030020E3
:10289000AE03002010B5FFF775FC094B1B68002B39
:1028A0000CD0084C2278002A08D0074A074908486B
:1028B00012680978007898470023237010BDC0463D
:1028C000B0030020AE030020B8030020BC030020AA
:1028D000B403002010B5100000F03CFD10BDC04650
:1028E00000227F2110B5134B84B01A70124C134B89
:1028F00002AA238013788B4342210B4313701049A3
:102900000298FFF7DDFC0F490B78FF2B02D0002067
:10291000FFF7C4FC6B46981D012321005B42038036
:10292000FFF7A4FC0120084B084A1B781B01137019
:1029300004B010BDB0040020B40400203412000024
:10294000100000200E0000200D000020AD0400202B
:10295000F0B5D6464F4646460500C0B588B010A82B
:102960009A46037811A8067813A8077814A8984601
:1029700003786842684140420340002005AC607221
:102980009C468038AB0018434346DB00184363463F
:102990005B01184301239C46634625725D40AD01EF
:1029A000284313255346A843103D2B401843159B3D
:1029B00061812070110002930598129B079A01977C
:1029C0000096FFF7A7FC08B0E0BCBA46B146A8469F
:1029D000F0BDC04610B50C00002801D0002010BD8D
:1029E0000020FFF75BFC0028F8D02278014B1A701A
:1029F000F5E7C0460E000020F0B5CE46474680B54C
:102A0000394B3A4D99465C68FF23290000229C46C9
:102A100007E06346FF2B00D1B44601320A31142A85
:102A200018D093009B185B00EB181B7AD6B2DB0919
:102A3000EFD00023E05CCF5CB842EED10133082B2D
:102A4000F8D12B4B0120197800290CD0C0BCB94615
:102A5000B046F0BD6346FF2B43D0254B6646197840
:102A600000200029F2D1234B1E70B3009A195200A6
:102A7000944698460023AC446746E25CFA5401331E
:102A8000082BF9D1434680229B195B00EB181C7A76
:102A9000524222431A724A46976801229446BC78F1
:102AA0001440A04664461A7AA243444622431024A6
:102AB0001A72FA785A72104A104B1E701378A34398
:102AC0001370002293009B185B00EB181B7ADB0944
:102AD00001D00131C9B20132142AF3D1084B197067
:102AE000B4E7F120B2E7C046BC040020C4030020D4
:102AF0000D000020AC040020B0040020950400204C
:102B0000B1040020F0B54E464546DE465746E0B5D6
:102B100087B081460D00141E039300D07DE00100B4
:102B2000414801F003FD414801F000FD04ABDE1D0A
:102B30000123AB403E4A01335A433E4F93465F4325
:102B4000FF2200230292D8461A00347001239340DA
:102B50004A4613405B050DD132780132D2B2327051
:102B60001F2AF3D9019807B0F0BCBB46B246A9466C
:102B7000A046F0BD31000020FFF790FB2E4B9A4697
:102B8000002802D052463378137000F0CDFC0025A7
:102B900004000120FFF76AFE2B1C854200D2031CB3
:102BA000DDB200F0C1FC210000F024FD53461A788C
:102BB0003B00002A00D143469842EAD931781F48A9
:102BC00001F0B4FC1E4801F0B1FC0521280001F021
:102BD000BDFBC3B29A46042D0DD91A4B00249B4667
:102BE0005346AA461D0001345846E4B201F09EFC4B
:102BF000A542F8D85546144801F098FC290013481E
:102C000001F094FC029B9D42A6D23278039B019274
:102C1000002B05D01D7002959FE7FF230193A1E7CC
:102C2000019A029599E7C046345A0000505A0000B4
:102C300080BB0000C05D00000E000020685A00004C
:102C4000785A0000805A00001C5900007C5A00008D
:102C5000F0B50E0014001D0083B0002806D0012836
:102C600030D001209847002003B0F0BD6B462D49BD
:102C70005E1D2D4B30700B806B46981D01235B420F
:102C80000380FFF7F3FAE3070AD40120317801311A
:102C9000C9B20B0040000131C9B22042F9D03370F3
:102CA00031000020FFF7FAFA002837D100F03CFC91
:102CB0001E4B186000F038FC1D4B18600020A84720
:102CC0000120D1E71749184B0B806B469F1D01234C
:102CD0005B423B803800FFF7C9FA31003B0000221D
:102CE0002000FFF70FFF6B465E1D307031000020A3
:102CF000FFF7D4FA00280DD10E4801F017FC317807
:102D00000D4801F013FC0D4801F010FC0020A8470D
:102D10000120A9E732780A4B1A70EDE73278084BA8
:102D20001A70C3E7B404002034120000D00400205D
:102D3000D4040020845A00007C5A0000145C000077
:102D40000E0000200323F0B54F464646D64698466F
:102D5000294BC0B59A461726284B8AB099466E442F
:102D6000274D284F307000F0DFFB040000F0DCFB43
:102D7000210000F03FFC2B785A425341214A5B422C
:102D800094463B4063449842F0D9032000F084FA13
:102D9000031E2AD0842202702A7842703278827010
:102DA00052461188852007AA5181494610708438FF
:102DB00010810291002101910331009107980021B7
:102DC000099AFFF7A7FA4346013BDBB29846002B6E
:102DD000C9D1FA204000FFF73BF831000020FFF78F
:102DE0005DFA002801D033782B700AB0E0BCBA46F7
:102DF000B146A846F0BDC046B4040020D528000066
:102E00000E000020C0DDBB00F0B5CE46474680B5C1
:102E10008BB0FFF73FFDAF4C23785B0709D42378D5
:102E20001B07DD0F002B1ADA0BB0C0BCB946B04649
:102E3000F0BD00F079FBA84B196800F0DBFB8023A4
:102E4000DB019842EBD3A54801F070FB0422237804
:102E50009343237023781B07DD0F002BE4DBFFF780
:102E60009FFB0028E0D003229D489E4B01781D70F7
:102E70004E079D4B0A40F70F013A1F7053425A41CB
:102E800053010A07D20FD2003A431343CA09974DA0
:102E90009201134349B22B70002901DA43686B6039
:102EA000038A82686B80837B8189AB732B78AA60ED
:102EB000A9819B0608D513787F33DBB2162B03D884
:102EC0008B499B00CB589F46082223782800134348
:102ED0002370884B1B6898470822237893432370FC
:102EE000FFF74EFB23785B0702D523781B0710D42E
:102EF0002B7B002B06D02378DB0603D423789B069C
:102F000000D491E70822237893432370FFF738FB1E
:102F10008AE70422237893432370E9E723789B060A
:102F2000DED52022237893432370D9E75378002BF2
:102F3000D6D1714B00229C4619006E6803E0013225
:102F40000A31142ACCD0900083185B0063441B7AAA
:102F5000DB09F4D00023F75CB846CF5CB845EED16E
:102F60000133082BF7D1831800225B0063441A72E7
:102F7000B6E75678002E00D194E0012EB0D15F4E16
:102F80003368002B03D006209847002333605C4948
:102F90005C4B0A889A4200D193E0FFF72DFD9FE732
:102FA000594B1B78022B9BD8584B52781B789A426E
:102FB00096D1032000F070F9061E00D134E7972364
:102FC0000370534B1B784370524B1B788370FFF791
:102FD000D7FA514B03220593002001230390049359
:102FE000029601922A781207D20F00926A686988C5
:102FF000FFF7AEFC76E7454B51781B78994200D03D
:103000006EE79078FFF79EFEAB684448997801F030
:103010008DFAFFF7B5FA65E7022000F03DF980462A
:10302000002800D100E792230370334B00219C4617
:1030300018006E6803E001310A3014293BD08F007C
:103040007A1852006244137ADB09F4D00022B35C90
:103050009946835C9945EED10132082AF7D10022C6
:103060007B185B0063441A7243465A70FFF788FA74
:1030700008211F272B787F420B40002107AA3B43E2
:10308000688813706B6811810893234B50810293F9
:10309000022301910093079843466968099AFFF754
:1030A00039F91FE7154F3B68002B00D16FE700206F
:1030B00098473E606BE7FFF763FAF0234246537090
:1030C000D6E76B8807A80B8001235B420380FFF7DC
:1030D000CDF862E7B00400208C040020B05A000054
:1030E0009804002094040020CC040020BC0400209C
:1030F000E45A0000B8040020C4030020900400201B
:10310000B4040020FFFF00000D0000200E0000208E
:10311000AD04002018000020D5280000C85A000087
:10312000F0B5DE464E4645465746E0B58BB06B4699
:10313000D875404B99461B78049300F0F5F93E4B47
:10314000186000F0F1F93D4B4A46C5180023137092
:1031500010223B4E337813433370149A394B1A6064
:103160003378DB0616D503239846374B00279B465A
:10317000364B9A4600F0D8F92900040000F03AFADC
:10318000334B984231D9002F32D0250000273378B5
:10319000DB06EFD44B46049A1A702E4B1F783BE0A7
:1031A0004246013AD2B29046812202705A461278C3
:1031B000852142705246127801258270264A0127E5
:1031C0001278C270254A108807AA11700021508118
:1031D00023481581089101910431029000910798CC
:1031E0000021099AFFF796F82500FFF70DFECEE7BC
:1031F0004346002B18D017236B4419000020FFF71B
:103200004DF8002803D06B46DA7D0F4B1A7005206D
:1032100000F042F8031EC3D138000BB0F0BCBB462F
:10322000B246A946A046F0BD10223378FF3793433B
:103230003370F1E70D000020D0040020C0BDF0FF86
:10324000B0040020900400200E000020AD040020F7
:1032500040420F009504002018000020B404002014
:10326000D5280000032808D8044B054A18700F23FE
:10327000117800010B401843107070470D000020BA
:10328000AD04002003000020002B02D0014A0130D1
:1032900013607047B8040020F8B52B4B0200196882
:1032A00000292FD0002A2BD011000320274F0F31E7
:1032B00081433D6804318D4222D31C68002C1DD00F
:1032C000012600207642237B002B06D0A3688B4288
:1032D00003D3B34201D220001E002468002CF2D197
:1032E00000280BD083685C1A142C1ED80021ED1A1C
:1032F0000173103004003D6001F00FF92000F8BDAB
:103300000024FBE7C02603247601B44610480F4E84
:10331000451EA5432C1D6044001B3060E860012061
:103320001C6028746960A960BCE743189C6004684D
:10333000002C01D0636004681C60012458601C7379
:10334000036081600B00D1E7D8040020DC1C002062
:10335000DC0400201A4B10381B68002B03D12EE030
:103360001B68002B2BD08342FAD1012215499868A3
:103370001A730A6812180A605A68002A0FD0117B63
:1033800000290CD091688C46604490601A68002A2D
:1033900002D0596851601A6859680A605B681A68F7
:1033A000002A0CD0117B002909D0906899688446C6
:1033B0006144996012681A60002A00D05360704717
:1033C000D8040020DC1C002010B50F4A040013783C
:1033D0000133DBB213700D4B1A6801321A601968A1
:1033E0000B4A914206D182228021D2050902D16185
:1033F00000221A602000FEF733FB064B0021C218A2
:103400002000FEF74FFB10BDE01C0020E41C002054
:1034100020A1070010270000064A13780133DBB211
:1034200013701378002B04D1034A13780133DBB2F5
:1034300013707047041D0020051D0020F0B5002307
:10344000C6462F4A00B513702E4A8EB013702E4A0E
:10345000694613702D4A8B8513606A46684613745B
:103460001377342100224254C0210126284C8900C0
:103470008381827301916A46264920000593069351
:10348000089309930A9300930293FEF74BF90222E3
:1034900021492000FEF744FB002220492000FEF7CE
:1034A0003FFB2068FEF726F91F2532001C4F3B5CCE
:1034B0002B409A4013001B4A136090461022637EF3
:1034C000134363761023226853721000FEF712F93B
:1034D0003B5C42461D403300AB4013600122637EDB
:1034E00013432268637656721369002BFCD10221C4
:1034F00013680B4313600EB080BCB846F0BDC046E5
:10350000E01C0020041D0020051D0020081D0020D7
:10351000E81C002000300042C933000019340000CC
:10352000405B000000E100E0F8B5CE46474680B5BC
:10353000EFF3108772B6BFF35F8F0023284D294E3B
:1035400028003370FEF78CFA80B20400002F04D1FB
:1035500001233370BFF35F8F62B6FF231B029842D3
:1035600012D8214B214F98464346214A1B781440DC
:103570001B041C433B7824021B06240A1C43200026
:10358000C0BCB946B046F8BDEFF3108972B6BFF3C0
:103590005F8F00232A683370937ADB07FCD5124BC8
:1035A000124F984642461B780133DBB213701378F2
:1035B000002B03D13B780133DBB23B702800FEF7D0
:1035C0004FFA01232A68240C93724A4680B22404DD
:1035D0000443002AC8D13370BFF35F8F62B6C3E7DC
:1035E000E81C002000000020041D0020051D002014
:1035F000FFFF00FF884200D80138401A7047C046DC
:10360000802210B5044BD2015A61044B1B68002B79
:1036100000D0984710BDC04600280040481D00203B
:103620001123F0B5374A384C85B0002513800126A8
:1036300023806B4601A95E719D711E7111209570EA
:10364000A570FCF767FF237859B25A09002956DBA9
:103650001F2731003B4099400B008221C9058C4651
:10366000D20162449361C023284C9B03E360284B42
:103670002000236124230C2200211830E5542670F9
:103680006560A560257500F048FF80235B02E3605C
:10369000204B2575A361204B204DA36201235B4283
:1036A000E3621F4B220023631E4B1F492800636304
:1036B000FCF740FF2C682000FDF7A4FC0740BE404B
:1036C0001A4B1E602A68D369002BFCD102222368A2
:1036D00001A813432360FCF79FFE2E230193B82318
:1036E0009B030293124B01A90E200393FCF79CFE4F
:1036F00000220E210F48FCF7D7FE05B0F0BDAD61EA
:10370000FFDEC0468C1D0020881D00200C1D0020FF
:103710000000010100093D00020010004C1D0020C6
:1037200002001200020013000008004200E100E065
:10373000020000010136000070B580238025A5201D
:10374000064C6D011B02A56140006361FEF768FB3A
:1037500065610A20FEF764FBA56170BD8000004131
:10376000F0B5C64600B5EFF3108772B6BFF35F8FB2
:103770000023364E364C374D3370803318432900C2
:10378000804601222000FCF7E9FF012123681A7E10
:103790001142FCD01A7E114201D042469A620221A7
:1037A0001A7E1142FCD004211A7E1142FCD01A7EEE
:1037B000114209D05A8B520739D4A279012A3ED03E
:1037C0009A6A2549D2B20A8001211A7E1142FCD0A0
:1037D0001A7E114201D000229A6202211A7E114201
:1037E000FCD004211A7E1142FCD008001A7E104041
:1037F0008046114205D05A8B520712D49B6ADBB225
:103800009846002229002000FCF7A8FF002F04D1D1
:1038100001233370BFF35F8F62B6404680BCB84669
:10382000F0BD04215A8B0A4392B25A83E6E7042181
:103830005A8B0A4392B25A83A279012AC0D19A6A5A
:103840000549D205D20D0A80BEE7C046000000201F
:103850004C1D0020881D0020441D0020F8B547465F
:10386000CE46884680B5EFF3108772B6BFF35F8F00
:1038700000233A4E3A4C3B4D3370C0331843290075
:10388000814601222000FCF769FF012123681A7E8E
:103890001142FCD01A7E114201D04A469A6202219E
:1038A0001A7E1142FCD004211A7E1142FCD01A7EED
:1038B000114209D05A8B520742D4A279012A47D02B
:1038C0009A6A2949D2B20A8001211A7E1142FCD09B
:1038D0001A7E114201D042469A6202211A7E11429A
:1038E000FCD004211A7E1142FCD01A7E114209D06C
:1038F0005A8B520716D4A2799B6A012A1BD01A4A06
:10390000DBB21380002229002000FCF727FF002FE4
:1039100004D101233370BFF35F8F62B6C0BCB946D8
:10392000B046F8BD04215A8B0A4392B25A83A27959
:103930009B6A012AE3D10C4ADB05DB0D1380E1E72A
:1039400004215A8B0A4392B25A83A279012AB7D131
:103950009A6A0549D205D20D0A80B5E70000002019
:103960004C1D0020881D0020441D0020F8B557463E
:103970004E46DE464546E0B506000F00EFF31089DF
:1039800072B6BFF35F8F0023464A4749137047481A
:103990000122FCF7E3FE0121444B1B681A7E114211
:1039A000FCD01A7E114201D020229A6202211A7E96
:1039B0001142FCD004211A7E1142FCD01A7E114221
:1039C0000AD05A8B52075DD4384A9279012A62D0C4
:1039D0009A6A3749D2B20A80002F3CD02022904602
:1039E0000022924604220120022404219346F71962
:1039F000FFB21A7E1042FCD01A7E104201D052460D
:103A00009A621A7E1442FCD01A7E1142FCD01A7EB1
:103A1000114234D05A8B114204D05D465A8B2A434E
:103A200092B25A83214A9279012A0AD09A6AD3B271
:103A3000984633700136F3B29F420CD01B4B1B6883
:103A4000D7E79B6ADB05DB0D9846DBB233700136A6
:103A5000F3B29F42F2D1002213491448FCF77EFED4
:103A60004B46002B05D10F4A01331370BFF35F8F14
:103A700062B6F0BCBB46B246A946A046F8BD434676
:103A8000DBB2D6E704215A8B0A4392B25A83074A23
:103A90009279012A9CD19A6A0549D205D20D0A80F1
:103AA0009AE7C04600000020881D00204C1D002021
:103AB000441D0020F8B54E46DE46574645460C00EC
:103AC000E0B50600EFF3108872B6BFF35F8F0023F6
:103AD000424A43481370434B012219009A46FCF7AF
:103AE0003DFE01213E4B1B681A7E1142FCD01A7E1E
:103AF000114201D060229A6202211A7E1142FCD04A
:103B000004211A7E1142FCD01A7E11420AD05A8B2F
:103B1000520754D4324A9279012A59D09A6A3249CA
:103B2000D2B20A80671EFFB2002C2ED02C4A012090
:103B3000927902249146042293462B4A042194460A
:103B40001A7E1042FCD01A7E104201D032789A625E
:103B50001A7E1442FCD01A7E1142FCD01A7E114209
:103B60000ED05A8B114204D05D465A8B2A4392B232
:103B70005A834A46012A1CD065469A6AD2B22A80E4
:103B8000013FFFB20136FF2FDAD10022514614481F
:103B9000FCF7E4FD4346002B05D1104A01331370B6
:103BA000BFF35F8F62B6F0BCBB46B246A946A046E3
:103BB000F8BD65469A6AD205D20D2A80E0E7042155
:103BC0005A8B0A4392B25A83054A9279012AA5D1A7
:103BD0009A6A0549D205D20D0A80A3E700000020A9
:103BE0004C1D0020881D0020441D002030B583B0EE
:103BF00000236A4604000D00D3806B462000991D07
:103C0000FDF7D0F80028F8D16B46DB882B7003B0A5
:103C100030BDC04670B505000C0021002800FDF73E
:103C2000ABF80028F9D170BD982230B5520393B09B
:103C3000002306926A466846938400212622815416
:103C40008022D2050092FF220292C42292030392A4
:103C5000012252420E920F921E4A1F4C10921F4A8E
:103C600003821192E12252020A9202228386059374
:103C70000793089301930C93194BFF321C600B922E
:103C8000184B194A19491A60194B1A4A20001A6030
:103C90006A46FCF7E1FE184D00212B68986800F099
:103CA000DBFC2B680021586800F0D6FC2568280052
:103CB000FDF7A8F91F2318401E3B83400F4A1360ED
:103CC0002268D369002BFCD102222B6813432B609E
:103CD00013B030BD03002A00901D002003002B000C
:103CE000900100208C010020153C000000140042CF
:103CF00088010020ED3B00001C00002000E100E0F6
:103D0000F8B50E4B05009C685E69DF6900290AD092
:103D10000022E1B23800FDF7C5FE2A003800F1B2FA
:103D2000FDF7C0FEF8BDF1B200223800FDF7BAFE83
:103D30002A003800E1B2FDF7B5FEF3E7C41D00200C
:103D40000B4B9969CAB2530909060ED48221C905E1
:103D50008C46DB0163441F21114001228A40002868
:103D600001D09A6170475A61FCE70023F3E7C0462F
:103D7000C41D0020F8B50E4B05009C685E69DF6924
:103D800000290AD00022E1B23800FDF78BFE2A009C
:103D90003800F1B2FDF786FEF8BDF1B2002238001E
:103DA000FDF780FE2A003800E1B2FDF77BFEF3E765
:103DB000E81D00200B4B9969CAB2530909060ED4BD
:103DC0008221C9058C46DB0163441F211140012279
:103DD0008A40002801D09A6170475A61FCE70023AD
:103DE000F3E7C046E81D002084B070B58EB06E4683
:103DF00034251492002272558025ED04009580250B
:103E0000AD0201950025B573FF25199C159302920B
:103E1000B281B28508930132169B129013913274CD
:103E200005900691327720006A461A992D020A956C
:103E30000993FDF777FC22681369002BFCD102215E
:103E400013680B4313600EB070BC08BC04B0184775
:103E50003021042230B5124C3123E16011496260F7
:103E600021621B2122610022A1610F4989B01B2020
:103E70002360E161303B07A94B708A700B70A3602F
:103E80006261FCF747FB23006A46103323CB23C251
:103E900003CB03C20FCCFFF7A7FF09B030BDC0466C
:103EA000C41D002000380042281E00200E210422DC
:103EB00030B5124C0F23E1601149626021623F214D
:103EC00022610022A1610F4989B03F202360E16196
:103ED0000E3B07A94B708A700B70A3606261FCF700
:103EE00019FB23006A46103323CB23C203CB03C242
:103EF0000FCCFFF779FF09B030BDC046E81D0020A8
:103F0000004000420C1E002030B50A4B04001A7815
:103F1000032A0CD8501C187053009B188022064DA1
:103F20009B00E8185200EA524460816030BD0020D6
:103F3000FCE7C046741E0020441E0020017070473C
:103F40004170704710B50400417863680078984765
:103F50000120A368984710BD10B5836800209847DA
:103F600010BDC04610B50400224800F0DFFA0D2C49
:103F70003BD8214BA4001B599F46204800F0D6FA9D
:103F800010BD1F4800F0D2FAFAE71E4800F0CEFA42
:103F9000F6E71D4800F0CAFAF2E71C4800F0C6FA3E
:103FA000EEE71B4800F0C2FAEAE71A4800F0BEFA52
:103FB000E6E7194800F0BAFAE2E7184800F0B6FA66
:103FC000DEE7174800F0B2FADAE7164800F0AEFA7A
:103FD000D6E7154800F0AAFAD2E7144800F0A6FA8E
:103FE000CEE7134800F0A2FACAE7124800F09EFAA2
:103FF000C6E7C046485B0000845C0000405C0000EF
:10400000505C0000685B0000745B0000805B000097
:104010009C5B0000A85B0000B85B0000D05B000068
:10402000E45B0000F05B0000045C0000185C000032
:10403000305C0000645C000030B5100083B00C0000
:10404000FFF720F900282BD0264800F06FFA264809
:1040500000F06CFA00210020FEF742FC234800F03B
:1040600065FA234D00202900FEF7B4FC002830D06B
:10407000204800F05BFA0020FFF7F4F8002C13D082
:104080001D4800F053FA1D4800F050FA01222B7829
:104090000A219A4000201A4BFEF7DAFD03B030BD2A
:1040A000184800F043FAD2E7174800F03FFA1748E3
:1040B00000F03CFA124B00212878002200930023E4
:1040C000FFF72EF80100FF2808D0114800F02EFA63
:1040D000E4E729780F4800F029FAC9E70E4800F014
:1040E00025FADBE7BC5C0000105D0000205D0000ED
:1040F00019000020545D00006C5D0000885D000028
:10410000653F0000E05C0000945D0000A85D0000D9
:10411000DC5D0000385D0000BC5D000010B5FEF7FE
:1041200073FE10BD064A1378002B07D10121054804
:104130001170036043608360037370470020FCE7E5
:10414000851E0020781E0020C0797047007A7047D5
:1041500080787047C078704710B50B7804004371C1
:104160004B7886B0C3718B780370CB788370012352
:104170000A791A4082710A7952081A4002720A7941
:1041800092081A4042700A79D2081A40C2704A79DD
:104190001A4042724A7952081A4002714A799208CA
:1041A0001A4082724A79D2081340C3720A4800F05A
:1041B000BDF9E078E3790490A078A2790390607863
:1041C0006179029020780190207A0090034800F0F5
:1041D000ADF906B010BDC046F45D0000045E0000FD
:1041E0000122034B1A708022024BD2059A6170475C
:1041F000A41E00208000004110B58EB000236A4646
:1042000069466846137413778B8500223421425423
:1042100031390091C0210D4C8900827301916A46A9
:1042200083810B49200005930693089309930A9311
:104230000293FDF777FA22681369002BFCD1022163
:1042400013680B4313600EB010BDC046881E0020DB
:104250000034004210B50C4C00220C492000FDF740
:104260005FFC2068FDF746FA094B1A5C1F231340D8
:10427000012211009940074B19600121637E0B4315
:10428000637623685A7210BD881E0020E141000049
:10429000285E000000E100E08022064BD20510B548
:1042A0005A610022044B002104481A70FDF7C0FB3C
:1042B00010BDC04680000041A41E0020881E0020C2
:1042C00010B582B06A460123002401A9132053715E
:1042D00094711371FCF71EF901A91220FCF71AF969
:1042E00001A91120FCF716F901A92C20FCF712F9FD
:1042F00001A92F20FCF70EF982238022DB0512038F
:104300009A618022D2029A61802292029A6180226E
:10431000064B52019A61802212029A616B4610206C
:1043200001A91C71FCF7F6F802B010BD8000004135
:10433000802305495B0010B50B8000231C208B7087
:10434000FCF7E8F810BDC046A81E00200022430874
:104350008B4274D303098B425FD3030A8B4244D34D
:10436000030B8B4228D3030C8B420DD3FF2209028F
:1043700012BA030C8B4202D31212090265D0030B4E
:104380008B4219D300E0090AC30B8B4201D3CB0344
:10439000C01A5241830B8B4201D38B03C01A524186
:1043A000430B8B4201D34B03C01A5241030B8B4288
:1043B00001D30B03C01A5241C30A8B4201D3CB0273
:1043C000C01A5241830A8B4201D38B02C01A524158
:1043D000430A8B4201D34B02C01A5241030A8B425B
:1043E00001D30B02C01A5241CDD2C3098B4201D373
:1043F000CB01C01A524183098B4201D38B01C01AF1
:10440000524143098B4201D34B01C01A5241030967
:104410008B4201D30B01C01A5241C3088B4201D316
:10442000CB00C01A524183088B4201D38B00C01AC3
:10443000524143088B4201D34B00C01A5241411AEA
:1044400000D20146524110467047FFE701B50020F7
:1044500000F006F802BDC0460029F7D076E77047A5
:104460007047C046F0B5CE46474680B5070099462E
:104470003B0C9C4613041B0C1D000E0061460004FF
:10448000140C000C45434B4360436143C0182C0C93
:1044900020188C46834203D980235B029846C4448B
:1044A000494679437243030C63442D042D0CC9180B
:1044B000000440198918C0BCB946B046F0BDC046DA
:1044C00070B500260C4D0D4C641BA410A64209D1FA
:1044D000002601F011FD0A4D0A4C641BA410A642EF
:1044E00005D170BDB300EB5898470136EEE7B30035
:1044F000EB5898470136F2E7045F0000045F0000C4
:10450000045F00000C5F0000002310B59A4200D148
:1045100010BDCC5CC4540133F8E703008218934209
:1045200000D1704719700133F9E700000FB40B4B4D
:1045300013B51C68002C05D0A369002B02D1200004
:1045400000F0A4FB05AB2000049AA168019300F0E1
:10455000C1FD16BC08BC04B01847C0461C000020B2
:1045600070B505000E00002804D08369002B01D12E
:1045700000F08CFBAB69AC68002B02D1280000F086
:1045800085FB2D4B9C4222D16C68636EDB0705D402
:10459000A3899B0502D4A06D00F019FCA3891B0719
:1045A00002D52369002B29D12100280000F0C8F989
:1045B000002823D001256D42636EDB0705D4A38953
:1045C0009B0502D4A06D00F003FC280070BD1B4BBE
:1045D0009C4201D1AC68D8E7194B9C42D5D1EC681C
:1045E000D3E70136A360002B04DAA2699A4216DCF5
:1045F0000A2914D023685A1C22601970A3683178E4
:10460000013B0029EDD1A360002B0FDA2800220026
:104610000A3100F02BF90A25431CCDD1CAE722004C
:10462000280000F023F9431CE8D1C3E70A252368DA
:104630005A1C22601D70BFE7845E0000A45E00006B
:10464000645E000010B5034B01001868FFF788FF97
:1046500010BDC0461C0000204A424A41802310B5CC
:104660005200DB0000F002F810BD0000F0B51D00A4
:104670005D4B85B01E6804000F000092002E05D02F
:10468000B369002B02D1300000F000FB574B9C4275
:1046900061D17468009B022B05D0012B00D99DE0ED
:1046A000002D00DA9AE0636EDB0705D4A3899B0531
:1046B00002D4A06D00F08BFB2100300000F044FA22
:1046C000616B002908D023004433994202D03000A6
:1046D00000F0F6FB002363630023A3616360A389FA
:1046E0001B0603D53000216900F0EAFBA389404A8C
:1046F0001340A381009B022B00D169E003AB210092
:10470000300002AA00F066FBA3890343A381002DB9
:104710002BD1029D280000F0C9FB071E53D1029B3C
:104720000193AB4249D101256D420223A289616EFA
:1047300013430022A260220047322260226101223C
:104740001BB2A3816261114234D19B0532D4A06DAA
:1047500000F03EFB2EE0274B9C4201D1B46899E764
:10476000254B9C4296D1F46894E7002FD2D0B369D0
:10477000002B02D1300000F089FA009B012B02D1FE
:10478000A2891343A381A28908231100276027610E
:10479000656119401A421FD0D3071BD500236D4213
:1047A000A360A561616E01230D001D40194218D15F
:1047B0009305CCD5280005B0F0BD019800F076FB3C
:1047C000019D071EAFD08023A2891343A381CEE7AA
:1047D0000025AAE7A560E5E7A160E3E701256D42B2
:1047E000E8E70025E6E7C0461C000020845E0000E4
:1047F0005CF3FFFFA45E0000645E0000034B1A68D8
:10480000002A01D1024A1A607047C046AC1E00203F
:1048100000000AFF00B58DB02D2209496846FFF758
:1048200073FE684600F00EF869460200022000F0B0
:1048300011F8062000F046FF7F20FDF775FAC0460C
:10484000345E00000023C25C0133002AFBD1581EF5
:104850007047000010B513000A000100024800680C
:1048600000F05AF810BDC0461C000020F8B5050045
:104870000E001400002804D08369002B01D100F041
:1048800005FA224B9C422ED16C68A369A360A389D0
:104890001B0732D52369002B2FD023682269F7B27A
:1048A000981A6369F6B2834205DC2100280000F003
:1048B0004BF9002827D1A3680130013BA36023688E
:1048C0005A1C22601F706369834204D0A389DB07EE
:1048D00007D50A2E05D12100280000F035F900285F
:1048E00011D13000F8BD0A4B9C4201D1AC68CCE735
:1048F000084B9C42C9D1EC68C7E72100280000F0B2
:104900001FF80028C9D001267642EAE7845E00003D
:10491000A45E0000645E000070B504000800110091
:104920001A000023054D2B60FDF7BEF9431C03D18F
:104930002B68002B00D0236070BDC046BC1E002039
:10494000374B70B51D6806000C00002D05D0AB6913
:10495000002B02D1280000F099F9324B9C420FD174
:104960006C680C23E25E93B211072DD4D90611D4E2
:1049700009230120336037331343A381404270BDC4
:10498000294B9C4201D1AC68EBE7284B9C42E8D113
:10499000EC68E6E75B0713D5616B002908D02300BC
:1049A0004433994202D0300000F08AFA0023636356
:1049B0002422A3899343A381002363602369236096
:1049C0000823A2891343A3812369002B0BD1A021C3
:1049D0008022A389890092000B40934203D02100DA
:1049E000300000F01FFA0C22A35E01201A0099B2D9
:1049F000024003420FD00022A26062695242A261CB
:104A0000002022698242BAD10A06B8D54022134357
:104A1000A3810138B3E7880700D46269A260EFE799
:104A20001C000020845E0000A45E0000645E0000A4
:104A3000F7B58B8905000C001A075FD44A68002A75
:104A400004DC0A6C002A01DC0020FEBDE76A002FAE
:104A5000FAD0002280212E682A601A0049010A40FB
:104A60000B4234D0606DA3895B0706D56368C01A1A
:104A7000636B002B01D0236CC01A0200216A002353
:104A80002800E76AB847A189431C06D12B681D2B73
:104A900031D82C4ADA40D3072DD50023636023692F
:104AA0002360CB0405D5431C02D12B68002B00D119
:104AB0006065616B2E600029C6D0230044339942A3
:104AC00002D0280000F0FCF900206063BDE701235C
:104AD0002800216AB847431CC5D12B68002BC2D0DF
:104AE0001D2B01D0162B01D12E60ADE74023A289EA
:104AF0001343A381A9E740230B43FAE70F69002F73
:104B0000A2D00A680F60D21B019200229B0700D13D
:104B10004A69A260019B002B00DC95E73A0028005F
:104B2000019B216AA66AB047002806DC40230120C9
:104B3000A28940421343A38187E7019B3F181B1AB8
:104B40000193E7E7010040200B6970B505000C00F8
:104B5000002B02D10025280070BD002804D08369F5
:104B6000002B01D100F092F8144B9C421BD16C68D1
:104B70000C22A35E002BEDD0626ED20704D49B05FD
:104B800002D4A06D00F023F928002100FFF750FFA8
:104B9000636E0500DB07DED4A3899B05DBD4A06D23
:104BA00000F016F9D7E7064B9C4201D1AC68DFE76D
:104BB000044B9C42DCD1EC68DAE7C046845E00001E
:104BC000A45E0000645E0000002310B504000360D2
:104BD00043608360818143661900C2810361436140
:104BE000836108225C30FFF798FC054B2462636206
:104BF000044BA362044BE362044B236310BDC04625
:104C0000055700002D570000655700009157000020
:104C100010B5024900F0BAF810BDC046494B00007B
:104C200070B568254A1E55430E002900743100F006
:104C3000B3F9041E08D000212A00016046600C3040
:104C4000A0606832FFF769FC200070BD10B5024813
:104C500000F0BDF810BDC046B11E002010B50248DE
:104C600000F0B6F810BDC046B11E002010B50248D5
:104C700000F0ADF810BDC046B21E002010B50248CD
:104C800000F0A6F810BDC046B21E002013B5040007
:104C9000FFF7ECFFA369002B02D0FFF7EFFF13BD76
:104CA000A364E3642365134B134A1B68A262019358
:104CB000A34201D10123A361200000F01FF860602E
:104CC000200000F01BF8A060200000F017F8002280
:104CD0000421E0606068FFF777FF01220921A068E6
:104CE000FFF772FF02221221E068FFF76DFF012338
:104CF000A361D2E7305E0000114C0000F8B5070058
:104D0000FFF7A4FF1F4B1E68B369002B02D13000D0
:104D1000FFF7BCFF4836B4687368013B04D53368BD
:104D2000002B22D03668F6E70C22A55E002D1AD1A2
:104D30002000154B5830E360656600F047F8FFF738
:104D40008DFF2000082229002560A560656025618F
:104D50006561A5615C30FFF7E0FB6563A563A56451
:104D6000E5642000F8BD6834D7E704213800FFF778
:104D700057FF041E3060D5D1FFF770FF0C233B6056
:104D8000EFE7C046305E00000100FFFFF7B504000A
:104D900006000027019148346368A5680093009BD2
:104DA000013B009304D52468002CF5D13800FEBDEA
:104DB000AB89012B08D90E22AB5E013304D0290048
:104DC0003000019B984707436835E8E77047704714
:104DD0007047000070B50E001D000E23C95E140060
:104DE00096B0002908DA0C22B35E00222A601B0666
:104DF00011D48023DB000FE06A4600F0E1FC0028BC
:104E0000F1DBF02301991B021940054BC9184B42F5
:104E100059412960EDE740230020236016B070BDA2
:104E200000E0FFFFF7B502268B8905000C00334236
:104E300006D0230047332360236101236361F7BD5C
:104E40006A4601ABFFF7C6FF00990700280000F093
:104E5000A3F8002808D10C22A35E9A05EFD4032200
:104E600093431E43A681E4E70F4BAB628023A289E4
:104E700020601343A381009B20616361019B002B91
:104E80000DD028000E23E15E00F0ACFC002806D017
:104E90000322A38993431A0001231343A381A0890A
:104EA0000743A781CBE7C046114C000010B5034B68
:104EB0000100186800F070F810BDC0461C0000200A
:104EC00070B50500002910D00C1F2368002B00DAF4
:104ED000E418280000F0B8FC1D4A1368002B05D127
:104EE00063601460280000F0B7FC70BDA34208D9CD
:104EF000216860188342F3D118685B68411821600B
:104F0000EEE71A005B68002B01D0A342F9D91168C3
:104F10005018A0420BD12068091850181160834224
:104F2000E0D118685B68411811605360DAE7A0426D
:104F300002D90C232B60D5E721686018834203D186
:104F400018685B684118216063605460CAE7C04616
:104F5000B41E002070B50F4E0D003168040000290A
:104F600002D100F073FB30602900200000F06EFBDE
:104F7000431C0AD00323C51C9D43A84207D0291A0D
:104F8000200000F063FB431C01D101256D42280085
:104F900070BDC046B81E0020F7B50322CB1C93435A
:104FA000083306001F000C2B32D20C27B94231D82F
:104FB000300000F049FC324D2B681C00002C2ED133
:104FC00039003000FFF7C6FF0400431C1ED12C68D7
:104FD0002500002D4AD123682900E31830000193F1
:104FE00000F034FB019B834243D123680337FF1A4F
:104FF00003239F4308370C2F00D20C2739003000C1
:10500000FFF7A8FF431C34D02368DF19276013E0A3
:10501000002BCBDA0C23002533602800FEBD22686C
:10502000D11B20D40B2917D9E2192760A34211D133
:105030002A606368116053603000250000F00CFCAA
:1050400007220B35231D9543EA1A9D42E5D05B1BD1
:10505000A350E2E75A60ECE76268A34201D12A60FC
:10506000EAE75A60E8E723006468A7E72C006D6868
:10507000AFE70C233000336000F0EEFBCDE7C04615
:10508000B41E0020936810B5013B9360002B04DA36
:105090009469A34207DB0A2905D01368581C1060E5
:1050A0001970080010BDFFF7E1FB0100F9E7F8B542
:1050B00006000F001400D518AC4201D1002007E013
:1050C00021783A003000FFF7DDFF0134431CF3D1B3
:1050D000F8BD0000F0B5A1B006000C001F0003925F
:1050E000002804D08369002B01D1FFF7CFFD8E4B40
:1050F0009C421CD17468636EDB0705D4A3899B05B1
:1051000002D4A06DFFF763FEA3891B0702D52369B4
:10511000002B1DD121003000FFF712FC002817D012
:10512000636EDB070DD50120404221B0F0BD7F4BFF
:105130009C4201D1B468DEE77D4B9C42DBD1F46830
:10514000D9E7A3899B05EED4A06DFFF741FEEAE7FE
:10515000002308AD6B6120336B761033AB76079775
:10516000039F3B78002B01D0252B4ED1039BFB1ACC
:105170000593039B9F420DD0059B21003000039AAD
:10518000FFF795FF431C00D1B5E06A69059B944683
:1051900063446B613B78002B00D1ACE001227B1CA7
:1051A0000393002352426A6004A9543252182B60C0
:1051B000EB60AB601370AB65039B052219785D480B
:1051C00000F036FB039B5F1C002820D12A68D30621
:1051D00004D5532304A95B1820211970130704D5A3
:1051E000532304A95B182B211970039B1B782A2BCE
:1051F00016D00021EB68039F3A78781C303A844639
:10520000092A4FD9002911D117E00137A9E7494BE5
:105210002A68C01A0123834013432B600397CBE70E
:10522000079B191D1B680791002B01DB0B9304E002
:105230005B42EB60022313432B603B782E2B0AD199
:105240007B782A2B37D1079B02371A1D1B680792E0
:10525000002B2DDB099303223978374800F0E8FA58
:10526000002807D0344B2A68C01A402383401343D8
:1052700001372B6039787B1C06223048039329764E
:1052800000F0D6FA002845D02D4B002B27D107225D
:10529000079B07339343083307936B69049A9B1862
:1052A0006B615DE70A214B4367469B180939A3E709
:1052B00001235B42CEE700231A0001376B60397887
:1052C000781C30398446092903D9002BC3D00992B0
:1052D000C1E70A235A4367465218093BEFE707AB79
:1052E0000093220029003000164B00E000BF04901C
:1052F000049B0133D1D1636EDB0705D4A3899B05E1
:1053000002D4A06DFFF764FDA3895B0600D50AE710
:105310000D980AE707AB0093220029003000094BE3
:1053200000F082F8E3E7C046845E0000A45E00005F
:10533000645E0000C45E0000CA5E0000CE5E000035
:1053400000000000AF500000F7B5150001938A6817
:105350000B690C000090934200DA130022002B60CE
:1053600043321278002A01D001332B6023689B0658
:1053700002D52B6802332B602268062317001F40DA
:105380001A4227D0230043331B785A1E93412268C8
:10539000920630D4220001990098089E4332B0470B
:1053A000431C25D0062320682A68E16800250340B5
:1053B000042B03D18D1AEB43DB171D40A368226930
:1053C000934201DD9B1AED180027BD4220D1002039
:1053D00010E00137E3682A689B1ABB42D2DD220045
:1053E000012301990098089E1932B047431CF0D15F
:1053F00001204042FEBD3020E118433108702100F9
:105400005A1C45310978A218433202331170C1E7A2
:105410002200012301990098089E1A32B047431CCC
:10542000E6D00137D1E70000F0B58BB006920A0054
:1054300043320793059004920A7E0C00109B782A51
:1054400007D8622A09D8002A00D1C1E0582A00D121
:105450008CE026004236327022E0100063381528B6
:10546000F7D800F015FA16001F00F6FFF6FFF6FF5A
:10547000F6FF1F00F6FFF6FFF6FFF6FFA800360066
:105480009A00F6FFF6FFB900F6FF3600F6FFF6FFCA
:105490009E0026001A684236111D19601368337089
:1054A0000123A7E0086819680A1D05060BD50D68D9
:1054B0001A60002D03DA2D23049A6D421370614B9C
:1054C0000A2703931BE00D681A604106F1D52DB23F
:1054D000EFE70D681968081D18602E0601D50D68E4
:1054E00003E06D06FBD50D68ADB2564B082703935C
:1054F0006F2A00D002372300002243331A706368FA
:10550000A360002B03DB0422216891432160002D5E
:1055100002D1049E002B0CD0049E28003900FEF717
:105520009BFF039B013E5B5C33702B0005009F4299
:10553000F3D9082F09D12368DB0706D563682269F0
:10554000934202DC3023013E3370049B9B1B23619A
:10555000079B210000930598069B09AAFFF7F4FE1C
:10556000431C4CD1012040420BB0F0BD45310A70C4
:10557000344A03921A68216820CA1A60080616D5B0
:10558000CB0702D52023194321601027002DB2D16B
:10559000202322689A432260ADE7202209680A434B
:1055A00022602200782145321170274AE1E748063F
:1055B000E6D5ADB2E4E71A680D68101D49691860B8
:1055C00013682E0601D5196002E06D06FBD519801F
:1055D0000023049E2361BBE71A68111D1960166839
:1055E00000213000626800F023F9002801D0801B00
:1055F0006060636823610023049A1370A8E723693D
:10560000320006990598079DA847431CAAD0236835
:105610009B0715D4099BE0689842A5DA1800A3E718
:105620002200012306990598079E1932B047431CB2
:1056300098D00135E368099A9B1AAB42F0DCE9E7A0
:105640000025F7E7D55E0000E65E0000002370B598
:10565000064D040008002B60FCF74AFB431C03D1F5
:105660002B68002B00D0236070BDC046BC1E0020FC
:1056700070B504000D001F2904D916230360012012
:10568000404270BD436C002B04D08A009B181A68FE
:10569000002A08D1200000F031F82A000100200083
:1056A00000F01AF8EDE70020012AEAD0511C03D1DE
:1056B000162301302360E4E7002428001C60904793
:1056C0002000DEE710B5034B01001868FFF7D0FF9C
:1056D00010BDC0461C000020002370B5064D04001C
:1056E000080011002B60FCF727FB431C03D12B683B
:1056F000002B00D0236070BDBC1E002010B5FCF74D
:105700001DFB10BD70B50C000E25495F00F0ACF814
:10571000002803DB636D1B18636570BDA389024A13
:105720001340A381F9E7C046FFEFFFFFF8B51F0064
:105730008B8905000C001600DB0505D50E23C95E1C
:105740000022022300F060F8A389054A28001340D4
:10575000A38132000E23E15E3B00FFF7DDF8F8BDC8
:10576000FFEFFFFF70B50C000E25495F00F04CF80D
:10577000A389421C03D1054A1340A38170BD802236
:1057800052011343A3816065F8E7C046FFEFFFFFB6
:1057900010B50E23C95E00F001F810BD002370B5EE
:1057A000064D040008002B60FCF7B0FA431C03D13F
:1057B0002B68002B00D0236070BDC046BC1E0020AB
:1057C000002370B5064D0400080011002B60FCF7A3
:1057D000A1FA431C03D12B68002B00D0236070BDBD
:1057E000BC1E0020002370B5064D040008002B608D
:1057F000FCF796FA431C03D12B68002B00D02360E2
:1058000070BDC046BC1E002070B504000800110029
:105810001A000023054D2B60FCF784FA431C03D1CA
:105820002B68002B00D0236070BDC046BC1E00203A
:10583000C9B28218904201D10020704703788B4290
:10584000FBD00130F6E7000010B50248FFF7BFFAC1
:1058500010BDC046B01E002010B50248FFF7B8FAD0
:1058600010BDC046B01E002070B504000800110035
:105870001A000023054D2B60FCF7F4F9431C03D1FB
:105880002B68002B00D0236070BDC046BC1E0020DA
:1058900003B47146490840004900095E49008E443E
:1058A00003BC704743323120323132422052432010
:1058B0004361720D0A0000004164647265737320D5
:1058C0003D2025750A0A0D00090A0B0C0D0E00007B
:1058D0000004004200080042000C00420010004298
:1058E00000140042001800420300220003002300BD
:1058F000030020000300210068130000641300006F
:10590000641300005E1300005E1300006E130000BD
:1059100074130000861300001E1E1F1F20000000CD
:10592000003000420034004200380042003C004297
:1059300000400042020000000010000002000000D1
:1059400000200000020000000040000002000000F3
:10595000008000000200000000000100457869742A
:10596000696E672077697468207374617475732039
:1059700025642E0A000000000D0A0D0A4D79204111
:105980006464726573733A20307800002530327891
:1059900000000000202050414E49443A2030780059
:1059A0002578000020204368616E6E656C3A200007
:1059B000256400000D0A436F6E6E656374696F6E37
:1059C0002009506565724C6F6E674164647265733F
:1059D00073200950656572496E666F0D0A000000FC
:1059E000090909002F7400000D0A0D0A436F6E6E3D
:1059F000656374696F6E2020202020506565724CAD
:105A00006F6E67416464726573732020202020509C
:105A1000656572496E666F0D0A0000002020202027
:105A200020202020202020202000000020202020D6
:105A3000000000000D0A20466F72204368616E6E00
:105A4000656C206D61703A202530780D0A000000E9
:105A50000D0A456E65726779205363616E20526549
:105A600073756C74733A00000D0A4368616E6E655D
:105A70006C202575000000003A200000257500000C
:105A80002D0000000D0A537461727420576972650D
:105A90006C65737320436F6D6D756E6963617469B6
:105AA0006F6E206F6E204368616E6E656C20000023
:105AB0004461746120526571756573742045787016
:105AC000697265640D0A00000D0A486F7070696E96
:105AD00067204368616E6E656C20746F20256420BA
